{"contracts/TokenCertiToken.sol":{"TokenCertiToken":{"abi":[{"inputs":[],"stateMutability":"nonpayable","type":"constructor"},{"inputs":[{"internalType":"address","name":"spender","type":"address"},{"internalType":"uint256","name":"allowance","type":"uint256"},{"internalType":"uint256","name":"needed","type":"uint256"}],"name":"ERC20InsufficientAllowance","type":"error"},{"inputs":[{"internalType":"address","name":"sender","type":"address"},{"internalType":"uint256","name":"balance","type":"uint256"},{"internalType":"uint256","name":"needed","type":"uint256"}],"name":"ERC20InsufficientBalance","type":"error"},{"inputs":[{"internalType":"address","name":"approver","type":"address"}],"name":"ERC20InvalidApprover","type":"error"},{"inputs":[{"internalType":"address","name":"receiver","type":"address"}],"name":"ERC20InvalidReceiver","type":"error"},{"inputs":[{"internalType":"address","name":"sender","type":"address"}],"name":"ERC20InvalidSender","type":"error"},{"inputs":[{"internalType":"address","name":"spender","type":"address"}],"name":"ERC20InvalidSpender","type":"error"},{"inputs":[],"name":"EnforcedPause","type":"error"},{"inputs":[],"name":"ExpectedPause","type":"error"},{"inputs":[{"internalType":"address","name":"owner","type":"address"}],"name":"OwnableInvalidOwner","type":"error"},{"inputs":[{"internalType":"address","name":"account","type":"address"}],"name":"OwnableUnauthorizedAccount","type":"error"},{"inputs":[],"name":"ReentrancyGuardReentrantCall","type":"error"},{"anonymous":false,"inputs":[{"indexed":true,"internalType":"address","name":"administrador","type":"address"}],"name":"AdministradorRecompensasAdicionado","type":"event"},{"anonymous":false,"inputs":[{"indexed":true,"internalType":"address","name":"administrador","type":"address"}],"name":"AdministradorRecompensasRemovido","type":"event"},{"anonymous":false,"inputs":[{"indexed":true,"internalType":"address","name":"owner","type":"address"},{"indexed":true,"internalType":"address","name":"spender","type":"address"},{"indexed":false,"internalType":"uint256","name":"value","type":"uint256"}],"name":"Approval","type":"event"},{"anonymous":false,"inputs":[{"indexed":true,"internalType":"address","name":"previousOwner","type":"address"},{"indexed":true,"internalType":"address","name":"newOwner","type":"address"}],"name":"OwnershipTransferred","type":"event"},{"anonymous":false,"inputs":[{"indexed":false,"internalType":"address","name":"account","type":"address"}],"name":"Paused","type":"event"},{"anonymous":false,"inputs":[{"indexed":true,"internalType":"address","name":"aluno","type":"address"},{"indexed":false,"internalType":"uint256","name":"quantidade","type":"uint256"},{"indexed":false,"internalType":"string","name":"motivo","type":"string"},{"indexed":false,"internalType":"uint256","name":"dataEnvio","type":"uint256"}],"name":"RecompensaEnviada","type":"event"},{"anonymous":false,"inputs":[{"indexed":false,"internalType":"address[]","name":"alunos","type":"address[]"},{"indexed":false,"internalType":"uint256[]","name":"quantidades","type":"uint256[]"},{"indexed":false,"internalType":"string","name":"motivo","type":"string"},{"indexed":false,"internalType":"uint256","name":"dataEnvio","type":"uint256"}],"name":"RecompensasEmLote","type":"event"},{"anonymous":false,"inputs":[{"indexed":true,"internalType":"address","name":"de","type":"address"},{"indexed":false,"internalType":"uint256","name":"quantidade","type":"uint256"},{"indexed":false,"internalType":"string","name":"motivo","type":"string"},{"indexed":false,"internalType":"uint256","name":"dataQueima","type":"uint256"}],"name":"TokensQueimados","type":"event"},{"anonymous":false,"inputs":[{"indexed":true,"internalType":"address","name":"from","type":"address"},{"indexed":true,"internalType":"address","name":"to","type":"address"},{"indexed":false,"internalType":"uint256","name":"value","type":"uint256"}],"name":"Transfer","type":"event"},{"anonymous":false,"inputs":[{"indexed":false,"internalType":"address","name":"account","type":"address"}],"name":"Unpaused","type":"event"},{"inputs":[{"internalType":"address","name":"_novoAdministrador","type":"address"}],"name":"adicionarAdministradorRecompensas","outputs":[],"stateMutability":"nonpayable","type":"function"},{"inputs":[{"internalType":"address","name":"","type":"address"}],"name":"administradoresRecompensas","outputs":[{"internalType":"bool","name":"","type":"bool"}],"stateMutability":"view","type":"function"},{"inputs":[{"internalType":"address","name":"owner","type":"address"},{"internalType":"address","name":"spender","type":"address"}],"name":"allowance","outputs":[{"internalType":"uint256","name":"","type":"uint256"}],"stateMutability":"view","type":"function"},{"inputs":[{"internalType":"address","name":"spender","type":"address"},{"internalType":"uint256","name":"value","type":"uint256"}],"name":"approve","outputs":[{"internalType":"bool","name":"","type":"bool"}],"stateMutability":"nonpayable","type":"function"},{"inputs":[{"internalType":"address","name":"account","type":"address"}],"name":"balanceOf","outputs":[{"internalType":"uint256","name":"","type":"uint256"}],"stateMutability":"view","type":"function"},{"inputs":[{"internalType":"uint256","name":"value","type":"uint256"}],"name":"burn","outputs":[],"stateMutability":"nonpayable","type":"function"},{"inputs":[{"internalType":"address","name":"account","type":"address"},{"internalType":"uint256","name":"value","type":"uint256"}],"name":"burnFrom","outputs":[],"stateMutability":"nonpayable","type":"function"},{"inputs":[],"name":"decimals","outputs":[{"internalType":"uint8","name":"","type":"uint8"}],"stateMutability":"view","type":"function"},{"inputs":[],"name":"despausarContrato","outputs":[],"stateMutability":"nonpayable","type":"function"},{"inputs":[{"internalType":"address","name":"_aluno","type":"address"},{"internalType":"uint256","name":"_quantidade","type":"uint256"},{"internalType":"string","name":"_motivo","type":"string"}],"name":"enviarRecompensa","outputs":[],"stateMutability":"nonpayable","type":"function"},{"inputs":[{"internalType":"address[]","name":"_alunos","type":"address[]"},{"internalType":"uint256[]","name":"_quantidades","type":"uint256[]"},{"internalType":"string","name":"_motivo","type":"string"}],"name":"enviarRecompensasEmLote","outputs":[],"stateMutability":"nonpayable","type":"function"},{"inputs":[{"internalType":"address","name":"","type":"address"},{"internalType":"uint256","name":"","type":"uint256"}],"name":"historicoRecompensas","outputs":[{"internalType":"uint256","name":"quantidade","type":"uint256"},{"internalType":"string","name":"motivo","type":"string"},{"internalType":"uint256","name":"dataEnvio","type":"uint256"},{"internalType":"address","name":"remetente","type":"address"}],"stateMutability":"view","type":"function"},{"inputs":[],"name":"name","outputs":[{"internalType":"string","name":"","type":"string"}],"stateMutability":"view","type":"function"},{"inputs":[{"internalType":"address","name":"_aluno","type":"address"}],"name":"obterHistoricoRecompensas","outputs":[{"components":[{"internalType":"uint256","name":"quantidade","type":"uint256"},{"internalType":"string","name":"motivo","type":"string"},{"internalType":"uint256","name":"dataEnvio","type":"uint256"},{"internalType":"address","name":"remetente","type":"address"}],"internalType":"struct TokenCertiToken.Recompensa[]","name":"","type":"tuple[]"}],"stateMutability":"view","type":"function"},{"inputs":[],"name":"obterInformacoesToken","outputs":[{"internalType":"string","name":"","type":"string"},{"internalType":"string","name":"","type":"string"},{"internalType":"uint8","name":"","type":"uint8"},{"internalType":"uint256","name":"","type":"uint256"}],"stateMutability":"view","type":"function"},{"inputs":[{"internalType":"address","name":"_conta","type":"address"}],"name":"obterSaldo","outputs":[{"internalType":"uint256","name":"","type":"uint256"}],"stateMutability":"view","type":"function"},{"inputs":[{"internalType":"address","name":"_aluno","type":"address"}],"name":"obterTotalRecompensasRecebidas","outputs":[{"internalType":"uint256","name":"","type":"uint256"}],"stateMutability":"view","type":"function"},{"inputs":[],"name":"obterTotalSupply","outputs":[{"internalType":"uint256","name":"","type":"uint256"}],"stateMutability":"view","type":"function"},{"inputs":[],"name":"owner","outputs":[{"internalType":"address","name":"","type":"address"}],"stateMutability":"view","type":"function"},{"inputs":[],"name":"pausarContrato","outputs":[],"stateMutability":"nonpayable","type":"function"},{"inputs":[],"name":"paused","outputs":[{"internalType":"bool","name":"","type":"bool"}],"stateMutability":"view","type":"function"},{"inputs":[{"internalType":"address","name":"_de","type":"address"},{"internalType":"uint256","name":"_quantidade","type":"uint256"},{"internalType":"string","name":"_motivo","type":"string"}],"name":"queimarDe","outputs":[],"stateMutability":"nonpayable","type":"function"},{"inputs":[{"internalType":"uint256","name":"_quantidade","type":"uint256"},{"internalType":"string","name":"_motivo","type":"string"}],"name":"queimarTokens","outputs":[],"stateMutability":"nonpayable","type":"function"},{"inputs":[{"internalType":"address","name":"_administrador","type":"address"}],"name":"removerAdministradorRecompensas","outputs":[],"stateMutability":"nonpayable","type":"function"},{"inputs":[],"name":"renounceOwnership","outputs":[],"stateMutability":"nonpayable","type":"function"},{"inputs":[],"name":"symbol","outputs":[{"internalType":"string","name":"","type":"string"}],"stateMutability":"view","type":"function"},{"inputs":[{"internalType":"address","name":"","type":"address"}],"name":"totalRecompensasRecebidas","outputs":[{"internalType":"uint256","name":"","type":"uint256"}],"stateMutability":"view","type":"function"},{"inputs":[],"name":"totalSupply","outputs":[{"internalType":"uint256","name":"","type":"uint256"}],"stateMutability":"view","type":"function"},{"inputs":[{"internalType":"address","name":"to","type":"address"},{"internalType":"uint256","name":"amount","type":"uint256"}],"name":"transfer","outputs":[{"internalType":"bool","name":"","type":"bool"}],"stateMutability":"nonpayable","type":"function"},{"inputs":[{"internalType":"address","name":"from","type":"address"},{"internalType":"address","name":"to","type":"address"},{"internalType":"uint256","name":"amount","type":"uint256"}],"name":"transferFrom","outputs":[{"internalType":"bool","name":"","type":"bool"}],"stateMutability":"nonpayable","type":"function"},{"inputs":[{"internalType":"address","name":"newOwner","type":"address"}],"name":"transferOwnership","outputs":[],"stateMutability":"nonpayable","type":"function"},{"inputs":[{"internalType":"address","name":"_endereco","type":"address"}],"name":"verificarAdministradorRecompensas","outputs":[{"internalType":"bool","name":"","type":"bool"}],"stateMutability":"view","type":"function"}],"evm":{"bytecode":{"linkReferences":{},"object":"60803462000406576001600160401b03906040908082018381118282101762000306578252600a815260206921b2b93a34aa37b5b2b760b11b81830152825193838501858110828211176200030657845260038086526243544b60e81b83870152835182811162000306578154906001958683811c93168015620003fb575b86841014620003e5578190601f938481116200038f575b50869084831160011462000328576000926200031c575b505060001982851b1c191690861b1782555b8651928311620003065760049687548681811c91168015620002fb575b86821014620002e65790818386959493116200028c575b5085918411600114620002215760009362000215575b505082851b92600019911b1c19161784555b3315620001fe5760058054336001600160a01b0319821681179092556001600160a01b03167f8be0079c531659141344cd1fd0a4f28419497f9722a3daafe3b4186f6b6457e0600080a38160065560025469d3c21bcecceda100000090818101809111620001e9579060099291600255336000526000825284600020818154019055845190815260007fddf252ad1be2c89b69c2b068fc378daa952ba7f163c4a11628f55a4df523b3ef833393a33360005252816000209060ff1982541617905551611d1190816200040c8239f35b601186634e487b7160e01b6000525260246000fd5b8251631e4fbdf760e01b8152600081860152602490fd5b01519150388062000108565b9190869450601f1984169289600052866000209360005b888282106200027557505085116200025a575b50505050811b0184556200011a565b01519060f884600019921b161c19169055388080806200024b565b8385015187558a9890960195938401930162000238565b909192935088600052856000208380870160051c820192888810620002dc575b9189918897969594930160051c01915b828110620002cc575050620000f2565b60008155879650899101620002bc565b92508192620002ac565b602289634e487b7160e01b6000525260246000fd5b90607f1690620000db565b634e487b7160e01b600052604160045260246000fd5b015190503880620000ac565b90889350601f1983169186600052886000209260005b8a8282106200037857505084116200035f575b505050811b018255620000be565b015160001983871b60f8161c1916905538808062000351565b8385015186558c979095019493840193016200033e565b90915084600052866000208480850160051c820192898610620003db575b918a91869594930160051c01915b828110620003cb57505062000095565b600081558594508a9101620003bb565b92508192620003ad565b634e487b7160e01b600052602260045260246000fd5b92607f16926200007e565b600080fdfe6040608081526004908136101561001557600080fd5b600091823560e01c806303cd5ead1461122957806306fdde03146111f8578063095ea7b31461114f5780631606857f1461104657806318160ddd146109f85780631a003ecb14610fe55780631f5f480d14610a1757806323b872dd14610fa057806324ec4f6814610f1157806325f7a07714610ed3578063313ce56714610eb757806338d5c91614610e4857806342966c6814610e2a5780634d301cea14610cee5780635c975abb14610cc7578063689776e514610c0a57806370a0823114610770578063715018a614610bad57806375e8d90714610aab57806379cc679014610a785780638da5cb5b14610a4f5780638df9ddf614610a175780639318153a146109f857806395d89b411461090e5780639dfc15dc146107ec578063a9059cbb146107b3578063aa2e4c3814610770578063d157884a14610716578063d93ba95f14610657578063dd62ed3e1461060e578063e3883194146102135763f2fde38b1461018157600080fd5b3461020f57602036600319011261020f5761019a6113e8565b906101a3611640565b6001600160a01b039182169283156101f9575050600554826bffffffffffffffffffffffff60a01b821617600555167f8be0079c531659141344cd1fd0a4f28419497f9722a3daafe3b4186f6b6457e08380a380f35b51631e4fbdf760e01b8152908101849052602490fd5b8280fd5b5091903461060a576060908160031936011261020f57833567ffffffffffffffff93848211610607573660238301121561060757818601359061025582611628565b916102628551938461132a565b80835260209081840194856024809360051b83010191368311610603578301905b8282106105e0575050508035968888116105dc57366023890112156105dc57878a0135986102b08a611628565b986102bd89519a8b61132a565b8a8a52848a0184819c60051b830101913683116105d85785879101915b8383106105c857505050506044359081116105c4576102fc9036908c0161134c565b9960018060a01b03928360055416331480156105b0575b61031c9061181a565b610324611c34565b61032c611c55565b86518a510361056f5786511561052d57505061034a8a511515611970565b8399849a5b89518c101561037c57610370610376916103698e8d611c87565b5190611724565b9b611c78565b9a61034f565b908a6103958b94933389528888528b892054101561192f565b865b8851811015610473578061043b888861042b8f958e61046e978a610409848f6103cd896103c48489611c87565b511615156118e3565b6103e26103da8383611c87565b51151561188c565b610404896103f08489611c87565b51166103fc8484611c87565b519033611b6f565b611c87565b5196825197610417896112f8565b88528701524290860152338b860152611c87565b51168b5260078a528d8b206119bc565b6104458187611c87565b5187610451838d611c87565b51168a52600889526104678d8b20918254611724565b9055611c78565b610397565b509489908989958997845197608089019060808a525180915260a0890193918a905b828210610514575050505086820387840152518082529082019791875b82811061050057878a0385890152887fd39fddaac5bddb4d31ce2a01c76d59bd130cce6e783018eb67d45943cb51f94989808a6104ef8f8c6113a8565b9042908301520390a1600160065580f35b83518a5298810198928101926001016104b2565b8351811686529486019492860192600190910190610495565b885162461bcd60e51b8152918201859052601d908201527f417272617973206e616f20706f64656d2065737461722076617a696f730000006044820152606490fd5b885162461bcd60e51b815291820185905281018490527f41727261797320646576656d20746572206f206d65736d6f2074616d616e686f6044820152606490fd5b50338652600985528886205460ff16610313565b8480fd5b82358152918101918791016102da565b8780fd5b8380fd5b81356001600160a01b03811681036105ff578152908401908401610283565b8680fd5b8580fd5b80fd5b5080fd5b50503461060a578060031936011261060a578060209261062c6113e8565b6106346113fe565b6001600160a01b0391821683526001865283832091168252845220549051908152f35b50903461020f57602036600319011261020f576106726113e8565b61067a611640565b6001600160a01b03169161068f831515611c9b565b828452600960205260ff82852054166106df575081835260096020528220805460ff191660011790557f56dd0c4e9474a0abe6fd4c1617a5c98abb2eebe4c5fe55329169742dc0d1be068280a280f35b6020606492519162461bcd60e51b83528201526012602482015271253090329030b236b4b734b9ba3930b237b960711b6044820152fd5b50503461060a57602036600319011261060a57906020916107356113e8565b6005546001600160a01b03918216911681149290831561075a575b5050519015158152f35b8152600984528190205460ff1691503880610750565b50503461060a57602036600319011261060a576020906107ac6107916113e8565b6001600160a01b031660009081526020819052604090205490565b9051908152f35b50503461060a578060031936011261060a576020906107e56107d36113e8565b6107db611c34565b6024359033611b6f565b5160018152f35b50503461060a577f4608251746de1a3e686704a28de29b5c7fea05ca03ce34934ee13207802149d56108ee91610821366115e2565b919490926108988460018060a01b038060055416331480156108f9575b6108479061181a565b61085282151561188c565b61085a611c34565b610862611c55565b8816976108708915156118e3565b338a528960205261088682858c2054101561192f565b61089286511515611970565b33611b6f565b6108ca81516108a6816112f8565b858152846020820152428382015233606082015287895260076020528289206119bc565b85875260086020528087206108e0858254611724565b905551928392429184611b4d565b0390a2600160065580f35b50338a526009602052838a205460ff1661083e565b50903461020f578260031936011261020f578051918381549061093082611446565b808652926001928084169081156109cd5750600114610971575b61096d868661095b828b038361132a565b519182916020835260208301906113a8565b0390f35b815294507f8a35acfbc15ff81a39ae7d344fd709f28e8600b4aa8c65c6b64bfe7fe36bd19b5b8286106109b55750505061095b82602061096d95820101943861094a565b80546020878701810191909152909501948101610997565b905061096d97508693506020925061095b94915060ff191682840152151560051b820101943861094a565b50503461060a578160031936011261060a576020906002549051908152f35b50503461060a57602036600319011261060a5760209181906001600160a01b03610a3f6113e8565b1681526008845220549051908152f35b50503461060a578160031936011261060a5760055490516001600160a01b039091168152602090f35b50503461060a5736600319011261060757610aa8610a946113e8565b60243590610aa3823383611747565b61166c565b80f35b50903461020f57602036600319011261020f57610ac66113e8565b91610acf611640565b6005546001600160a01b0393841693168314610b6b57828452600960205260ff828520541615610b33575081835260096020528220805460ff191690557f3df0cb72c50197e940739b67cec44b4b4ae7c5632bf1a41168596fe044f28c3e8280a280f35b6020606492519162461bcd60e51b835282015260136024820152722730b790329030b236b4b734b9ba3930b237b960691b6044820152fd5b6020606492519162461bcd60e51b8352820152601860248201527f4e616f20706f64652072656d6f766572206f206f776e657200000000000000006044820152fd5b8334610607578060031936011261060757610bc6611640565b600580546001600160a01b0319811690915581906001600160a01b03167f8be0079c531659141344cd1fd0a4f28419497f9722a3daafe3b4186f6b6457e08280a380f35b50503461060a577f548e41ec9ab793e102140d78d18d21e9da854859593dff50f6068d7c9c6e37c4610cac91610c3f366115e2565b91949092610ca08460018060a01b03806005541633148015610cb2575b610c659061181a565b610c7082151561188c565b881697610c7e891515611c9b565b888a5289602052610c9482858c2054101561192f565b610aa386511515611970565b51928392429184611b4d565b0390a280f35b50338a526009602052838a205460ff16610c5c565b50503461060a578160031936011261060a5760209060ff60055460a01c1690519015158152f35b509134610607576020928360031936011261060a576001600160a01b0393919084610d176113e8565b16825260078352838220928354610d2d81611628565b92610d3a8751948561132a565b8184528284018096865283862086915b898b868510610ddb57509450505050505194818601928287525180935280860190808460051b8801019594975b848910610d845787870388f35b9091929394958480600192603f198b820301875289519081518152610db583830151608080868501528301906113a8565b918781015188830152866060809201511691015298019401980197919094939294610d77565b9660019282829a9b9988945191610df1836112f8565b87548352610e0087890161153e565b85840152600288015490830152600387015416606082015281520192019201919096959496610d4a565b83823461060a57602036600319011261060a57610aa890353361166c565b503461020f578260031936011261020f57610e61611640565b6005549060ff8260a01c1615610ea9575060ff60a01b1916600555513381527f5db9ee0a495bf2e6ff9c91a7834c1ba4fdd244a5e8aa4e537bd38aeae4b073aa90602090a180f35b8251638dfc202b60e01b8152fd5b50503461060a578160031936011261060a576020905160128152f35b50503461060a57602036600319011261060a5760209160ff9082906001600160a01b03610efe6113e8565b1681526009855220541690519015158152f35b50503461060a578060031936011261060a57610f2b6113e8565b6001600160a01b03908116835260076020528183208054919360243592831015610607575090610f5a91611414565b5090815491610f6b6001820161153e565b93600360028301549201541690610f93835195869586526080602087015260808601906113a8565b9284015260608301520390f35b50503461060a57606036600319011261060a576020906107e5610fc16113e8565b610fc96113fe565b60443591610fd5611c34565b610fe0833383611747565b611b6f565b50503461060a578160031936011261060a5760207f62e78cea01bee320cd4e420270b5ea74000d11b0c9f74754ebdbfc544b05a25891611023611640565b61102b611c34565b6005805460ff60a01b1916600160a01b17905551338152a180f35b5091903461060a578160031936011261060a57611061611480565b918151938181549061107282611446565b8088529260019280841690811561112257506001146110c8575b6110ba87878a61109e818a038261132a565b6012610f936002549284519687966080885260808801906113a8565b9086820360208801526113a8565b815292507f8a35acfbc15ff81a39ae7d344fd709f28e8600b4aa8c65c6b64bfe7fe36bd19b5b82841061110a57505050830160200161109e846110ba3861108c565b805460208589018101919091529093019281016110ee565b90508895506110ba9893506020925061109e94915060ff191682840152151560051b82010192953861108c565b503461020f578160031936011261020f576111686113e8565b6024359033156111e1576001600160a01b03169182156111ca57508083602095338152600187528181208582528752205582519081527f8c5be1e5ebec7d5bd14f71427d1e84f3dd0314c0f7b2291e5b200ac8c7c3b925843392a35160018152f35b8351634a1406b160e11b8152908101859052602490fd5b835163e602df0560e01b8152808401869052602490fd5b50503461060a578160031936011261060a5761096d90611216611480565b90519182916020835260208301906113a8565b503461020f578160031936011261020f5760243590803567ffffffffffffffff83116105c457611280610cac927f548e41ec9ab793e102140d78d18d21e9da854859593dff50f6068d7c9c6e37c49436910161134c565b9360018060a01b0360055416331480156112e3575b61129e9061181a565b6112a982151561188c565b338652856020526112bf8282882054101561192f565b6112cb85511515611970565b6112d5823361166c565b519182913395429184611b4d565b5033865260096020528086205460ff16611295565b6080810190811067ffffffffffffffff82111761131457604052565b634e487b7160e01b600052604160045260246000fd5b90601f8019910116810190811067ffffffffffffffff82111761131457604052565b81601f820112156113a35780359067ffffffffffffffff82116113145760405192611381601f8401601f19166020018561132a565b828452602083830101116113a357816000926020809301838601378301015290565b600080fd5b919082519283825260005b8481106113d4575050826000602080949584010152601f8019910116010190565b6020818301810151848301820152016113b3565b600435906001600160a01b03821682036113a357565b602435906001600160a01b03821682036113a357565b80548210156114305760005260206000209060021b0190600090565b634e487b7160e01b600052603260045260246000fd5b90600182811c92168015611476575b602083101461146057565b634e487b7160e01b600052602260045260246000fd5b91607f1691611455565b604051906000826003549161149483611446565b8083529260019081811690811561151c57506001146114bd575b506114bb9250038361132a565b565b6003600090815291507fc2575a0e9e593c00f959f8c92f12db2869c3395a3b0502d05e2516446f71f85b5b84831061150157506114bb9350508101602001386114ae565b81935090816020925483858a010152019101909185926114e8565b9050602092506114bb94915060ff191682840152151560051b820101386114ae565b906040519182600082549261155284611446565b9081845260019485811690816000146115bf575060011461157c575b50506114bb9250038361132a565b9093915060005260209081600020936000915b8183106115a75750506114bb9350820101388061156e565b8554888401850152948501948794509183019161158f565b9150506114bb94506020925060ff191682840152151560051b820101388061156e565b60606003198201126113a3576004356001600160a01b03811681036113a35791602435916044359067ffffffffffffffff82116113a3576116259160040161134c565b90565b67ffffffffffffffff81116113145760051b60200190565b6005546001600160a01b0316330361165457565b60405163118cdaa760e01b8152336004820152602490fd5b906001600160a01b03821690811561170b57600092828452836020526040842054908282106116d95750817fddf252ad1be2c89b69c2b068fc378daa952ba7f163c4a11628f55a4df523b3ef926020928587528684520360408620558060025403600255604051908152a3565b60405163391434e360e21b81526001600160a01b03919091166004820152602481019190915260448101829052606490fd5b604051634b637e8f60e11b815260006004820152602490fd5b9190820180921161173157565b634e487b7160e01b600052601160045260246000fd5b9160018060a01b038093169160009383855260016020526040938486209183169182875260205284862054926000198410611786575b50505050505050565b8484106117ea575080156117d25781156117ba5785526001602052838520908552602052039120553880808080808061177d565b8451634a1406b160e11b815260048101879052602490fd5b845163e602df0560e01b815260048101879052602490fd5b8551637dc7a0d960e11b81526001600160a01b039190911660048201526024810184905260448101859052606490fd5b1561182157565b60405162461bcd60e51b815260206004820152603e60248201527f4170656e61732061646d696e6973747261646f726573206465207265636f6d7060448201527f656e73617320706f64656d2065786563757461722065737461206163616f00006064820152608490fd5b1561189357565b60405162461bcd60e51b815260206004820152602260248201527f5175616e746964616465206465766520736572206d61696f7220717565207a65604482015261726f60f01b6064820152608490fd5b156118ea57565b60405162461bcd60e51b815260206004820152601a60248201527f456e64657265636f20646f20616c756e6f20696e76616c69646f0000000000006044820152606490fd5b1561193657565b60405162461bcd60e51b815260206004820152601260248201527153616c646f20696e737566696369656e746560701b6044820152606490fd5b1561197757565b60405162461bcd60e51b815260206004820152601b60248201527f4d6f7469766f206e616f20706f64652065737461722076617a696f00000000006044820152606490fd5b9190825468010000000000000000811015611314576119e2906001948582018155611414565b611b375781518155838101602094858401519586519667ffffffffffffffff881161131457611a118454611446565b601f8111611aee575b5081601f8911600114611a87575096809281926003979899600094611a7c575b50501b9160001990861b1c19161790555b604083015160028201550190606060018060a01b03910151166bffffffffffffffffffffffff60a01b825416179055565b015192503880611a3a565b909791601f198316988560005282600020926000905b8b8210611ad757505083600398999a10611abf575b505050811b019055611a4b565b015160001983881b60f8161c19169055388080611ab2565b808785968294968601518155019501930190611a9d565b6000858152838120601f8b0160051c810192858c10611b2d575b601f0160051c019185905b838110611b2257505050611a1a565b828155018590611b13565b9092508290611b08565b634e487b7160e01b600052600060045260246000fd5b939291611b6a9060409286526060602087015260608601906113a8565b930152565b916001600160a01b0380841692831561170b5716928315611c1b5760009083825281602052604082205490838210611be9575091604082827fddf252ad1be2c89b69c2b068fc378daa952ba7f163c4a11628f55a4df523b3ef958760209652828652038282205586815220818154019055604051908152a3565b60405163391434e360e21b81526001600160a01b03919091166004820152602481019190915260448101839052606490fd5b60405163ec442f0560e01b815260006004820152602490fd5b60ff60055460a01c16611c4357565b60405163d93c066560e01b8152600490fd5b600260065414611c66576002600655565b604051633ee5aeb560e01b8152600490fd5b60001981146117315760010190565b80518210156114305760209160051b010190565b15611ca257565b60405162461bcd60e51b8152602060048201526011602482015270456e64657265636f20696e76616c69646f60781b6044820152606490fdfea2646970667358221220737ae0aedeb331324708c3f3f7488e8f48a64145624b7bad9b969c95764e27fa64736f6c63430008140033","opcodes":"PUSH1 0x80 CALLVALUE PUSH3 0x406 JUMPI PUSH1 0x1 PUSH1 0x1 PUSH1 0x40 SHL SUB SWAP1 PUSH1 0x40 SWAP1 DUP1 DUP3 ADD DUP4 DUP2 GT DUP3 DUP3 LT OR PUSH3 0x306 JUMPI DUP3 MSTORE PUSH1 0xA DUP2 MSTORE PUSH1 0x20 PUSH10 0x21B2B93A34AA37B5B2B7 PUSH1 0xB1 SHL DUP2 DUP4 ADD MSTORE DUP3 MLOAD SWAP4 DUP4 DUP6 ADD DUP6 DUP2 LT DUP3 DUP3 GT OR PUSH3 0x306 JUMPI DUP5 MSTORE PUSH1 0x3 DUP1 DUP7 MSTORE PUSH3 0x43544B PUSH1 0xE8 SHL DUP4 DUP8 ADD MSTORE DUP4 MLOAD DUP3 DUP2 GT PUSH3 0x306 JUMPI DUP2 SLOAD SWAP1 PUSH1 0x1 SWAP6 DUP7 DUP4 DUP2 SHR SWAP4 AND DUP1 ISZERO PUSH3 0x3FB JUMPI JUMPDEST DUP7 DUP5 LT EQ PUSH3 0x3E5 JUMPI DUP2 SWAP1 PUSH1 0x1F SWAP4 DUP5 DUP2 GT PUSH3 0x38F JUMPI JUMPDEST POP DUP7 SWAP1 DUP5 DUP4 GT PUSH1 0x1 EQ PUSH3 0x328 JUMPI PUSH1 0x0 SWAP3 PUSH3 0x31C JUMPI JUMPDEST POP POP PUSH1 0x0 NOT DUP3 DUP6 SHL SHR NOT AND SWAP1 DUP7 SHL OR DUP3 SSTORE JUMPDEST DUP7 MLOAD SWAP3 DUP4 GT PUSH3 0x306 JUMPI PUSH1 0x4 SWAP7 DUP8 SLOAD DUP7 DUP2 DUP2 SHR SWAP2 AND DUP1 ISZERO PUSH3 0x2FB JUMPI JUMPDEST DUP7 DUP3 LT EQ PUSH3 0x2E6 JUMPI SWAP1 DUP2 DUP4 DUP7 SWAP6 SWAP5 SWAP4 GT PUSH3 0x28C JUMPI JUMPDEST POP DUP6 SWAP2 DUP5 GT PUSH1 0x1 EQ PUSH3 0x221 JUMPI PUSH1 0x0 SWAP4 PUSH3 0x215 JUMPI JUMPDEST POP POP DUP3 DUP6 SHL SWAP3 PUSH1 0x0 NOT SWAP2 SHL SHR NOT AND OR DUP5 SSTORE JUMPDEST CALLER ISZERO PUSH3 0x1FE JUMPI PUSH1 0x5 DUP1 SLOAD CALLER PUSH1 0x1 PUSH1 0x1 PUSH1 0xA0 SHL SUB NOT DUP3 AND DUP2 OR SWAP1 SWAP3 SSTORE PUSH1 0x1 PUSH1 0x1 PUSH1 0xA0 SHL SUB AND PUSH32 0x8BE0079C531659141344CD1FD0A4F28419497F9722A3DAAFE3B4186F6B6457E0 PUSH1 0x0 DUP1 LOG3 DUP2 PUSH1 0x6 SSTORE PUSH1 0x2 SLOAD PUSH10 0xD3C21BCECCEDA1000000 SWAP1 DUP2 DUP2 ADD DUP1 SWAP2 GT PUSH3 0x1E9 JUMPI SWAP1 PUSH1 0x9 SWAP3 SWAP2 PUSH1 0x2 SSTORE CALLER PUSH1 0x0 MSTORE PUSH1 0x0 DUP3 MSTORE DUP5 PUSH1 0x0 KECCAK256 DUP2 DUP2 SLOAD ADD SWAP1 SSTORE DUP5 MLOAD SWAP1 DUP2 MSTORE PUSH1 0x0 PUSH32 0xDDF252AD1BE2C89B69C2B068FC378DAA952BA7F163C4A11628F55A4DF523B3EF DUP4 CALLER SWAP4 LOG3 CALLER PUSH1 0x0 MSTORE MSTORE DUP2 PUSH1 0x0 KECCAK256 SWAP1 PUSH1 0xFF NOT DUP3 SLOAD AND OR SWAP1 SSTORE MLOAD PUSH2 0x1D11 SWAP1 DUP2 PUSH3 0x40C DUP3 CODECOPY RETURN JUMPDEST PUSH1 0x11 DUP7 PUSH4 0x4E487B71 PUSH1 0xE0 SHL PUSH1 0x0 MSTORE MSTORE PUSH1 0x24 PUSH1 0x0 REVERT JUMPDEST DUP3 MLOAD PUSH4 0x1E4FBDF7 PUSH1 0xE0 SHL DUP2 MSTORE PUSH1 0x0 DUP2 DUP7 ADD MSTORE PUSH1 0x24 SWAP1 REVERT JUMPDEST ADD MLOAD SWAP2 POP CODESIZE DUP1 PUSH3 0x108 JUMP JUMPDEST SWAP2 SWAP1 DUP7 SWAP5 POP PUSH1 0x1F NOT DUP5 AND SWAP3 DUP10 PUSH1 0x0 MSTORE DUP7 PUSH1 0x0 KECCAK256 SWAP4 PUSH1 0x0 JUMPDEST DUP9 DUP3 DUP3 LT PUSH3 0x275 JUMPI POP POP DUP6 GT PUSH3 0x25A JUMPI JUMPDEST POP POP POP POP DUP2 SHL ADD DUP5 SSTORE PUSH3 0x11A JUMP JUMPDEST ADD MLOAD SWAP1 PUSH1 0xF8 DUP5 PUSH1 0x0 NOT SWAP3 SHL AND SHR NOT AND SWAP1 SSTORE CODESIZE DUP1 DUP1 DUP1 PUSH3 0x24B JUMP JUMPDEST DUP4 DUP6 ADD MLOAD DUP8 SSTORE DUP11 SWAP9 SWAP1 SWAP7 ADD SWAP6 SWAP4 DUP5 ADD SWAP4 ADD PUSH3 0x238 JUMP JUMPDEST SWAP1 SWAP2 SWAP3 SWAP4 POP DUP9 PUSH1 0x0 MSTORE DUP6 PUSH1 0x0 KECCAK256 DUP4 DUP1 DUP8 ADD PUSH1 0x5 SHR DUP3 ADD SWAP3 DUP9 DUP9 LT PUSH3 0x2DC JUMPI JUMPDEST SWAP2 DUP10 SWAP2 DUP9 SWAP8 SWAP7 SWAP6 SWAP5 SWAP4 ADD PUSH1 0x5 SHR ADD SWAP2 JUMPDEST DUP3 DUP2 LT PUSH3 0x2CC JUMPI POP POP PUSH3 0xF2 JUMP JUMPDEST PUSH1 0x0 DUP2 SSTORE DUP8 SWAP7 POP DUP10 SWAP2 ADD PUSH3 0x2BC JUMP JUMPDEST SWAP3 POP DUP2 SWAP3 PUSH3 0x2AC JUMP JUMPDEST PUSH1 0x22 DUP10 PUSH4 0x4E487B71 PUSH1 0xE0 SHL PUSH1 0x0 MSTORE MSTORE PUSH1 0x24 PUSH1 0x0 REVERT JUMPDEST SWAP1 PUSH1 0x7F AND SWAP1 PUSH3 0xDB JUMP JUMPDEST PUSH4 0x4E487B71 PUSH1 0xE0 SHL PUSH1 0x0 MSTORE PUSH1 0x41 PUSH1 0x4 MSTORE PUSH1 0x24 PUSH1 0x0 REVERT JUMPDEST ADD MLOAD SWAP1 POP CODESIZE DUP1 PUSH3 0xAC JUMP JUMPDEST SWAP1 DUP9 SWAP4 POP PUSH1 0x1F NOT DUP4 AND SWAP2 DUP7 PUSH1 0x0 MSTORE DUP9 PUSH1 0x0 KECCAK256 SWAP3 PUSH1 0x0 JUMPDEST DUP11 DUP3 DUP3 LT PUSH3 0x378 JUMPI POP POP DUP5 GT PUSH3 0x35F JUMPI JUMPDEST POP POP POP DUP2 SHL ADD DUP3 SSTORE PUSH3 0xBE JUMP JUMPDEST ADD MLOAD PUSH1 0x0 NOT DUP4 DUP8 SHL PUSH1 0xF8 AND SHR NOT AND SWAP1 SSTORE CODESIZE DUP1 DUP1 PUSH3 0x351 JUMP JUMPDEST DUP4 DUP6 ADD MLOAD DUP7 SSTORE DUP13 SWAP8 SWAP1 SWAP6 ADD SWAP5 SWAP4 DUP5 ADD SWAP4 ADD PUSH3 0x33E JUMP JUMPDEST SWAP1 SWAP2 POP DUP5 PUSH1 0x0 MSTORE DUP7 PUSH1 0x0 KECCAK256 DUP5 DUP1 DUP6 ADD PUSH1 0x5 SHR DUP3 ADD SWAP3 DUP10 DUP7 LT PUSH3 0x3DB JUMPI JUMPDEST SWAP2 DUP11 SWAP2 DUP7 SWAP6 SWAP5 SWAP4 ADD PUSH1 0x5 SHR ADD SWAP2 JUMPDEST DUP3 DUP2 LT PUSH3 0x3CB JUMPI POP POP PUSH3 0x95 JUMP JUMPDEST PUSH1 0x0 DUP2 SSTORE DUP6 SWAP5 POP DUP11 SWAP2 ADD PUSH3 0x3BB JUMP JUMPDEST SWAP3 POP DUP2 SWAP3 PUSH3 0x3AD JUMP JUMPDEST PUSH4 0x4E487B71 PUSH1 0xE0 SHL PUSH1 0x0 MSTORE PUSH1 0x22 PUSH1 0x4 MSTORE PUSH1 0x24 PUSH1 0x0 REVERT JUMPDEST SWAP3 PUSH1 0x7F AND SWAP3 PUSH3 0x7E JUMP JUMPDEST PUSH1 0x0 DUP1 REVERT INVALID PUSH1 0x40 PUSH1 0x80 DUP2 MSTORE PUSH1 0x4 SWAP1 DUP2 CALLDATASIZE LT ISZERO PUSH2 0x15 JUMPI PUSH1 0x0 DUP1 REVERT JUMPDEST PUSH1 0x0 SWAP2 DUP3 CALLDATALOAD PUSH1 0xE0 SHR DUP1 PUSH4 0x3CD5EAD EQ PUSH2 0x1229 JUMPI DUP1 PUSH4 0x6FDDE03 EQ PUSH2 0x11F8 JUMPI DUP1 PUSH4 0x95EA7B3 EQ PUSH2 0x114F JUMPI DUP1 PUSH4 0x1606857F EQ PUSH2 0x1046 JUMPI DUP1 PUSH4 0x18160DDD EQ PUSH2 0x9F8 JUMPI DUP1 PUSH4 0x1A003ECB EQ PUSH2 0xFE5 JUMPI DUP1 PUSH4 0x1F5F480D EQ PUSH2 0xA17 JUMPI DUP1 PUSH4 0x23B872DD EQ PUSH2 0xFA0 JUMPI DUP1 PUSH4 0x24EC4F68 EQ PUSH2 0xF11 JUMPI DUP1 PUSH4 0x25F7A077 EQ PUSH2 0xED3 JUMPI DUP1 PUSH4 0x313CE567 EQ PUSH2 0xEB7 JUMPI DUP1 PUSH4 0x38D5C916 EQ PUSH2 0xE48 JUMPI DUP1 PUSH4 0x42966C68 EQ PUSH2 0xE2A JUMPI DUP1 PUSH4 0x4D301CEA EQ PUSH2 0xCEE JUMPI DUP1 PUSH4 0x5C975ABB EQ PUSH2 0xCC7 JUMPI DUP1 PUSH4 0x689776E5 EQ PUSH2 0xC0A JUMPI DUP1 PUSH4 0x70A08231 EQ PUSH2 0x770 JUMPI DUP1 PUSH4 0x715018A6 EQ PUSH2 0xBAD JUMPI DUP1 PUSH4 0x75E8D907 EQ PUSH2 0xAAB JUMPI DUP1 PUSH4 0x79CC6790 EQ PUSH2 0xA78 JUMPI DUP1 PUSH4 0x8DA5CB5B EQ PUSH2 0xA4F JUMPI DUP1 PUSH4 0x8DF9DDF6 EQ PUSH2 0xA17 JUMPI DUP1 PUSH4 0x9318153A EQ PUSH2 0x9F8 JUMPI DUP1 PUSH4 0x95D89B41 EQ PUSH2 0x90E JUMPI DUP1 PUSH4 0x9DFC15DC EQ PUSH2 0x7EC JUMPI DUP1 PUSH4 0xA9059CBB EQ PUSH2 0x7B3 JUMPI DUP1 PUSH4 0xAA2E4C38 EQ PUSH2 0x770 JUMPI DUP1 PUSH4 0xD157884A EQ PUSH2 0x716 JUMPI DUP1 PUSH4 0xD93BA95F EQ PUSH2 0x657 JUMPI DUP1 PUSH4 0xDD62ED3E EQ PUSH2 0x60E JUMPI DUP1 PUSH4 0xE3883194 EQ PUSH2 0x213 JUMPI PUSH4 0xF2FDE38B EQ PUSH2 0x181 JUMPI PUSH1 0x0 DUP1 REVERT JUMPDEST CALLVALUE PUSH2 0x20F JUMPI PUSH1 0x20 CALLDATASIZE PUSH1 0x3 NOT ADD SLT PUSH2 0x20F JUMPI PUSH2 0x19A PUSH2 0x13E8 JUMP JUMPDEST SWAP1 PUSH2 0x1A3 PUSH2 0x1640 JUMP JUMPDEST PUSH1 0x1 PUSH1 0x1 PUSH1 0xA0 SHL SUB SWAP2 DUP3 AND SWAP3 DUP4 ISZERO PUSH2 0x1F9 JUMPI POP POP PUSH1 0x5 SLOAD DUP3 PUSH12 0xFFFFFFFFFFFFFFFFFFFFFFFF PUSH1 0xA0 SHL DUP3 AND OR PUSH1 0x5 SSTORE AND PUSH32 0x8BE0079C531659141344CD1FD0A4F28419497F9722A3DAAFE3B4186F6B6457E0 DUP4 DUP1 LOG3 DUP1 RETURN JUMPDEST MLOAD PUSH4 0x1E4FBDF7 PUSH1 0xE0 SHL DUP2 MSTORE SWAP1 DUP2 ADD DUP5 SWAP1 MSTORE PUSH1 0x24 SWAP1 REVERT JUMPDEST DUP3 DUP1 REVERT JUMPDEST POP SWAP2 SWAP1 CALLVALUE PUSH2 0x60A JUMPI PUSH1 0x60 SWAP1 DUP2 PUSH1 0x3 NOT CALLDATASIZE ADD SLT PUSH2 0x20F JUMPI DUP4 CALLDATALOAD PUSH8 0xFFFFFFFFFFFFFFFF SWAP4 DUP5 DUP3 GT PUSH2 0x607 JUMPI CALLDATASIZE PUSH1 0x23 DUP4 ADD SLT ISZERO PUSH2 0x607 JUMPI DUP2 DUP7 ADD CALLDATALOAD SWAP1 PUSH2 0x255 DUP3 PUSH2 0x1628 JUMP JUMPDEST SWAP2 PUSH2 0x262 DUP6 MLOAD SWAP4 DUP5 PUSH2 0x132A JUMP JUMPDEST DUP1 DUP4 MSTORE PUSH1 0x20 SWAP1 DUP2 DUP5 ADD SWAP5 DUP6 PUSH1 0x24 DUP1 SWAP4 PUSH1 0x5 SHL DUP4 ADD ADD SWAP2 CALLDATASIZE DUP4 GT PUSH2 0x603 JUMPI DUP4 ADD SWAP1 JUMPDEST DUP3 DUP3 LT PUSH2 0x5E0 JUMPI POP POP POP DUP1 CALLDATALOAD SWAP7 DUP9 DUP9 GT PUSH2 0x5DC JUMPI CALLDATASIZE PUSH1 0x23 DUP10 ADD SLT ISZERO PUSH2 0x5DC JUMPI DUP8 DUP11 ADD CALLDATALOAD SWAP9 PUSH2 0x2B0 DUP11 PUSH2 0x1628 JUMP JUMPDEST SWAP9 PUSH2 0x2BD DUP10 MLOAD SWAP11 DUP12 PUSH2 0x132A JUMP JUMPDEST DUP11 DUP11 MSTORE DUP5 DUP11 ADD DUP5 DUP2 SWAP13 PUSH1 0x5 SHL DUP4 ADD ADD SWAP2 CALLDATASIZE DUP4 GT PUSH2 0x5D8 JUMPI DUP6 DUP8 SWAP2 ADD SWAP2 JUMPDEST DUP4 DUP4 LT PUSH2 0x5C8 JUMPI POP POP POP POP PUSH1 0x44 CALLDATALOAD SWAP1 DUP2 GT PUSH2 0x5C4 JUMPI PUSH2 0x2FC SWAP1 CALLDATASIZE SWAP1 DUP13 ADD PUSH2 0x134C JUMP JUMPDEST SWAP10 PUSH1 0x1 DUP1 PUSH1 0xA0 SHL SUB SWAP3 DUP4 PUSH1 0x5 SLOAD AND CALLER EQ DUP1 ISZERO PUSH2 0x5B0 JUMPI JUMPDEST PUSH2 0x31C SWAP1 PUSH2 0x181A JUMP JUMPDEST PUSH2 0x324 PUSH2 0x1C34 JUMP JUMPDEST PUSH2 0x32C PUSH2 0x1C55 JUMP JUMPDEST DUP7 MLOAD DUP11 MLOAD SUB PUSH2 0x56F JUMPI DUP7 MLOAD ISZERO PUSH2 0x52D JUMPI POP POP PUSH2 0x34A DUP11 MLOAD ISZERO ISZERO PUSH2 0x1970 JUMP JUMPDEST DUP4 SWAP10 DUP5 SWAP11 JUMPDEST DUP10 MLOAD DUP13 LT ISZERO PUSH2 0x37C JUMPI PUSH2 0x370 PUSH2 0x376 SWAP2 PUSH2 0x369 DUP15 DUP14 PUSH2 0x1C87 JUMP JUMPDEST MLOAD SWAP1 PUSH2 0x1724 JUMP JUMPDEST SWAP12 PUSH2 0x1C78 JUMP JUMPDEST SWAP11 PUSH2 0x34F JUMP JUMPDEST SWAP1 DUP11 PUSH2 0x395 DUP12 SWAP5 SWAP4 CALLER DUP10 MSTORE DUP9 DUP9 MSTORE DUP12 DUP10 KECCAK256 SLOAD LT ISZERO PUSH2 0x192F JUMP JUMPDEST DUP7 JUMPDEST DUP9 MLOAD DUP2 LT ISZERO PUSH2 0x473 JUMPI DUP1 PUSH2 0x43B DUP9 DUP9 PUSH2 0x42B DUP16 SWAP6 DUP15 PUSH2 0x46E SWAP8 DUP11 PUSH2 0x409 DUP5 DUP16 PUSH2 0x3CD DUP10 PUSH2 0x3C4 DUP5 DUP10 PUSH2 0x1C87 JUMP JUMPDEST MLOAD AND ISZERO ISZERO PUSH2 0x18E3 JUMP JUMPDEST PUSH2 0x3E2 PUSH2 0x3DA DUP4 DUP4 PUSH2 0x1C87 JUMP JUMPDEST MLOAD ISZERO ISZERO PUSH2 0x188C JUMP JUMPDEST PUSH2 0x404 DUP10 PUSH2 0x3F0 DUP5 DUP10 PUSH2 0x1C87 JUMP JUMPDEST MLOAD AND PUSH2 0x3FC DUP5 DUP5 PUSH2 0x1C87 JUMP JUMPDEST MLOAD SWAP1 CALLER PUSH2 0x1B6F JUMP JUMPDEST PUSH2 0x1C87 JUMP JUMPDEST MLOAD SWAP7 DUP3 MLOAD SWAP8 PUSH2 0x417 DUP10 PUSH2 0x12F8 JUMP JUMPDEST DUP9 MSTORE DUP8 ADD MSTORE TIMESTAMP SWAP1 DUP7 ADD MSTORE CALLER DUP12 DUP7 ADD MSTORE PUSH2 0x1C87 JUMP JUMPDEST MLOAD AND DUP12 MSTORE PUSH1 0x7 DUP11 MSTORE DUP14 DUP12 KECCAK256 PUSH2 0x19BC JUMP JUMPDEST PUSH2 0x445 DUP2 DUP8 PUSH2 0x1C87 JUMP JUMPDEST MLOAD DUP8 PUSH2 0x451 DUP4 DUP14 PUSH2 0x1C87 JUMP JUMPDEST MLOAD AND DUP11 MSTORE PUSH1 0x8 DUP10 MSTORE PUSH2 0x467 DUP14 DUP12 KECCAK256 SWAP2 DUP3 SLOAD PUSH2 0x1724 JUMP JUMPDEST SWAP1 SSTORE PUSH2 0x1C78 JUMP JUMPDEST PUSH2 0x397 JUMP JUMPDEST POP SWAP5 DUP10 SWAP1 DUP10 DUP10 SWAP6 DUP10 SWAP8 DUP5 MLOAD SWAP8 PUSH1 0x80 DUP10 ADD SWAP1 PUSH1 0x80 DUP11 MSTORE MLOAD DUP1 SWAP2 MSTORE PUSH1 0xA0 DUP10 ADD SWAP4 SWAP2 DUP11 SWAP1 JUMPDEST DUP3 DUP3 LT PUSH2 0x514 JUMPI POP POP POP POP DUP7 DUP3 SUB DUP8 DUP5 ADD MSTORE MLOAD DUP1 DUP3 MSTORE SWAP1 DUP3 ADD SWAP8 SWAP2 DUP8 JUMPDEST DUP3 DUP2 LT PUSH2 0x500 JUMPI DUP8 DUP11 SUB DUP6 DUP10 ADD MSTORE DUP9 PUSH32 0xD39FDDAAC5BDDB4D31CE2A01C76D59BD130CCE6E783018EB67D45943CB51F949 DUP10 DUP1 DUP11 PUSH2 0x4EF DUP16 DUP13 PUSH2 0x13A8 JUMP JUMPDEST SWAP1 TIMESTAMP SWAP1 DUP4 ADD MSTORE SUB SWAP1 LOG1 PUSH1 0x1 PUSH1 0x6 SSTORE DUP1 RETURN JUMPDEST DUP4 MLOAD DUP11 MSTORE SWAP9 DUP2 ADD SWAP9 SWAP3 DUP2 ADD SWAP3 PUSH1 0x1 ADD PUSH2 0x4B2 JUMP JUMPDEST DUP4 MLOAD DUP2 AND DUP7 MSTORE SWAP5 DUP7 ADD SWAP5 SWAP3 DUP7 ADD SWAP3 PUSH1 0x1 SWAP1 SWAP2 ADD SWAP1 PUSH2 0x495 JUMP JUMPDEST DUP9 MLOAD PUSH3 0x461BCD PUSH1 0xE5 SHL DUP2 MSTORE SWAP2 DUP3 ADD DUP6 SWAP1 MSTORE PUSH1 0x1D SWAP1 DUP3 ADD MSTORE PUSH32 0x417272617973206E616F20706F64656D2065737461722076617A696F73000000 PUSH1 0x44 DUP3 ADD MSTORE PUSH1 0x64 SWAP1 REVERT JUMPDEST DUP9 MLOAD PUSH3 0x461BCD PUSH1 0xE5 SHL DUP2 MSTORE SWAP2 DUP3 ADD DUP6 SWAP1 MSTORE DUP2 ADD DUP5 SWAP1 MSTORE PUSH32 0x41727261797320646576656D20746572206F206D65736D6F2074616D616E686F PUSH1 0x44 DUP3 ADD MSTORE PUSH1 0x64 SWAP1 REVERT JUMPDEST POP CALLER DUP7 MSTORE PUSH1 0x9 DUP6 MSTORE DUP9 DUP7 KECCAK256 SLOAD PUSH1 0xFF AND PUSH2 0x313 JUMP JUMPDEST DUP5 DUP1 REVERT JUMPDEST DUP3 CALLDATALOAD DUP2 MSTORE SWAP2 DUP2 ADD SWAP2 DUP8 SWAP2 ADD PUSH2 0x2DA JUMP JUMPDEST DUP8 DUP1 REVERT JUMPDEST DUP4 DUP1 REVERT JUMPDEST DUP2 CALLDATALOAD PUSH1 0x1 PUSH1 0x1 PUSH1 0xA0 SHL SUB DUP2 AND DUP2 SUB PUSH2 0x5FF JUMPI DUP2 MSTORE SWAP1 DUP5 ADD SWAP1 DUP5 ADD PUSH2 0x283 JUMP JUMPDEST DUP7 DUP1 REVERT JUMPDEST DUP6 DUP1 REVERT JUMPDEST DUP1 REVERT JUMPDEST POP DUP1 REVERT JUMPDEST POP POP CALLVALUE PUSH2 0x60A JUMPI DUP1 PUSH1 0x3 NOT CALLDATASIZE ADD SLT PUSH2 0x60A JUMPI DUP1 PUSH1 0x20 SWAP3 PUSH2 0x62C PUSH2 0x13E8 JUMP JUMPDEST PUSH2 0x634 PUSH2 0x13FE JUMP JUMPDEST PUSH1 0x1 PUSH1 0x1 PUSH1 0xA0 SHL SUB SWAP2 DUP3 AND DUP4 MSTORE PUSH1 0x1 DUP7 MSTORE DUP4 DUP4 KECCAK256 SWAP2 AND DUP3 MSTORE DUP5 MSTORE KECCAK256 SLOAD SWAP1 MLOAD SWAP1 DUP2 MSTORE RETURN JUMPDEST POP SWAP1 CALLVALUE PUSH2 0x20F JUMPI PUSH1 0x20 CALLDATASIZE PUSH1 0x3 NOT ADD SLT PUSH2 0x20F JUMPI PUSH2 0x672 PUSH2 0x13E8 JUMP JUMPDEST PUSH2 0x67A PUSH2 0x1640 JUMP JUMPDEST PUSH1 0x1 PUSH1 0x1 PUSH1 0xA0 SHL SUB AND SWAP2 PUSH2 0x68F DUP4 ISZERO ISZERO PUSH2 0x1C9B JUMP JUMPDEST DUP3 DUP5 MSTORE PUSH1 0x9 PUSH1 0x20 MSTORE PUSH1 0xFF DUP3 DUP6 KECCAK256 SLOAD AND PUSH2 0x6DF JUMPI POP DUP2 DUP4 MSTORE PUSH1 0x9 PUSH1 0x20 MSTORE DUP3 KECCAK256 DUP1 SLOAD PUSH1 0xFF NOT AND PUSH1 0x1 OR SWAP1 SSTORE PUSH32 0x56DD0C4E9474A0ABE6FD4C1617A5C98ABB2EEBE4C5FE55329169742DC0D1BE06 DUP3 DUP1 LOG2 DUP1 RETURN JUMPDEST PUSH1 0x20 PUSH1 0x64 SWAP3 MLOAD SWAP2 PUSH3 0x461BCD PUSH1 0xE5 SHL DUP4 MSTORE DUP3 ADD MSTORE PUSH1 0x12 PUSH1 0x24 DUP3 ADD MSTORE PUSH18 0x253090329030B236B4B734B9BA3930B237B9 PUSH1 0x71 SHL PUSH1 0x44 DUP3 ADD MSTORE REVERT JUMPDEST POP POP CALLVALUE PUSH2 0x60A JUMPI PUSH1 0x20 CALLDATASIZE PUSH1 0x3 NOT ADD SLT PUSH2 0x60A JUMPI SWAP1 PUSH1 0x20 SWAP2 PUSH2 0x735 PUSH2 0x13E8 JUMP JUMPDEST PUSH1 0x5 SLOAD PUSH1 0x1 PUSH1 0x1 PUSH1 0xA0 SHL SUB SWAP2 DUP3 AND SWAP2 AND DUP2 EQ SWAP3 SWAP1 DUP4 ISZERO PUSH2 0x75A JUMPI JUMPDEST POP POP MLOAD SWAP1 ISZERO ISZERO DUP2 MSTORE RETURN JUMPDEST DUP2 MSTORE PUSH1 0x9 DUP5 MSTORE DUP2 SWAP1 KECCAK256 SLOAD PUSH1 0xFF AND SWAP2 POP CODESIZE DUP1 PUSH2 0x750 JUMP JUMPDEST POP POP CALLVALUE PUSH2 0x60A JUMPI PUSH1 0x20 CALLDATASIZE PUSH1 0x3 NOT ADD SLT PUSH2 0x60A JUMPI PUSH1 0x20 SWAP1 PUSH2 0x7AC PUSH2 0x791 PUSH2 0x13E8 JUMP JUMPDEST PUSH1 0x1 PUSH1 0x1 PUSH1 0xA0 SHL SUB AND PUSH1 0x0 SWAP1 DUP2 MSTORE PUSH1 0x20 DUP2 SWAP1 MSTORE PUSH1 0x40 SWAP1 KECCAK256 SLOAD SWAP1 JUMP JUMPDEST SWAP1 MLOAD SWAP1 DUP2 MSTORE RETURN JUMPDEST POP POP CALLVALUE PUSH2 0x60A JUMPI DUP1 PUSH1 0x3 NOT CALLDATASIZE ADD SLT PUSH2 0x60A JUMPI PUSH1 0x20 SWAP1 PUSH2 0x7E5 PUSH2 0x7D3 PUSH2 0x13E8 JUMP JUMPDEST PUSH2 0x7DB PUSH2 0x1C34 JUMP JUMPDEST PUSH1 0x24 CALLDATALOAD SWAP1 CALLER PUSH2 0x1B6F JUMP JUMPDEST MLOAD PUSH1 0x1 DUP2 MSTORE RETURN JUMPDEST POP POP CALLVALUE PUSH2 0x60A JUMPI PUSH32 0x4608251746DE1A3E686704A28DE29B5C7FEA05CA03CE34934EE13207802149D5 PUSH2 0x8EE SWAP2 PUSH2 0x821 CALLDATASIZE PUSH2 0x15E2 JUMP JUMPDEST SWAP2 SWAP5 SWAP1 SWAP3 PUSH2 0x898 DUP5 PUSH1 0x1 DUP1 PUSH1 0xA0 SHL SUB DUP1 PUSH1 0x5 SLOAD AND CALLER EQ DUP1 ISZERO PUSH2 0x8F9 JUMPI JUMPDEST PUSH2 0x847 SWAP1 PUSH2 0x181A JUMP JUMPDEST PUSH2 0x852 DUP3 ISZERO ISZERO PUSH2 0x188C JUMP JUMPDEST PUSH2 0x85A PUSH2 0x1C34 JUMP JUMPDEST PUSH2 0x862 PUSH2 0x1C55 JUMP JUMPDEST DUP9 AND SWAP8 PUSH2 0x870 DUP10 ISZERO ISZERO PUSH2 0x18E3 JUMP JUMPDEST CALLER DUP11 MSTORE DUP10 PUSH1 0x20 MSTORE PUSH2 0x886 DUP3 DUP6 DUP13 KECCAK256 SLOAD LT ISZERO PUSH2 0x192F JUMP JUMPDEST PUSH2 0x892 DUP7 MLOAD ISZERO ISZERO PUSH2 0x1970 JUMP JUMPDEST CALLER PUSH2 0x1B6F JUMP JUMPDEST PUSH2 0x8CA DUP2 MLOAD PUSH2 0x8A6 DUP2 PUSH2 0x12F8 JUMP JUMPDEST DUP6 DUP2 MSTORE DUP5 PUSH1 0x20 DUP3 ADD MSTORE TIMESTAMP DUP4 DUP3 ADD MSTORE CALLER PUSH1 0x60 DUP3 ADD MSTORE DUP8 DUP10 MSTORE PUSH1 0x7 PUSH1 0x20 MSTORE DUP3 DUP10 KECCAK256 PUSH2 0x19BC JUMP JUMPDEST DUP6 DUP8 MSTORE PUSH1 0x8 PUSH1 0x20 MSTORE DUP1 DUP8 KECCAK256 PUSH2 0x8E0 DUP6 DUP3 SLOAD PUSH2 0x1724 JUMP JUMPDEST SWAP1 SSTORE MLOAD SWAP3 DUP4 SWAP3 TIMESTAMP SWAP2 DUP5 PUSH2 0x1B4D JUMP JUMPDEST SUB SWAP1 LOG2 PUSH1 0x1 PUSH1 0x6 SSTORE DUP1 RETURN JUMPDEST POP CALLER DUP11 MSTORE PUSH1 0x9 PUSH1 0x20 MSTORE DUP4 DUP11 KECCAK256 SLOAD PUSH1 0xFF AND PUSH2 0x83E JUMP JUMPDEST POP SWAP1 CALLVALUE PUSH2 0x20F JUMPI DUP3 PUSH1 0x3 NOT CALLDATASIZE ADD SLT PUSH2 0x20F JUMPI DUP1 MLOAD SWAP2 DUP4 DUP2 SLOAD SWAP1 PUSH2 0x930 DUP3 PUSH2 0x1446 JUMP JUMPDEST DUP1 DUP7 MSTORE SWAP3 PUSH1 0x1 SWAP3 DUP1 DUP5 AND SWAP1 DUP2 ISZERO PUSH2 0x9CD JUMPI POP PUSH1 0x1 EQ PUSH2 0x971 JUMPI JUMPDEST PUSH2 0x96D DUP7 DUP7 PUSH2 0x95B DUP3 DUP12 SUB DUP4 PUSH2 0x132A JUMP JUMPDEST MLOAD SWAP2 DUP3 SWAP2 PUSH1 0x20 DUP4 MSTORE PUSH1 0x20 DUP4 ADD SWAP1 PUSH2 0x13A8 JUMP JUMPDEST SUB SWAP1 RETURN JUMPDEST DUP2 MSTORE SWAP5 POP PUSH32 0x8A35ACFBC15FF81A39AE7D344FD709F28E8600B4AA8C65C6B64BFE7FE36BD19B JUMPDEST DUP3 DUP7 LT PUSH2 0x9B5 JUMPI POP POP POP PUSH2 0x95B DUP3 PUSH1 0x20 PUSH2 0x96D SWAP6 DUP3 ADD ADD SWAP5 CODESIZE PUSH2 0x94A JUMP JUMPDEST DUP1 SLOAD PUSH1 0x20 DUP8 DUP8 ADD DUP2 ADD SWAP2 SWAP1 SWAP2 MSTORE SWAP1 SWAP6 ADD SWAP5 DUP2 ADD PUSH2 0x997 JUMP JUMPDEST SWAP1 POP PUSH2 0x96D SWAP8 POP DUP7 SWAP4 POP PUSH1 0x20 SWAP3 POP PUSH2 0x95B SWAP5 SWAP2 POP PUSH1 0xFF NOT AND DUP3 DUP5 ADD MSTORE ISZERO ISZERO PUSH1 0x5 SHL DUP3 ADD ADD SWAP5 CODESIZE PUSH2 0x94A JUMP JUMPDEST POP POP CALLVALUE PUSH2 0x60A JUMPI DUP2 PUSH1 0x3 NOT CALLDATASIZE ADD SLT PUSH2 0x60A JUMPI PUSH1 0x20 SWAP1 PUSH1 0x2 SLOAD SWAP1 MLOAD SWAP1 DUP2 MSTORE RETURN JUMPDEST POP POP CALLVALUE PUSH2 0x60A JUMPI PUSH1 0x20 CALLDATASIZE PUSH1 0x3 NOT ADD SLT PUSH2 0x60A JUMPI PUSH1 0x20 SWAP2 DUP2 SWAP1 PUSH1 0x1 PUSH1 0x1 PUSH1 0xA0 SHL SUB PUSH2 0xA3F PUSH2 0x13E8 JUMP JUMPDEST AND DUP2 MSTORE PUSH1 0x8 DUP5 MSTORE KECCAK256 SLOAD SWAP1 MLOAD SWAP1 DUP2 MSTORE RETURN JUMPDEST POP POP CALLVALUE PUSH2 0x60A JUMPI DUP2 PUSH1 0x3 NOT CALLDATASIZE ADD SLT PUSH2 0x60A JUMPI PUSH1 0x5 SLOAD SWAP1 MLOAD PUSH1 0x1 PUSH1 0x1 PUSH1 0xA0 SHL SUB SWAP1 SWAP2 AND DUP2 MSTORE PUSH1 0x20 SWAP1 RETURN JUMPDEST POP POP CALLVALUE PUSH2 0x60A JUMPI CALLDATASIZE PUSH1 0x3 NOT ADD SLT PUSH2 0x607 JUMPI PUSH2 0xAA8 PUSH2 0xA94 PUSH2 0x13E8 JUMP JUMPDEST PUSH1 0x24 CALLDATALOAD SWAP1 PUSH2 0xAA3 DUP3 CALLER DUP4 PUSH2 0x1747 JUMP JUMPDEST PUSH2 0x166C JUMP JUMPDEST DUP1 RETURN JUMPDEST POP SWAP1 CALLVALUE PUSH2 0x20F JUMPI PUSH1 0x20 CALLDATASIZE PUSH1 0x3 NOT ADD SLT PUSH2 0x20F JUMPI PUSH2 0xAC6 PUSH2 0x13E8 JUMP JUMPDEST SWAP2 PUSH2 0xACF PUSH2 0x1640 JUMP JUMPDEST PUSH1 0x5 SLOAD PUSH1 0x1 PUSH1 0x1 PUSH1 0xA0 SHL SUB SWAP4 DUP5 AND SWAP4 AND DUP4 EQ PUSH2 0xB6B JUMPI DUP3 DUP5 MSTORE PUSH1 0x9 PUSH1 0x20 MSTORE PUSH1 0xFF DUP3 DUP6 KECCAK256 SLOAD AND ISZERO PUSH2 0xB33 JUMPI POP DUP2 DUP4 MSTORE PUSH1 0x9 PUSH1 0x20 MSTORE DUP3 KECCAK256 DUP1 SLOAD PUSH1 0xFF NOT AND SWAP1 SSTORE PUSH32 0x3DF0CB72C50197E940739B67CEC44B4B4AE7C5632BF1A41168596FE044F28C3E DUP3 DUP1 LOG2 DUP1 RETURN JUMPDEST PUSH1 0x20 PUSH1 0x64 SWAP3 MLOAD SWAP2 PUSH3 0x461BCD PUSH1 0xE5 SHL DUP4 MSTORE DUP3 ADD MSTORE PUSH1 0x13 PUSH1 0x24 DUP3 ADD MSTORE PUSH19 0x2730B790329030B236B4B734B9BA3930B237B9 PUSH1 0x69 SHL PUSH1 0x44 DUP3 ADD MSTORE REVERT JUMPDEST PUSH1 0x20 PUSH1 0x64 SWAP3 MLOAD SWAP2 PUSH3 0x461BCD PUSH1 0xE5 SHL DUP4 MSTORE DUP3 ADD MSTORE PUSH1 0x18 PUSH1 0x24 DUP3 ADD MSTORE PUSH32 0x4E616F20706F64652072656D6F766572206F206F776E65720000000000000000 PUSH1 0x44 DUP3 ADD MSTORE REVERT JUMPDEST DUP4 CALLVALUE PUSH2 0x607 JUMPI DUP1 PUSH1 0x3 NOT CALLDATASIZE ADD SLT PUSH2 0x607 JUMPI PUSH2 0xBC6 PUSH2 0x1640 JUMP JUMPDEST PUSH1 0x5 DUP1 SLOAD PUSH1 0x1 PUSH1 0x1 PUSH1 0xA0 SHL SUB NOT DUP2 AND SWAP1 SWAP2 SSTORE DUP2 SWAP1 PUSH1 0x1 PUSH1 0x1 PUSH1 0xA0 SHL SUB AND PUSH32 0x8BE0079C531659141344CD1FD0A4F28419497F9722A3DAAFE3B4186F6B6457E0 DUP3 DUP1 LOG3 DUP1 RETURN JUMPDEST POP POP CALLVALUE PUSH2 0x60A JUMPI PUSH32 0x548E41EC9AB793E102140D78D18D21E9DA854859593DFF50F6068D7C9C6E37C4 PUSH2 0xCAC SWAP2 PUSH2 0xC3F CALLDATASIZE PUSH2 0x15E2 JUMP JUMPDEST SWAP2 SWAP5 SWAP1 SWAP3 PUSH2 0xCA0 DUP5 PUSH1 0x1 DUP1 PUSH1 0xA0 SHL SUB DUP1 PUSH1 0x5 SLOAD AND CALLER EQ DUP1 ISZERO PUSH2 0xCB2 JUMPI JUMPDEST PUSH2 0xC65 SWAP1 PUSH2 0x181A JUMP JUMPDEST PUSH2 0xC70 DUP3 ISZERO ISZERO PUSH2 0x188C JUMP JUMPDEST DUP9 AND SWAP8 PUSH2 0xC7E DUP10 ISZERO ISZERO PUSH2 0x1C9B JUMP JUMPDEST DUP9 DUP11 MSTORE DUP10 PUSH1 0x20 MSTORE PUSH2 0xC94 DUP3 DUP6 DUP13 KECCAK256 SLOAD LT ISZERO PUSH2 0x192F JUMP JUMPDEST PUSH2 0xAA3 DUP7 MLOAD ISZERO ISZERO PUSH2 0x1970 JUMP JUMPDEST MLOAD SWAP3 DUP4 SWAP3 TIMESTAMP SWAP2 DUP5 PUSH2 0x1B4D JUMP JUMPDEST SUB SWAP1 LOG2 DUP1 RETURN JUMPDEST POP CALLER DUP11 MSTORE PUSH1 0x9 PUSH1 0x20 MSTORE DUP4 DUP11 KECCAK256 SLOAD PUSH1 0xFF AND PUSH2 0xC5C JUMP JUMPDEST POP POP CALLVALUE PUSH2 0x60A JUMPI DUP2 PUSH1 0x3 NOT CALLDATASIZE ADD SLT PUSH2 0x60A JUMPI PUSH1 0x20 SWAP1 PUSH1 0xFF PUSH1 0x5 SLOAD PUSH1 0xA0 SHR AND SWAP1 MLOAD SWAP1 ISZERO ISZERO DUP2 MSTORE RETURN JUMPDEST POP SWAP2 CALLVALUE PUSH2 0x607 JUMPI PUSH1 0x20 SWAP3 DUP4 PUSH1 0x3 NOT CALLDATASIZE ADD SLT PUSH2 0x60A JUMPI PUSH1 0x1 PUSH1 0x1 PUSH1 0xA0 SHL SUB SWAP4 SWAP2 SWAP1 DUP5 PUSH2 0xD17 PUSH2 0x13E8 JUMP JUMPDEST AND DUP3 MSTORE PUSH1 0x7 DUP4 MSTORE DUP4 DUP3 KECCAK256 SWAP3 DUP4 SLOAD PUSH2 0xD2D DUP2 PUSH2 0x1628 JUMP JUMPDEST SWAP3 PUSH2 0xD3A DUP8 MLOAD SWAP5 DUP6 PUSH2 0x132A JUMP JUMPDEST DUP2 DUP5 MSTORE DUP3 DUP5 ADD DUP1 SWAP7 DUP7 MSTORE DUP4 DUP7 KECCAK256 DUP7 SWAP2 JUMPDEST DUP10 DUP12 DUP7 DUP6 LT PUSH2 0xDDB JUMPI POP SWAP5 POP POP POP POP POP MLOAD SWAP5 DUP2 DUP7 ADD SWAP3 DUP3 DUP8 MSTORE MLOAD DUP1 SWAP4 MSTORE DUP1 DUP7 ADD SWAP1 DUP1 DUP5 PUSH1 0x5 SHL DUP9 ADD ADD SWAP6 SWAP5 SWAP8 JUMPDEST DUP5 DUP10 LT PUSH2 0xD84 JUMPI DUP8 DUP8 SUB DUP9 RETURN JUMPDEST SWAP1 SWAP2 SWAP3 SWAP4 SWAP5 SWAP6 DUP5 DUP1 PUSH1 0x1 SWAP3 PUSH1 0x3F NOT DUP12 DUP3 SUB ADD DUP8 MSTORE DUP10 MLOAD SWAP1 DUP2 MLOAD DUP2 MSTORE PUSH2 0xDB5 DUP4 DUP4 ADD MLOAD PUSH1 0x80 DUP1 DUP7 DUP6 ADD MSTORE DUP4 ADD SWAP1 PUSH2 0x13A8 JUMP JUMPDEST SWAP2 DUP8 DUP2 ADD MLOAD DUP9 DUP4 ADD MSTORE DUP7 PUSH1 0x60 DUP1 SWAP3 ADD MLOAD AND SWAP2 ADD MSTORE SWAP9 ADD SWAP5 ADD SWAP9 ADD SWAP8 SWAP2 SWAP1 SWAP5 SWAP4 SWAP3 SWAP5 PUSH2 0xD77 JUMP JUMPDEST SWAP7 PUSH1 0x1 SWAP3 DUP3 DUP3 SWAP11 SWAP12 SWAP10 DUP9 SWAP5 MLOAD SWAP2 PUSH2 0xDF1 DUP4 PUSH2 0x12F8 JUMP JUMPDEST DUP8 SLOAD DUP4 MSTORE PUSH2 0xE00 DUP8 DUP10 ADD PUSH2 0x153E JUMP JUMPDEST DUP6 DUP5 ADD MSTORE PUSH1 0x2 DUP9 ADD SLOAD SWAP1 DUP4 ADD MSTORE PUSH1 0x3 DUP8 ADD SLOAD AND PUSH1 0x60 DUP3 ADD MSTORE DUP2 MSTORE ADD SWAP3 ADD SWAP3 ADD SWAP2 SWAP1 SWAP7 SWAP6 SWAP5 SWAP7 PUSH2 0xD4A JUMP JUMPDEST DUP4 DUP3 CALLVALUE PUSH2 0x60A JUMPI PUSH1 0x20 CALLDATASIZE PUSH1 0x3 NOT ADD SLT PUSH2 0x60A JUMPI PUSH2 0xAA8 SWAP1 CALLDATALOAD CALLER PUSH2 0x166C JUMP JUMPDEST POP CALLVALUE PUSH2 0x20F JUMPI DUP3 PUSH1 0x3 NOT CALLDATASIZE ADD SLT PUSH2 0x20F JUMPI PUSH2 0xE61 PUSH2 0x1640 JUMP JUMPDEST PUSH1 0x5 SLOAD SWAP1 PUSH1 0xFF DUP3 PUSH1 0xA0 SHR AND ISZERO PUSH2 0xEA9 JUMPI POP PUSH1 0xFF PUSH1 0xA0 SHL NOT AND PUSH1 0x5 SSTORE MLOAD CALLER DUP2 MSTORE PUSH32 0x5DB9EE0A495BF2E6FF9C91A7834C1BA4FDD244A5E8AA4E537BD38AEAE4B073AA SWAP1 PUSH1 0x20 SWAP1 LOG1 DUP1 RETURN JUMPDEST DUP3 MLOAD PUSH4 0x8DFC202B PUSH1 0xE0 SHL DUP2 MSTORE REVERT JUMPDEST POP POP CALLVALUE PUSH2 0x60A JUMPI DUP2 PUSH1 0x3 NOT CALLDATASIZE ADD SLT PUSH2 0x60A JUMPI PUSH1 0x20 SWAP1 MLOAD PUSH1 0x12 DUP2 MSTORE RETURN JUMPDEST POP POP CALLVALUE PUSH2 0x60A JUMPI PUSH1 0x20 CALLDATASIZE PUSH1 0x3 NOT ADD SLT PUSH2 0x60A JUMPI PUSH1 0x20 SWAP2 PUSH1 0xFF SWAP1 DUP3 SWAP1 PUSH1 0x1 PUSH1 0x1 PUSH1 0xA0 SHL SUB PUSH2 0xEFE PUSH2 0x13E8 JUMP JUMPDEST AND DUP2 MSTORE PUSH1 0x9 DUP6 MSTORE KECCAK256 SLOAD AND SWAP1 MLOAD SWAP1 ISZERO ISZERO DUP2 MSTORE RETURN JUMPDEST POP POP CALLVALUE PUSH2 0x60A JUMPI DUP1 PUSH1 0x3 NOT CALLDATASIZE ADD SLT PUSH2 0x60A JUMPI PUSH2 0xF2B PUSH2 0x13E8 JUMP JUMPDEST PUSH1 0x1 PUSH1 0x1 PUSH1 0xA0 SHL SUB SWAP1 DUP2 AND DUP4 MSTORE PUSH1 0x7 PUSH1 0x20 MSTORE DUP2 DUP4 KECCAK256 DUP1 SLOAD SWAP2 SWAP4 PUSH1 0x24 CALLDATALOAD SWAP3 DUP4 LT ISZERO PUSH2 0x607 JUMPI POP SWAP1 PUSH2 0xF5A SWAP2 PUSH2 0x1414 JUMP JUMPDEST POP SWAP1 DUP2 SLOAD SWAP2 PUSH2 0xF6B PUSH1 0x1 DUP3 ADD PUSH2 0x153E JUMP JUMPDEST SWAP4 PUSH1 0x3 PUSH1 0x2 DUP4 ADD SLOAD SWAP3 ADD SLOAD AND SWAP1 PUSH2 0xF93 DUP4 MLOAD SWAP6 DUP7 SWAP6 DUP7 MSTORE PUSH1 0x80 PUSH1 0x20 DUP8 ADD MSTORE PUSH1 0x80 DUP7 ADD SWAP1 PUSH2 0x13A8 JUMP JUMPDEST SWAP3 DUP5 ADD MSTORE PUSH1 0x60 DUP4 ADD MSTORE SUB SWAP1 RETURN JUMPDEST POP POP CALLVALUE PUSH2 0x60A JUMPI PUSH1 0x60 CALLDATASIZE PUSH1 0x3 NOT ADD SLT PUSH2 0x60A JUMPI PUSH1 0x20 SWAP1 PUSH2 0x7E5 PUSH2 0xFC1 PUSH2 0x13E8 JUMP JUMPDEST PUSH2 0xFC9 PUSH2 0x13FE JUMP JUMPDEST PUSH1 0x44 CALLDATALOAD SWAP2 PUSH2 0xFD5 PUSH2 0x1C34 JUMP JUMPDEST PUSH2 0xFE0 DUP4 CALLER DUP4 PUSH2 0x1747 JUMP JUMPDEST PUSH2 0x1B6F JUMP JUMPDEST POP POP CALLVALUE PUSH2 0x60A JUMPI DUP2 PUSH1 0x3 NOT CALLDATASIZE ADD SLT PUSH2 0x60A JUMPI PUSH1 0x20 PUSH32 0x62E78CEA01BEE320CD4E420270B5EA74000D11B0C9F74754EBDBFC544B05A258 SWAP2 PUSH2 0x1023 PUSH2 0x1640 JUMP JUMPDEST PUSH2 0x102B PUSH2 0x1C34 JUMP JUMPDEST PUSH1 0x5 DUP1 SLOAD PUSH1 0xFF PUSH1 0xA0 SHL NOT AND PUSH1 0x1 PUSH1 0xA0 SHL OR SWAP1 SSTORE MLOAD CALLER DUP2 MSTORE LOG1 DUP1 RETURN JUMPDEST POP SWAP2 SWAP1 CALLVALUE PUSH2 0x60A JUMPI DUP2 PUSH1 0x3 NOT CALLDATASIZE ADD SLT PUSH2 0x60A JUMPI PUSH2 0x1061 PUSH2 0x1480 JUMP JUMPDEST SWAP2 DUP2 MLOAD SWAP4 DUP2 DUP2 SLOAD SWAP1 PUSH2 0x1072 DUP3 PUSH2 0x1446 JUMP JUMPDEST DUP1 DUP9 MSTORE SWAP3 PUSH1 0x1 SWAP3 DUP1 DUP5 AND SWAP1 DUP2 ISZERO PUSH2 0x1122 JUMPI POP PUSH1 0x1 EQ PUSH2 0x10C8 JUMPI JUMPDEST PUSH2 0x10BA DUP8 DUP8 DUP11 PUSH2 0x109E DUP2 DUP11 SUB DUP3 PUSH2 0x132A JUMP JUMPDEST PUSH1 0x12 PUSH2 0xF93 PUSH1 0x2 SLOAD SWAP3 DUP5 MLOAD SWAP7 DUP8 SWAP7 PUSH1 0x80 DUP9 MSTORE PUSH1 0x80 DUP9 ADD SWAP1 PUSH2 0x13A8 JUMP JUMPDEST SWAP1 DUP7 DUP3 SUB PUSH1 0x20 DUP9 ADD MSTORE PUSH2 0x13A8 JUMP JUMPDEST DUP2 MSTORE SWAP3 POP PUSH32 0x8A35ACFBC15FF81A39AE7D344FD709F28E8600B4AA8C65C6B64BFE7FE36BD19B JUMPDEST DUP3 DUP5 LT PUSH2 0x110A JUMPI POP POP POP DUP4 ADD PUSH1 0x20 ADD PUSH2 0x109E DUP5 PUSH2 0x10BA CODESIZE PUSH2 0x108C JUMP JUMPDEST DUP1 SLOAD PUSH1 0x20 DUP6 DUP10 ADD DUP2 ADD SWAP2 SWAP1 SWAP2 MSTORE SWAP1 SWAP4 ADD SWAP3 DUP2 ADD PUSH2 0x10EE JUMP JUMPDEST SWAP1 POP DUP9 SWAP6 POP PUSH2 0x10BA SWAP9 SWAP4 POP PUSH1 0x20 SWAP3 POP PUSH2 0x109E SWAP5 SWAP2 POP PUSH1 0xFF NOT AND DUP3 DUP5 ADD MSTORE ISZERO ISZERO PUSH1 0x5 SHL DUP3 ADD ADD SWAP3 SWAP6 CODESIZE PUSH2 0x108C JUMP JUMPDEST POP CALLVALUE PUSH2 0x20F JUMPI DUP2 PUSH1 0x3 NOT CALLDATASIZE ADD SLT PUSH2 0x20F JUMPI PUSH2 0x1168 PUSH2 0x13E8 JUMP JUMPDEST PUSH1 0x24 CALLDATALOAD SWAP1 CALLER ISZERO PUSH2 0x11E1 JUMPI PUSH1 0x1 PUSH1 0x1 PUSH1 0xA0 SHL SUB AND SWAP2 DUP3 ISZERO PUSH2 0x11CA JUMPI POP DUP1 DUP4 PUSH1 0x20 SWAP6 CALLER DUP2 MSTORE PUSH1 0x1 DUP8 MSTORE DUP2 DUP2 KECCAK256 DUP6 DUP3 MSTORE DUP8 MSTORE KECCAK256 SSTORE DUP3 MLOAD SWAP1 DUP2 MSTORE PUSH32 0x8C5BE1E5EBEC7D5BD14F71427D1E84F3DD0314C0F7B2291E5B200AC8C7C3B925 DUP5 CALLER SWAP3 LOG3 MLOAD PUSH1 0x1 DUP2 MSTORE RETURN JUMPDEST DUP4 MLOAD PUSH4 0x4A1406B1 PUSH1 0xE1 SHL DUP2 MSTORE SWAP1 DUP2 ADD DUP6 SWAP1 MSTORE PUSH1 0x24 SWAP1 REVERT JUMPDEST DUP4 MLOAD PUSH4 0xE602DF05 PUSH1 0xE0 SHL DUP2 MSTORE DUP1 DUP5 ADD DUP7 SWAP1 MSTORE PUSH1 0x24 SWAP1 REVERT JUMPDEST POP POP CALLVALUE PUSH2 0x60A JUMPI DUP2 PUSH1 0x3 NOT CALLDATASIZE ADD SLT PUSH2 0x60A JUMPI PUSH2 0x96D SWAP1 PUSH2 0x1216 PUSH2 0x1480 JUMP JUMPDEST SWAP1 MLOAD SWAP2 DUP3 SWAP2 PUSH1 0x20 DUP4 MSTORE PUSH1 0x20 DUP4 ADD SWAP1 PUSH2 0x13A8 JUMP JUMPDEST POP CALLVALUE PUSH2 0x20F JUMPI DUP2 PUSH1 0x3 NOT CALLDATASIZE ADD SLT PUSH2 0x20F JUMPI PUSH1 0x24 CALLDATALOAD SWAP1 DUP1 CALLDATALOAD PUSH8 0xFFFFFFFFFFFFFFFF DUP4 GT PUSH2 0x5C4 JUMPI PUSH2 0x1280 PUSH2 0xCAC SWAP3 PUSH32 0x548E41EC9AB793E102140D78D18D21E9DA854859593DFF50F6068D7C9C6E37C4 SWAP5 CALLDATASIZE SWAP2 ADD PUSH2 0x134C JUMP JUMPDEST SWAP4 PUSH1 0x1 DUP1 PUSH1 0xA0 SHL SUB PUSH1 0x5 SLOAD AND CALLER EQ DUP1 ISZERO PUSH2 0x12E3 JUMPI JUMPDEST PUSH2 0x129E SWAP1 PUSH2 0x181A JUMP JUMPDEST PUSH2 0x12A9 DUP3 ISZERO ISZERO PUSH2 0x188C JUMP JUMPDEST CALLER DUP7 MSTORE DUP6 PUSH1 0x20 MSTORE PUSH2 0x12BF DUP3 DUP3 DUP9 KECCAK256 SLOAD LT ISZERO PUSH2 0x192F JUMP JUMPDEST PUSH2 0x12CB DUP6 MLOAD ISZERO ISZERO PUSH2 0x1970 JUMP JUMPDEST PUSH2 0x12D5 DUP3 CALLER PUSH2 0x166C JUMP JUMPDEST MLOAD SWAP2 DUP3 SWAP2 CALLER SWAP6 TIMESTAMP SWAP2 DUP5 PUSH2 0x1B4D JUMP JUMPDEST POP CALLER DUP7 MSTORE PUSH1 0x9 PUSH1 0x20 MSTORE DUP1 DUP7 KECCAK256 SLOAD PUSH1 0xFF AND PUSH2 0x1295 JUMP JUMPDEST PUSH1 0x80 DUP2 ADD SWAP1 DUP2 LT PUSH8 0xFFFFFFFFFFFFFFFF DUP3 GT OR PUSH2 0x1314 JUMPI PUSH1 0x40 MSTORE JUMP JUMPDEST PUSH4 0x4E487B71 PUSH1 0xE0 SHL PUSH1 0x0 MSTORE PUSH1 0x41 PUSH1 0x4 MSTORE PUSH1 0x24 PUSH1 0x0 REVERT JUMPDEST SWAP1 PUSH1 0x1F DUP1 NOT SWAP2 ADD AND DUP2 ADD SWAP1 DUP2 LT PUSH8 0xFFFFFFFFFFFFFFFF DUP3 GT OR PUSH2 0x1314 JUMPI PUSH1 0x40 MSTORE JUMP JUMPDEST DUP2 PUSH1 0x1F DUP3 ADD SLT ISZERO PUSH2 0x13A3 JUMPI DUP1 CALLDATALOAD SWAP1 PUSH8 0xFFFFFFFFFFFFFFFF DUP3 GT PUSH2 0x1314 JUMPI PUSH1 0x40 MLOAD SWAP3 PUSH2 0x1381 PUSH1 0x1F DUP5 ADD PUSH1 0x1F NOT AND PUSH1 0x20 ADD DUP6 PUSH2 0x132A JUMP JUMPDEST DUP3 DUP5 MSTORE PUSH1 0x20 DUP4 DUP4 ADD ADD GT PUSH2 0x13A3 JUMPI DUP2 PUSH1 0x0 SWAP3 PUSH1 0x20 DUP1 SWAP4 ADD DUP4 DUP7 ADD CALLDATACOPY DUP4 ADD ADD MSTORE SWAP1 JUMP JUMPDEST PUSH1 0x0 DUP1 REVERT JUMPDEST SWAP2 SWAP1 DUP3 MLOAD SWAP3 DUP4 DUP3 MSTORE PUSH1 0x0 JUMPDEST DUP5 DUP2 LT PUSH2 0x13D4 JUMPI POP POP DUP3 PUSH1 0x0 PUSH1 0x20 DUP1 SWAP5 SWAP6 DUP5 ADD ADD MSTORE PUSH1 0x1F DUP1 NOT SWAP2 ADD AND ADD ADD SWAP1 JUMP JUMPDEST PUSH1 0x20 DUP2 DUP4 ADD DUP2 ADD MLOAD DUP5 DUP4 ADD DUP3 ADD MSTORE ADD PUSH2 0x13B3 JUMP JUMPDEST PUSH1 0x4 CALLDATALOAD SWAP1 PUSH1 0x1 PUSH1 0x1 PUSH1 0xA0 SHL SUB DUP3 AND DUP3 SUB PUSH2 0x13A3 JUMPI JUMP JUMPDEST PUSH1 0x24 CALLDATALOAD SWAP1 PUSH1 0x1 PUSH1 0x1 PUSH1 0xA0 SHL SUB DUP3 AND DUP3 SUB PUSH2 0x13A3 JUMPI JUMP JUMPDEST DUP1 SLOAD DUP3 LT ISZERO PUSH2 0x1430 JUMPI PUSH1 0x0 MSTORE PUSH1 0x20 PUSH1 0x0 KECCAK256 SWAP1 PUSH1 0x2 SHL ADD SWAP1 PUSH1 0x0 SWAP1 JUMP JUMPDEST PUSH4 0x4E487B71 PUSH1 0xE0 SHL PUSH1 0x0 MSTORE PUSH1 0x32 PUSH1 0x4 MSTORE PUSH1 0x24 PUSH1 0x0 REVERT JUMPDEST SWAP1 PUSH1 0x1 DUP3 DUP2 SHR SWAP3 AND DUP1 ISZERO PUSH2 0x1476 JUMPI JUMPDEST PUSH1 0x20 DUP4 LT EQ PUSH2 0x1460 JUMPI JUMP JUMPDEST PUSH4 0x4E487B71 PUSH1 0xE0 SHL PUSH1 0x0 MSTORE PUSH1 0x22 PUSH1 0x4 MSTORE PUSH1 0x24 PUSH1 0x0 REVERT JUMPDEST SWAP2 PUSH1 0x7F AND SWAP2 PUSH2 0x1455 JUMP JUMPDEST PUSH1 0x40 MLOAD SWAP1 PUSH1 0x0 DUP3 PUSH1 0x3 SLOAD SWAP2 PUSH2 0x1494 DUP4 PUSH2 0x1446 JUMP JUMPDEST DUP1 DUP4 MSTORE SWAP3 PUSH1 0x1 SWAP1 DUP2 DUP2 AND SWAP1 DUP2 ISZERO PUSH2 0x151C JUMPI POP PUSH1 0x1 EQ PUSH2 0x14BD JUMPI JUMPDEST POP PUSH2 0x14BB SWAP3 POP SUB DUP4 PUSH2 0x132A JUMP JUMPDEST JUMP JUMPDEST PUSH1 0x3 PUSH1 0x0 SWAP1 DUP2 MSTORE SWAP2 POP PUSH32 0xC2575A0E9E593C00F959F8C92F12DB2869C3395A3B0502D05E2516446F71F85B JUMPDEST DUP5 DUP4 LT PUSH2 0x1501 JUMPI POP PUSH2 0x14BB SWAP4 POP POP DUP2 ADD PUSH1 0x20 ADD CODESIZE PUSH2 0x14AE JUMP JUMPDEST DUP2 SWAP4 POP SWAP1 DUP2 PUSH1 0x20 SWAP3 SLOAD DUP4 DUP6 DUP11 ADD ADD MSTORE ADD SWAP2 ADD SWAP1 SWAP2 DUP6 SWAP3 PUSH2 0x14E8 JUMP JUMPDEST SWAP1 POP PUSH1 0x20 SWAP3 POP PUSH2 0x14BB SWAP5 SWAP2 POP PUSH1 0xFF NOT AND DUP3 DUP5 ADD MSTORE ISZERO ISZERO PUSH1 0x5 SHL DUP3 ADD ADD CODESIZE PUSH2 0x14AE JUMP JUMPDEST SWAP1 PUSH1 0x40 MLOAD SWAP2 DUP3 PUSH1 0x0 DUP3 SLOAD SWAP3 PUSH2 0x1552 DUP5 PUSH2 0x1446 JUMP JUMPDEST SWAP1 DUP2 DUP5 MSTORE PUSH1 0x1 SWAP5 DUP6 DUP2 AND SWAP1 DUP2 PUSH1 0x0 EQ PUSH2 0x15BF JUMPI POP PUSH1 0x1 EQ PUSH2 0x157C JUMPI JUMPDEST POP POP PUSH2 0x14BB SWAP3 POP SUB DUP4 PUSH2 0x132A JUMP JUMPDEST SWAP1 SWAP4 SWAP2 POP PUSH1 0x0 MSTORE PUSH1 0x20 SWAP1 DUP2 PUSH1 0x0 KECCAK256 SWAP4 PUSH1 0x0 SWAP2 JUMPDEST DUP2 DUP4 LT PUSH2 0x15A7 JUMPI POP POP PUSH2 0x14BB SWAP4 POP DUP3 ADD ADD CODESIZE DUP1 PUSH2 0x156E JUMP JUMPDEST DUP6 SLOAD DUP9 DUP5 ADD DUP6 ADD MSTORE SWAP5 DUP6 ADD SWAP5 DUP8 SWAP5 POP SWAP2 DUP4 ADD SWAP2 PUSH2 0x158F JUMP JUMPDEST SWAP2 POP POP PUSH2 0x14BB SWAP5 POP PUSH1 0x20 SWAP3 POP PUSH1 0xFF NOT AND DUP3 DUP5 ADD MSTORE ISZERO ISZERO PUSH1 0x5 SHL DUP3 ADD ADD CODESIZE DUP1 PUSH2 0x156E JUMP JUMPDEST PUSH1 0x60 PUSH1 0x3 NOT DUP3 ADD SLT PUSH2 0x13A3 JUMPI PUSH1 0x4 CALLDATALOAD PUSH1 0x1 PUSH1 0x1 PUSH1 0xA0 SHL SUB DUP2 AND DUP2 SUB PUSH2 0x13A3 JUMPI SWAP2 PUSH1 0x24 CALLDATALOAD SWAP2 PUSH1 0x44 CALLDATALOAD SWAP1 PUSH8 0xFFFFFFFFFFFFFFFF DUP3 GT PUSH2 0x13A3 JUMPI PUSH2 0x1625 SWAP2 PUSH1 0x4 ADD PUSH2 0x134C JUMP JUMPDEST SWAP1 JUMP JUMPDEST PUSH8 0xFFFFFFFFFFFFFFFF DUP2 GT PUSH2 0x1314 JUMPI PUSH1 0x5 SHL PUSH1 0x20 ADD SWAP1 JUMP JUMPDEST PUSH1 0x5 SLOAD PUSH1 0x1 PUSH1 0x1 PUSH1 0xA0 SHL SUB AND CALLER SUB PUSH2 0x1654 JUMPI JUMP JUMPDEST PUSH1 0x40 MLOAD PUSH4 0x118CDAA7 PUSH1 0xE0 SHL DUP2 MSTORE CALLER PUSH1 0x4 DUP3 ADD MSTORE PUSH1 0x24 SWAP1 REVERT JUMPDEST SWAP1 PUSH1 0x1 PUSH1 0x1 PUSH1 0xA0 SHL SUB DUP3 AND SWAP1 DUP2 ISZERO PUSH2 0x170B JUMPI PUSH1 0x0 SWAP3 DUP3 DUP5 MSTORE DUP4 PUSH1 0x20 MSTORE PUSH1 0x40 DUP5 KECCAK256 SLOAD SWAP1 DUP3 DUP3 LT PUSH2 0x16D9 JUMPI POP DUP2 PUSH32 0xDDF252AD1BE2C89B69C2B068FC378DAA952BA7F163C4A11628F55A4DF523B3EF SWAP3 PUSH1 0x20 SWAP3 DUP6 DUP8 MSTORE DUP7 DUP5 MSTORE SUB PUSH1 0x40 DUP7 KECCAK256 SSTORE DUP1 PUSH1 0x2 SLOAD SUB PUSH1 0x2 SSTORE PUSH1 0x40 MLOAD SWAP1 DUP2 MSTORE LOG3 JUMP JUMPDEST PUSH1 0x40 MLOAD PUSH4 0x391434E3 PUSH1 0xE2 SHL DUP2 MSTORE PUSH1 0x1 PUSH1 0x1 PUSH1 0xA0 SHL SUB SWAP2 SWAP1 SWAP2 AND PUSH1 0x4 DUP3 ADD MSTORE PUSH1 0x24 DUP2 ADD SWAP2 SWAP1 SWAP2 MSTORE PUSH1 0x44 DUP2 ADD DUP3 SWAP1 MSTORE PUSH1 0x64 SWAP1 REVERT JUMPDEST PUSH1 0x40 MLOAD PUSH4 0x4B637E8F PUSH1 0xE1 SHL DUP2 MSTORE PUSH1 0x0 PUSH1 0x4 DUP3 ADD MSTORE PUSH1 0x24 SWAP1 REVERT JUMPDEST SWAP2 SWAP1 DUP3 ADD DUP1 SWAP3 GT PUSH2 0x1731 JUMPI JUMP JUMPDEST PUSH4 0x4E487B71 PUSH1 0xE0 SHL PUSH1 0x0 MSTORE PUSH1 0x11 PUSH1 0x4 MSTORE PUSH1 0x24 PUSH1 0x0 REVERT JUMPDEST SWAP2 PUSH1 0x1 DUP1 PUSH1 0xA0 SHL SUB DUP1 SWAP4 AND SWAP2 PUSH1 0x0 SWAP4 DUP4 DUP6 MSTORE PUSH1 0x1 PUSH1 0x20 MSTORE PUSH1 0x40 SWAP4 DUP5 DUP7 KECCAK256 SWAP2 DUP4 AND SWAP2 DUP3 DUP8 MSTORE PUSH1 0x20 MSTORE DUP5 DUP7 KECCAK256 SLOAD SWAP3 PUSH1 0x0 NOT DUP5 LT PUSH2 0x1786 JUMPI JUMPDEST POP POP POP POP POP POP POP JUMP JUMPDEST DUP5 DUP5 LT PUSH2 0x17EA JUMPI POP DUP1 ISZERO PUSH2 0x17D2 JUMPI DUP2 ISZERO PUSH2 0x17BA JUMPI DUP6 MSTORE PUSH1 0x1 PUSH1 0x20 MSTORE DUP4 DUP6 KECCAK256 SWAP1 DUP6 MSTORE PUSH1 0x20 MSTORE SUB SWAP2 KECCAK256 SSTORE CODESIZE DUP1 DUP1 DUP1 DUP1 DUP1 DUP1 PUSH2 0x177D JUMP JUMPDEST DUP5 MLOAD PUSH4 0x4A1406B1 PUSH1 0xE1 SHL DUP2 MSTORE PUSH1 0x4 DUP2 ADD DUP8 SWAP1 MSTORE PUSH1 0x24 SWAP1 REVERT JUMPDEST DUP5 MLOAD PUSH4 0xE602DF05 PUSH1 0xE0 SHL DUP2 MSTORE PUSH1 0x4 DUP2 ADD DUP8 SWAP1 MSTORE PUSH1 0x24 SWAP1 REVERT JUMPDEST DUP6 MLOAD PUSH4 0x7DC7A0D9 PUSH1 0xE1 SHL DUP2 MSTORE PUSH1 0x1 PUSH1 0x1 PUSH1 0xA0 SHL SUB SWAP2 SWAP1 SWAP2 AND PUSH1 0x4 DUP3 ADD MSTORE PUSH1 0x24 DUP2 ADD DUP5 SWAP1 MSTORE PUSH1 0x44 DUP2 ADD DUP6 SWAP1 MSTORE PUSH1 0x64 SWAP1 REVERT JUMPDEST ISZERO PUSH2 0x1821 JUMPI JUMP JUMPDEST PUSH1 0x40 MLOAD PUSH3 0x461BCD PUSH1 0xE5 SHL DUP2 MSTORE PUSH1 0x20 PUSH1 0x4 DUP3 ADD MSTORE PUSH1 0x3E PUSH1 0x24 DUP3 ADD MSTORE PUSH32 0x4170656E61732061646D696E6973747261646F726573206465207265636F6D70 PUSH1 0x44 DUP3 ADD MSTORE PUSH32 0x656E73617320706F64656D2065786563757461722065737461206163616F0000 PUSH1 0x64 DUP3 ADD MSTORE PUSH1 0x84 SWAP1 REVERT JUMPDEST ISZERO PUSH2 0x1893 JUMPI JUMP JUMPDEST PUSH1 0x40 MLOAD PUSH3 0x461BCD PUSH1 0xE5 SHL DUP2 MSTORE PUSH1 0x20 PUSH1 0x4 DUP3 ADD MSTORE PUSH1 0x22 PUSH1 0x24 DUP3 ADD MSTORE PUSH32 0x5175616E746964616465206465766520736572206D61696F7220717565207A65 PUSH1 0x44 DUP3 ADD MSTORE PUSH2 0x726F PUSH1 0xF0 SHL PUSH1 0x64 DUP3 ADD MSTORE PUSH1 0x84 SWAP1 REVERT JUMPDEST ISZERO PUSH2 0x18EA JUMPI JUMP JUMPDEST PUSH1 0x40 MLOAD PUSH3 0x461BCD PUSH1 0xE5 SHL DUP2 MSTORE PUSH1 0x20 PUSH1 0x4 DUP3 ADD MSTORE PUSH1 0x1A PUSH1 0x24 DUP3 ADD MSTORE PUSH32 0x456E64657265636F20646F20616C756E6F20696E76616C69646F000000000000 PUSH1 0x44 DUP3 ADD MSTORE PUSH1 0x64 SWAP1 REVERT JUMPDEST ISZERO PUSH2 0x1936 JUMPI JUMP JUMPDEST PUSH1 0x40 MLOAD PUSH3 0x461BCD PUSH1 0xE5 SHL DUP2 MSTORE PUSH1 0x20 PUSH1 0x4 DUP3 ADD MSTORE PUSH1 0x12 PUSH1 0x24 DUP3 ADD MSTORE PUSH18 0x53616C646F20696E737566696369656E7465 PUSH1 0x70 SHL PUSH1 0x44 DUP3 ADD MSTORE PUSH1 0x64 SWAP1 REVERT JUMPDEST ISZERO PUSH2 0x1977 JUMPI JUMP JUMPDEST PUSH1 0x40 MLOAD PUSH3 0x461BCD PUSH1 0xE5 SHL DUP2 MSTORE PUSH1 0x20 PUSH1 0x4 DUP3 ADD MSTORE PUSH1 0x1B PUSH1 0x24 DUP3 ADD MSTORE PUSH32 0x4D6F7469766F206E616F20706F64652065737461722076617A696F0000000000 PUSH1 0x44 DUP3 ADD MSTORE PUSH1 0x64 SWAP1 REVERT JUMPDEST SWAP2 SWAP1 DUP3 SLOAD PUSH9 0x10000000000000000 DUP2 LT ISZERO PUSH2 0x1314 JUMPI PUSH2 0x19E2 SWAP1 PUSH1 0x1 SWAP5 DUP6 DUP3 ADD DUP2 SSTORE PUSH2 0x1414 JUMP JUMPDEST PUSH2 0x1B37 JUMPI DUP2 MLOAD DUP2 SSTORE DUP4 DUP2 ADD PUSH1 0x20 SWAP5 DUP6 DUP5 ADD MLOAD SWAP6 DUP7 MLOAD SWAP7 PUSH8 0xFFFFFFFFFFFFFFFF DUP9 GT PUSH2 0x1314 JUMPI PUSH2 0x1A11 DUP5 SLOAD PUSH2 0x1446 JUMP JUMPDEST PUSH1 0x1F DUP2 GT PUSH2 0x1AEE JUMPI JUMPDEST POP DUP2 PUSH1 0x1F DUP10 GT PUSH1 0x1 EQ PUSH2 0x1A87 JUMPI POP SWAP7 DUP1 SWAP3 DUP2 SWAP3 PUSH1 0x3 SWAP8 SWAP9 SWAP10 PUSH1 0x0 SWAP5 PUSH2 0x1A7C JUMPI JUMPDEST POP POP SHL SWAP2 PUSH1 0x0 NOT SWAP1 DUP7 SHL SHR NOT AND OR SWAP1 SSTORE JUMPDEST PUSH1 0x40 DUP4 ADD MLOAD PUSH1 0x2 DUP3 ADD SSTORE ADD SWAP1 PUSH1 0x60 PUSH1 0x1 DUP1 PUSH1 0xA0 SHL SUB SWAP2 ADD MLOAD AND PUSH12 0xFFFFFFFFFFFFFFFFFFFFFFFF PUSH1 0xA0 SHL DUP3 SLOAD AND OR SWAP1 SSTORE JUMP JUMPDEST ADD MLOAD SWAP3 POP CODESIZE DUP1 PUSH2 0x1A3A JUMP JUMPDEST SWAP1 SWAP8 SWAP2 PUSH1 0x1F NOT DUP4 AND SWAP9 DUP6 PUSH1 0x0 MSTORE DUP3 PUSH1 0x0 KECCAK256 SWAP3 PUSH1 0x0 SWAP1 JUMPDEST DUP12 DUP3 LT PUSH2 0x1AD7 JUMPI POP POP DUP4 PUSH1 0x3 SWAP9 SWAP10 SWAP11 LT PUSH2 0x1ABF JUMPI JUMPDEST POP POP POP DUP2 SHL ADD SWAP1 SSTORE PUSH2 0x1A4B JUMP JUMPDEST ADD MLOAD PUSH1 0x0 NOT DUP4 DUP9 SHL PUSH1 0xF8 AND SHR NOT AND SWAP1 SSTORE CODESIZE DUP1 DUP1 PUSH2 0x1AB2 JUMP JUMPDEST DUP1 DUP8 DUP6 SWAP7 DUP3 SWAP5 SWAP7 DUP7 ADD MLOAD DUP2 SSTORE ADD SWAP6 ADD SWAP4 ADD SWAP1 PUSH2 0x1A9D JUMP JUMPDEST PUSH1 0x0 DUP6 DUP2 MSTORE DUP4 DUP2 KECCAK256 PUSH1 0x1F DUP12 ADD PUSH1 0x5 SHR DUP2 ADD SWAP3 DUP6 DUP13 LT PUSH2 0x1B2D JUMPI JUMPDEST PUSH1 0x1F ADD PUSH1 0x5 SHR ADD SWAP2 DUP6 SWAP1 JUMPDEST DUP4 DUP2 LT PUSH2 0x1B22 JUMPI POP POP POP PUSH2 0x1A1A JUMP JUMPDEST DUP3 DUP2 SSTORE ADD DUP6 SWAP1 PUSH2 0x1B13 JUMP JUMPDEST SWAP1 SWAP3 POP DUP3 SWAP1 PUSH2 0x1B08 JUMP JUMPDEST PUSH4 0x4E487B71 PUSH1 0xE0 SHL PUSH1 0x0 MSTORE PUSH1 0x0 PUSH1 0x4 MSTORE PUSH1 0x24 PUSH1 0x0 REVERT JUMPDEST SWAP4 SWAP3 SWAP2 PUSH2 0x1B6A SWAP1 PUSH1 0x40 SWAP3 DUP7 MSTORE PUSH1 0x60 PUSH1 0x20 DUP8 ADD MSTORE PUSH1 0x60 DUP7 ADD SWAP1 PUSH2 0x13A8 JUMP JUMPDEST SWAP4 ADD MSTORE JUMP JUMPDEST SWAP2 PUSH1 0x1 PUSH1 0x1 PUSH1 0xA0 SHL SUB DUP1 DUP5 AND SWAP3 DUP4 ISZERO PUSH2 0x170B JUMPI AND SWAP3 DUP4 ISZERO PUSH2 0x1C1B JUMPI PUSH1 0x0 SWAP1 DUP4 DUP3 MSTORE DUP2 PUSH1 0x20 MSTORE PUSH1 0x40 DUP3 KECCAK256 SLOAD SWAP1 DUP4 DUP3 LT PUSH2 0x1BE9 JUMPI POP SWAP2 PUSH1 0x40 DUP3 DUP3 PUSH32 0xDDF252AD1BE2C89B69C2B068FC378DAA952BA7F163C4A11628F55A4DF523B3EF SWAP6 DUP8 PUSH1 0x20 SWAP7 MSTORE DUP3 DUP7 MSTORE SUB DUP3 DUP3 KECCAK256 SSTORE DUP7 DUP2 MSTORE KECCAK256 DUP2 DUP2 SLOAD ADD SWAP1 SSTORE PUSH1 0x40 MLOAD SWAP1 DUP2 MSTORE LOG3 JUMP JUMPDEST PUSH1 0x40 MLOAD PUSH4 0x391434E3 PUSH1 0xE2 SHL DUP2 MSTORE PUSH1 0x1 PUSH1 0x1 PUSH1 0xA0 SHL SUB SWAP2 SWAP1 SWAP2 AND PUSH1 0x4 DUP3 ADD MSTORE PUSH1 0x24 DUP2 ADD SWAP2 SWAP1 SWAP2 MSTORE PUSH1 0x44 DUP2 ADD DUP4 SWAP1 MSTORE PUSH1 0x64 SWAP1 REVERT JUMPDEST PUSH1 0x40 MLOAD PUSH4 0xEC442F05 PUSH1 0xE0 SHL DUP2 MSTORE PUSH1 0x0 PUSH1 0x4 DUP3 ADD MSTORE PUSH1 0x24 SWAP1 REVERT JUMPDEST PUSH1 0xFF PUSH1 0x5 SLOAD PUSH1 0xA0 SHR AND PUSH2 0x1C43 JUMPI JUMP JUMPDEST PUSH1 0x40 MLOAD PUSH4 0xD93C0665 PUSH1 0xE0 SHL DUP2 MSTORE PUSH1 0x4 SWAP1 REVERT JUMPDEST PUSH1 0x2 PUSH1 0x6 SLOAD EQ PUSH2 0x1C66 JUMPI PUSH1 0x2 PUSH1 0x6 SSTORE JUMP JUMPDEST PUSH1 0x40 MLOAD PUSH4 0x3EE5AEB5 PUSH1 0xE0 SHL DUP2 MSTORE PUSH1 0x4 SWAP1 REVERT JUMPDEST PUSH1 0x0 NOT DUP2 EQ PUSH2 0x1731 JUMPI PUSH1 0x1 ADD SWAP1 JUMP JUMPDEST DUP1 MLOAD DUP3 LT ISZERO PUSH2 0x1430 JUMPI PUSH1 0x20 SWAP2 PUSH1 0x5 SHL ADD ADD SWAP1 JUMP JUMPDEST ISZERO PUSH2 0x1CA2 JUMPI JUMP JUMPDEST PUSH1 0x40 MLOAD PUSH3 0x461BCD PUSH1 0xE5 SHL DUP2 MSTORE PUSH1 0x20 PUSH1 0x4 DUP3 ADD MSTORE PUSH1 0x11 PUSH1 0x24 DUP3 ADD MSTORE PUSH17 0x456E64657265636F20696E76616C69646F PUSH1 0x78 SHL PUSH1 0x44 DUP3 ADD MSTORE PUSH1 0x64 SWAP1 REVERT INVALID LOG2 PUSH5 0x6970667358 0x22 SLT KECCAK256 PUSH20 0x7AE0AEDEB331324708C3F3F7488E8F48A6414562 0x4B PUSH28 0xAD9B969C95764E27FA64736F6C634300081400330000000000000000 "},"methodIdentifiers":{"adicionarAdministradorRecompensas(address)":"d93ba95f","administradoresRecompensas(address)":"25f7a077","allowance(address,address)":"dd62ed3e","approve(address,uint256)":"095ea7b3","balanceOf(address)":"70a08231","burn(uint256)":"42966c68","burnFrom(address,uint256)":"79cc6790","decimals()":"313ce567","despausarContrato()":"38d5c916","enviarRecompensa(address,uint256,string)":"9dfc15dc","enviarRecompensasEmLote(address[],uint256[],string)":"e3883194","historicoRecompensas(address,uint256)":"24ec4f68","name()":"06fdde03","obterHistoricoRecompensas(address)":"4d301cea","obterInformacoesToken()":"1606857f","obterSaldo(address)":"aa2e4c38","obterTotalRecompensasRecebidas(address)":"1f5f480d","obterTotalSupply()":"9318153a","owner()":"8da5cb5b","pausarContrato()":"1a003ecb","paused()":"5c975abb","queimarDe(address,uint256,string)":"689776e5","queimarTokens(uint256,string)":"03cd5ead","removerAdministradorRecompensas(address)":"75e8d907","renounceOwnership()":"715018a6","symbol()":"95d89b41","totalRecompensasRecebidas(address)":"8df9ddf6","totalSupply()":"18160ddd","transfer(address,uint256)":"a9059cbb","transferFrom(address,address,uint256)":"23b872dd","transferOwnership(address)":"f2fde38b","verificarAdministradorRecompensas(address)":"d157884a"}}}}}