{"contracts/ContratoCertificados.sol":{"ContratoCertificados":{"abi":[{"inputs":[],"stateMutability":"nonpayable","type":"constructor"},{"inputs":[],"name":"EnforcedPause","type":"error"},{"inputs":[],"name":"ExpectedPause","type":"error"},{"inputs":[{"internalType":"address","name":"owner","type":"address"}],"name":"OwnableInvalidOwner","type":"error"},{"inputs":[{"internalType":"address","name":"account","type":"address"}],"name":"OwnableUnauthorizedAccount","type":"error"},{"inputs":[],"name":"ReentrancyGuardReentrantCall","type":"error"},{"anonymous":false,"inputs":[{"indexed":true,"internalType":"address","name":"administrador","type":"address"}],"name":"AdministradorAdicionado","type":"event"},{"anonymous":false,"inputs":[{"indexed":true,"internalType":"address","name":"administrador","type":"address"}],"name":"AdministradorRemovido","type":"event"},{"anonymous":false,"inputs":[{"indexed":true,"internalType":"uint256","name":"idCertificado","type":"uint256"},{"indexed":true,"internalType":"address","name":"enderecoAluno","type":"address"},{"indexed":false,"internalType":"string","name":"nomeAluno","type":"string"},{"indexed":false,"internalType":"string","name":"nomeCurso","type":"string"},{"indexed":false,"internalType":"uint256","name":"dataEmissao","type":"uint256"},{"indexed":false,"internalType":"string","name":"hashCertificado","type":"string"}],"name":"CertificadoEmitido","type":"event"},{"anonymous":false,"inputs":[{"indexed":true,"internalType":"uint256","name":"idCertificado","type":"uint256"},{"indexed":true,"internalType":"address","name":"enderecoAluno","type":"address"},{"indexed":false,"internalType":"uint256","name":"dataRevogacao","type":"uint256"}],"name":"CertificadoRevogado","type":"event"},{"anonymous":false,"inputs":[{"indexed":true,"internalType":"address","name":"previousOwner","type":"address"},{"indexed":true,"internalType":"address","name":"newOwner","type":"address"}],"name":"OwnershipTransferred","type":"event"},{"anonymous":false,"inputs":[{"indexed":false,"internalType":"address","name":"account","type":"address"}],"name":"Paused","type":"event"},{"anonymous":false,"inputs":[{"indexed":false,"internalType":"address","name":"account","type":"address"}],"name":"Unpaused","type":"event"},{"inputs":[{"internalType":"address","name":"_novoAdministrador","type":"address"}],"name":"adicionarAdministrador","outputs":[],"stateMutability":"nonpayable","type":"function"},{"inputs":[{"internalType":"address","name":"","type":"address"}],"name":"administradores","outputs":[{"internalType":"bool","name":"","type":"bool"}],"stateMutability":"view","type":"function"},{"inputs":[{"internalType":"uint256","name":"","type":"uint256"}],"name":"certificados","outputs":[{"internalType":"uint256","name":"id","type":"uint256"},{"internalType":"address","name":"enderecoAluno","type":"address"},{"internalType":"string","name":"nomeAluno","type":"string"},{"internalType":"string","name":"nomeCurso","type":"string"},{"internalType":"uint256","name":"dataEmissao","type":"uint256"},{"internalType":"bool","name":"valido","type":"bool"},{"internalType":"string","name":"hashCertificado","type":"string"},{"internalType":"string","name":"descricaoCurso","type":"string"},{"internalType":"uint256","name":"cargaHoraria","type":"uint256"},{"internalType":"string","name":"instituicaoEmissora","type":"string"}],"stateMutability":"view","type":"function"},{"inputs":[{"internalType":"address","name":"","type":"address"},{"internalType":"uint256","name":"","type":"uint256"}],"name":"certificadosPorAluno","outputs":[{"internalType":"uint256","name":"","type":"uint256"}],"stateMutability":"view","type":"function"},{"inputs":[],"name":"despausarContrato","outputs":[],"stateMutability":"nonpayable","type":"function"},{"inputs":[{"internalType":"address","name":"_enderecoAluno","type":"address"},{"internalType":"string","name":"_nomeAluno","type":"string"},{"internalType":"string","name":"_nomeCurso","type":"string"},{"internalType":"string","name":"_hashCertificado","type":"string"},{"internalType":"string","name":"_descricaoCurso","type":"string"},{"internalType":"uint256","name":"_cargaHoraria","type":"uint256"},{"internalType":"string","name":"_instituicaoEmissora","type":"string"}],"name":"emitirCertificado","outputs":[],"stateMutability":"nonpayable","type":"function"},{"inputs":[{"internalType":"string","name":"","type":"string"}],"name":"hashParaId","outputs":[{"internalType":"uint256","name":"","type":"uint256"}],"stateMutability":"view","type":"function"},{"inputs":[{"internalType":"uint256","name":"_idCertificado","type":"uint256"}],"name":"obterCertificado","outputs":[{"components":[{"internalType":"uint256","name":"id","type":"uint256"},{"internalType":"address","name":"enderecoAluno","type":"address"},{"internalType":"string","name":"nomeAluno","type":"string"},{"internalType":"string","name":"nomeCurso","type":"string"},{"internalType":"uint256","name":"dataEmissao","type":"uint256"},{"internalType":"bool","name":"valido","type":"bool"},{"internalType":"string","name":"hashCertificado","type":"string"},{"internalType":"string","name":"descricaoCurso","type":"string"},{"internalType":"uint256","name":"cargaHoraria","type":"uint256"},{"internalType":"string","name":"instituicaoEmissora","type":"string"}],"internalType":"struct ContratoCertificados.Certificado","name":"","type":"tuple"}],"stateMutability":"view","type":"function"},{"inputs":[{"internalType":"address","name":"_enderecoAluno","type":"address"}],"name":"obterCertificadosDoAluno","outputs":[{"internalType":"uint256[]","name":"","type":"uint256[]"}],"stateMutability":"view","type":"function"},{"inputs":[{"internalType":"address","name":"_enderecoAluno","type":"address"}],"name":"obterQuantidadeCertificadosAluno","outputs":[{"internalType":"uint256","name":"","type":"uint256"}],"stateMutability":"view","type":"function"},{"inputs":[],"name":"obterTotalCertificados","outputs":[{"internalType":"uint256","name":"","type":"uint256"}],"stateMutability":"view","type":"function"},{"inputs":[],"name":"owner","outputs":[{"internalType":"address","name":"","type":"address"}],"stateMutability":"view","type":"function"},{"inputs":[],"name":"pausarContrato","outputs":[],"stateMutability":"nonpayable","type":"function"},{"inputs":[],"name":"paused","outputs":[{"internalType":"bool","name":"","type":"bool"}],"stateMutability":"view","type":"function"},{"inputs":[{"internalType":"address","name":"_administrador","type":"address"}],"name":"removerAdministrador","outputs":[],"stateMutability":"nonpayable","type":"function"},{"inputs":[],"name":"renounceOwnership","outputs":[],"stateMutability":"nonpayable","type":"function"},{"inputs":[{"internalType":"uint256","name":"_idCertificado","type":"uint256"}],"name":"revogarCertificado","outputs":[],"stateMutability":"nonpayable","type":"function"},{"inputs":[{"internalType":"address","name":"newOwner","type":"address"}],"name":"transferOwnership","outputs":[],"stateMutability":"nonpayable","type":"function"},{"inputs":[{"internalType":"address","name":"_endereco","type":"address"}],"name":"verificarAdministrador","outputs":[{"internalType":"bool","name":"","type":"bool"}],"stateMutability":"view","type":"function"},{"inputs":[{"internalType":"string","name":"_hashCertificado","type":"string"}],"name":"verificarCertificadoPorHash","outputs":[{"internalType":"uint256","name":"","type":"uint256"}],"stateMutability":"view","type":"function"},{"inputs":[{"internalType":"uint256","name":"_idCertificado","type":"uint256"}],"name":"verificarValidadeCertificado","outputs":[{"internalType":"bool","name":"","type":"bool"}],"stateMutability":"view","type":"function"}],"evm":{"bytecode":{"linkReferences":{},"object":"6080806040523461009557331561007f5760008054336001600160a01b0319821681178355604080519390929091906001600160a01b03167f8be0079c531659141344cd1fd0a4f28419497f9722a3daafe3b4186f6b6457e08380a360018055338152600660205220600160ff19825416179055611985908161009b8239f35b631e4fbdf760e01b815260006004820152602490fd5b600080fdfe6080604052600436101561001257600080fd5b60003560e01c8063071c2ba71461154f5780631535d4fa146114f75780631a003ecb146114955780632ef2528c1461145b578063339bfa15146109c357806338d5c916146109515780634b38d874146107675780635c975abb1461074157806361ce7165146106e957806363151b94146104965780636afef4ce146106cb578063715018a6146106725780638430ac13146106205780638da5cb5b146105f75780638e59bb48146104f2578063a29deac114610496578063a93ecd4114610382578063d449dc5414610343578063d4c40d211461024a578063e64a02cd146101965763f2fde38b1461010357600080fd5b346101915760203660031901126101915761011c61165a565b610124611859565b6001600160a01b0390811690811561017857600054826bffffffffffffffffffffffff60a01b821617600055167f8be0079c531659141344cd1fd0a4f28419497f9722a3daafe3b4186f6b6457e0600080a3005b604051631e4fbdf760e01b815260006004820152602490fd5b600080fd5b3461019157602080600319360112610191576001600160a01b036101b861165a565b1660005260048152604060002060405190818382549182815201908192600052846000209060005b868282106102365786866101f68288038361168c565b604051928392818401908285525180915260408401929160005b82811061021f57505050500390f35b835185528695509381019392810192600101610210565b8354855290930192600192830192016101e0565b346101915760203660031901126101915761026361165a565b61026b611859565b6001600160a01b0316801561030a5780600052600660205260ff604060002054166102d0578060005260066020526040600020600160ff198254161790557f7f521ce12c5d86e8917d1c0008394696a9c36831e2735e77e16849dd89c187b4600080a2005b60405162461bcd60e51b8152602060048201526012602482015271253090329030b236b4b734b9ba3930b237b960711b6044820152606490fd5b60405162461bcd60e51b8152602060048201526011602482015270456e64657265636f20696e76616c69646f60781b6044820152606490fd5b34610191576020366003190112610191576001600160a01b0361036461165a565b166000526006602052602060ff604060002054166040519015158152f35b346101915760208060031936011261019157600054600435906001600160a01b039081163314801561047e575b6103b890611885565b81151580610472575b6103ca9061190a565b816000526003835260ff600560406000200154161561042d577fdd507c5d75d5cf75401dfb30e5db2f9bc3dd41671e9820fab181162022e46971908260005260038452600160406000206005810160ff19815416905501541692604051428152a3005b60405162461bcd60e51b815260048101849052601b60248201527f436572746966696361646f206a6120666f69207265766f6761646f00000000006044820152606490fd5b506002548211156103c1565b5033600090815260068452604090205460ff166103af565b34610191576020366003190112610191576004356001600160401b038111610191576104df60206104cc819336906004016116ad565b8160405193828580945193849201611703565b8101600581520301902054604051908152f35b34610191576020366003190112610191576004356000908152600360205260409020805460018201546001600160a01b031691610531600282016117b3565b9061053e600382016117b3565b6004820154600583015460ff1690610558600685016117b3565b91610565600786016117b3565b93600886015495600901610578906117b3565b96604051998a998a5260208a01526101408060408b0152890161059a91611726565b88810360608a01526105ab91611726565b916080880152151560a087015285810360c08701526105c991611726565b84810360e08601526105da91611726565b906101008401528281036101208401526105f391611726565b0390f35b34610191576000366003190112610191576000546040516001600160a01b039091168152602090f35b346101915760203660031901126101915760043580151580610666575b6106469061190a565b6000526003602052602060ff600560406000200154166040519015158152f35b5060025481111561063d565b346101915760003660031901126101915761068b611859565b600080546001600160a01b0319811682556001600160a01b03167f8be0079c531659141344cd1fd0a4f28419497f9722a3daafe3b4186f6b6457e08280a3005b34610191576000366003190112610191576020600254604051908152f35b346101915760403660031901126101915761070261165a565b6001600160a01b0316600090815260046020526040902080546024359190821015610191576020916107339161174b565b90546040519160031b1c8152f35b3461019157600036600319011261019157602060ff60005460a01c166040519015158152f35b3461019157602036600319011261019157600435606061012060405161078c81611670565b6000815260006020820152826040820152828082015260006080820152600060a08201528260c08201528260e08201526000610100820152015280151580610945575b6107d89061190a565b60005260036020526105f3604060002061087f6009604051926107fa84611670565b8054845260018101546001600160a01b0316602085015261081d600282016117b3565b604085015261082e600382016117b3565b60608501526004810154608085015260ff600582015416151560a0850152610858600682016117b3565b60c0850152610869600782016117b3565b60e08501526008810154610100850152016117b3565b610120820152604051918291602083528051602084015260018060a01b03602082015116604084015260408101516108c561014091826060870152610160860190611726565b9061012061092a6109156108eb606087015195601f1996878b83030160808c0152611726565b608087015160a08a015260a0870151151560c08a015260c0870151868a83030160e08b0152611726565b60e086015185898303016101008a0152611726565b93610100810151828801520151918584030190850152611726565b506002548111156107cf565b346101915760003660031901126101915761096a611859565b60005460ff8160a01c16156109b15760ff60a01b19166000556040513381527f5db9ee0a495bf2e6ff9c91a7834c1ba4fdd244a5e8aa4e537bd38aeae4b073aa90602090a1005b604051638dfc202b60e01b8152600490fd5b346101915760e0366003190112610191576109dc61165a565b6024356001600160401b038111610191576109fb9036906004016116ad565b906044356001600160401b03811161019157610a1b9036906004016116ad565b6064356001600160401b03811161019157610a3a9036906004016116ad565b916084356001600160401b03811161019157610a5a9036906004016116ad565b9360c4356001600160401b03811161019157610a7a9036906004016116ad565b9460018060a01b036000541633148015611442575b610a9890611885565b610aa06118e9565b6002600154146114305760026001556001600160a01b038316156113eb5781511561139b5783511561134b578451156112f5576040516020818751610ae88183858c01611703565b81016005815203019020546112b05760025495600019871461129a576001870160025560405191610b1883611670565b60018801835260018060a01b0385166020840152836040840152856060840152426080840152600160a08401528660c084015260e083015260a435610100830152610120820152600186016000526003602052604060002090805182556001820160018060a01b036020830151166bffffffffffffffffffffffff60a01b82541617905560408101518051906001600160401b038211610e8c578190610bc16002860154611779565b601f8111611247575b50602090601f83116001146111d5576000926111ca575b50508160011b916000199060031b1c19161760028301555b60608101518051906001600160401b038211610e8c578190610c1e6003860154611779565b601f8111611177575b50602090601f8311600114611105576000926110fa575b50508160011b916000199060031b1c19161760038301555b608081015160048301556005820160a0820151151560ff8019835416911617905560c08101518051906001600160401b038211610e8c578190610c9c6006860154611779565b601f81116110a7575b50602090601f83116001146110355760009261102a575b50508160011b916000199060031b1c19161760068301555b60e08101518051906001600160401b038211610e8c57610cf76007850154611779565b601f8111610fe3575b50602090601f8311600114610f6f5761012093929160009183610f64575b50508160011b916000199060031b1c19161760078401555b610100810151600884015501518051906001600160401b038211610e8c57610d616009840154611779565b601f8111610f1d575b50602090601f8311600114610ead576009929160009183610ea2575b50508160011b916000199060031b1c1916179101555b60018060a01b038216600052600460205260406000209283549268010000000000000000841015610e8c576001610e65610e8393610e03877f114d42843a4d26a175ddff2aaef98eaa2ca9366bbc0298e44eb6de5399e130939985610e579a01815561174b565b81549060031b90858d01821b91600019901b191617905589610e3560208b868260405194838680955193849201611703565b8201946005865201930301902055604051968796608088526080880190611726565b908682036020880152611726565b914260408601528483036060860152818060a01b0316970195611726565b0390a360018055005b634e487b7160e01b600052604160045260246000fd5b015190508980610d86565b906009840160005260206000209160005b601f1985168110610f055750918391600193600995601f19811610610eec575b505050811b01910155610d9c565b015160001960f88460031b161c19169055898080610ede565b91926020600181928685015181550194019201610ebe565b600984016000526020600020601f840160051c810160208510610f5d575b601f830160051c82018110610f51575050610d6a565b60008155600101610f3b565b5080610f3b565b015190508a80610d1e565b906007850160005260206000209160005b601f1985168110610fcb57509183916001936101209695601f19811610610fb2575b505050811b016007840155610d36565b015160001960f88460031b161c191690558a8080610fa2565b91926020600181928685015181550194019201610f80565b600785016000526020600020601f840160051c810160208510611023575b601f830160051c82018110611017575050610d00565b60008155600101611001565b5080611001565b015190508980610cbc565b9250600685016000526020600020906000935b601f198416851061108c576001945083601f19811610611073575b505050811b016006830155610cd4565b015160001960f88460031b161c19169055898080611063565b81810151835560209485019460019093019290910190611048565b909150600685016000526020600020601f840160051c8101602085106110f3575b90849392915b601f830160051c820181106110e4575050610ca5565b600081558594506001016110ce565b50806110c8565b015190508980610c3e565b9250600385016000526020600020906000935b601f198416851061115c576001945083601f19811610611143575b505050811b016003830155610c56565b015160001960f88460031b161c19169055898080611133565b81810151835560209485019460019093019290910190611118565b909150600385016000526020600020601f840160051c8101602085106111c3575b90849392915b601f830160051c820181106111b4575050610c27565b6000815585945060010161119e565b5080611198565b015190508980610be1565b9250600285016000526020600020906000935b601f198416851061122c576001945083601f19811610611213575b505050811b016002830155610bf9565b015160001960f88460031b161c19169055898080611203565b818101518355602094850194600190930192909101906111e8565b909150600285016000526020600020601f840160051c810160208510611293575b90849392915b601f830160051c82018110611284575050610bca565b6000815585945060010161126e565b5080611268565b634e487b7160e01b600052601160045260246000fd5b60405162461bcd60e51b815260206004820152601d60248201527f4861736820646f20636572746966696361646f206a61206578697374650000006044820152606490fd5b60405162461bcd60e51b815260206004820152602860248201527f4861736820646f20636572746966696361646f206e616f20706f64652065737460448201526761722076617a696f60c01b6064820152608490fd5b60405162461bcd60e51b815260206004820152602260248201527f4e6f6d6520646f20637572736f206e616f20706f64652065737461722076617a604482015261696f60f01b6064820152608490fd5b60405162461bcd60e51b815260206004820152602260248201527f4e6f6d6520646f20616c756e6f206e616f20706f64652065737461722076617a604482015261696f60f01b6064820152608490fd5b60405162461bcd60e51b815260206004820152601a60248201527f456e64657265636f20646f20616c756e6f20696e76616c69646f0000000000006044820152606490fd5b604051633ee5aeb560e01b8152600490fd5b503360009081526006602052604090205460ff16610a8f565b34610191576020366003190112610191576001600160a01b0361147c61165a565b1660005260046020526020604060002054604051908152f35b34610191576000366003190112610191576114ae611859565b6114b66118e9565b6000805460ff60a01b1916600160a01b1790556040513381527f62e78cea01bee320cd4e420270b5ea74000d11b0c9f74754ebdbfc544b05a25890602090a1005b346101915760203660031901126101915761151061165a565b6000546001600160a01b03918216911681148015611536575b6020906040519015158152f35b506000526006602052602060ff60406000205416611529565b346101915760203660031901126101915761156861165a565b611570611859565b6000546001600160a01b03918216911681146116155780600052600660205260ff60406000205416156115da57806000526006602052604060002060ff1981541690557f50c01f91794464f9157b93978f39e7178094b03a3eec3dccb3337daacb380762600080a2005b60405162461bcd60e51b81526020600482015260136024820152722730b790329030b236b4b734b9ba3930b237b960691b6044820152606490fd5b60405162461bcd60e51b815260206004820152601860248201527f4e616f20706f64652072656d6f766572206f206f776e657200000000000000006044820152606490fd5b600435906001600160a01b038216820361019157565b61014081019081106001600160401b03821117610e8c57604052565b90601f801991011681019081106001600160401b03821117610e8c57604052565b81601f82011215610191578035906001600160401b038211610e8c57604051926116e1601f8401601f19166020018561168c565b8284526020838301011161019157816000926020809301838601378301015290565b60005b8381106117165750506000910152565b8181015183820152602001611706565b9060209161173f81518092818552858086019101611703565b601f01601f1916010190565b80548210156117635760005260206000200190600090565b634e487b7160e01b600052603260045260246000fd5b90600182811c921680156117a9575b602083101461179357565b634e487b7160e01b600052602260045260246000fd5b91607f1691611788565b90604051918260008254926117c784611779565b90818452600194858116908160001461183657506001146117f3575b50506117f19250038361168c565b565b9093915060005260209081600020936000915b81831061181e5750506117f1935082010138806117e3565b85548884018501529485019487945091830191611806565b9150506117f194506020925060ff191682840152151560051b82010138806117e3565b6000546001600160a01b0316330361186d57565b60405163118cdaa760e01b8152336004820152602490fd5b1561188c57565b60405162461bcd60e51b815260206004820152602f60248201527f4170656e61732061646d696e6973747261646f72657320706f64656d2065786560448201526e63757461722065737461206163616f60881b6064820152608490fd5b60ff60005460a01c166118f857565b60405163d93c066560e01b8152600490fd5b1561191157565b60405162461bcd60e51b8152602060048201526016602482015275436572746966696361646f206e616f2065786973746560501b6044820152606490fdfea26469706673582212202a39657e2d8efbe879b8f763709ab72463423307a3cc4fef116e8f016937f83964736f6c63430008140033","opcodes":"PUSH1 0x80 DUP1 PUSH1 0x40 MSTORE CALLVALUE PUSH2 0x95 JUMPI CALLER ISZERO PUSH2 0x7F JUMPI PUSH1 0x0 DUP1 SLOAD CALLER PUSH1 0x1 PUSH1 0x1 PUSH1 0xA0 SHL SUB NOT DUP3 AND DUP2 OR DUP4 SSTORE PUSH1 0x40 DUP1 MLOAD SWAP4 SWAP1 SWAP3 SWAP1 SWAP2 SWAP1 PUSH1 0x1 PUSH1 0x1 PUSH1 0xA0 SHL SUB AND PUSH32 0x8BE0079C531659141344CD1FD0A4F28419497F9722A3DAAFE3B4186F6B6457E0 DUP4 DUP1 LOG3 PUSH1 0x1 DUP1 SSTORE CALLER DUP2 MSTORE PUSH1 0x6 PUSH1 0x20 MSTORE KECCAK256 PUSH1 0x1 PUSH1 0xFF NOT DUP3 SLOAD AND OR SWAP1 SSTORE PUSH2 0x1985 SWAP1 DUP2 PUSH2 0x9B DUP3 CODECOPY RETURN JUMPDEST PUSH4 0x1E4FBDF7 PUSH1 0xE0 SHL DUP2 MSTORE PUSH1 0x0 PUSH1 0x4 DUP3 ADD MSTORE PUSH1 0x24 SWAP1 REVERT JUMPDEST PUSH1 0x0 DUP1 REVERT INVALID PUSH1 0x80 PUSH1 0x40 MSTORE PUSH1 0x4 CALLDATASIZE LT ISZERO PUSH2 0x12 JUMPI PUSH1 0x0 DUP1 REVERT JUMPDEST PUSH1 0x0 CALLDATALOAD PUSH1 0xE0 SHR DUP1 PUSH4 0x71C2BA7 EQ PUSH2 0x154F JUMPI DUP1 PUSH4 0x1535D4FA EQ PUSH2 0x14F7 JUMPI DUP1 PUSH4 0x1A003ECB EQ PUSH2 0x1495 JUMPI DUP1 PUSH4 0x2EF2528C EQ PUSH2 0x145B JUMPI DUP1 PUSH4 0x339BFA15 EQ PUSH2 0x9C3 JUMPI DUP1 PUSH4 0x38D5C916 EQ PUSH2 0x951 JUMPI DUP1 PUSH4 0x4B38D874 EQ PUSH2 0x767 JUMPI DUP1 PUSH4 0x5C975ABB EQ PUSH2 0x741 JUMPI DUP1 PUSH4 0x61CE7165 EQ PUSH2 0x6E9 JUMPI DUP1 PUSH4 0x63151B94 EQ PUSH2 0x496 JUMPI DUP1 PUSH4 0x6AFEF4CE EQ PUSH2 0x6CB JUMPI DUP1 PUSH4 0x715018A6 EQ PUSH2 0x672 JUMPI DUP1 PUSH4 0x8430AC13 EQ PUSH2 0x620 JUMPI DUP1 PUSH4 0x8DA5CB5B EQ PUSH2 0x5F7 JUMPI DUP1 PUSH4 0x8E59BB48 EQ PUSH2 0x4F2 JUMPI DUP1 PUSH4 0xA29DEAC1 EQ PUSH2 0x496 JUMPI DUP1 PUSH4 0xA93ECD41 EQ PUSH2 0x382 JUMPI DUP1 PUSH4 0xD449DC54 EQ PUSH2 0x343 JUMPI DUP1 PUSH4 0xD4C40D21 EQ PUSH2 0x24A JUMPI DUP1 PUSH4 0xE64A02CD EQ PUSH2 0x196 JUMPI PUSH4 0xF2FDE38B EQ PUSH2 0x103 JUMPI PUSH1 0x0 DUP1 REVERT JUMPDEST CALLVALUE PUSH2 0x191 JUMPI PUSH1 0x20 CALLDATASIZE PUSH1 0x3 NOT ADD SLT PUSH2 0x191 JUMPI PUSH2 0x11C PUSH2 0x165A JUMP JUMPDEST PUSH2 0x124 PUSH2 0x1859 JUMP JUMPDEST PUSH1 0x1 PUSH1 0x1 PUSH1 0xA0 SHL SUB SWAP1 DUP2 AND SWAP1 DUP2 ISZERO PUSH2 0x178 JUMPI PUSH1 0x0 SLOAD DUP3 PUSH12 0xFFFFFFFFFFFFFFFFFFFFFFFF PUSH1 0xA0 SHL DUP3 AND OR PUSH1 0x0 SSTORE AND PUSH32 0x8BE0079C531659141344CD1FD0A4F28419497F9722A3DAAFE3B4186F6B6457E0 PUSH1 0x0 DUP1 LOG3 STOP JUMPDEST PUSH1 0x40 MLOAD PUSH4 0x1E4FBDF7 PUSH1 0xE0 SHL DUP2 MSTORE PUSH1 0x0 PUSH1 0x4 DUP3 ADD MSTORE PUSH1 0x24 SWAP1 REVERT JUMPDEST PUSH1 0x0 DUP1 REVERT JUMPDEST CALLVALUE PUSH2 0x191 JUMPI PUSH1 0x20 DUP1 PUSH1 0x3 NOT CALLDATASIZE ADD SLT PUSH2 0x191 JUMPI PUSH1 0x1 PUSH1 0x1 PUSH1 0xA0 SHL SUB PUSH2 0x1B8 PUSH2 0x165A JUMP JUMPDEST AND PUSH1 0x0 MSTORE PUSH1 0x4 DUP2 MSTORE PUSH1 0x40 PUSH1 0x0 KECCAK256 PUSH1 0x40 MLOAD SWAP1 DUP2 DUP4 DUP3 SLOAD SWAP2 DUP3 DUP2 MSTORE ADD SWAP1 DUP2 SWAP3 PUSH1 0x0 MSTORE DUP5 PUSH1 0x0 KECCAK256 SWAP1 PUSH1 0x0 JUMPDEST DUP7 DUP3 DUP3 LT PUSH2 0x236 JUMPI DUP7 DUP7 PUSH2 0x1F6 DUP3 DUP9 SUB DUP4 PUSH2 0x168C JUMP JUMPDEST PUSH1 0x40 MLOAD SWAP3 DUP4 SWAP3 DUP2 DUP5 ADD SWAP1 DUP3 DUP6 MSTORE MLOAD DUP1 SWAP2 MSTORE PUSH1 0x40 DUP5 ADD SWAP3 SWAP2 PUSH1 0x0 JUMPDEST DUP3 DUP2 LT PUSH2 0x21F JUMPI POP POP POP POP SUB SWAP1 RETURN JUMPDEST DUP4 MLOAD DUP6 MSTORE DUP7 SWAP6 POP SWAP4 DUP2 ADD SWAP4 SWAP3 DUP2 ADD SWAP3 PUSH1 0x1 ADD PUSH2 0x210 JUMP JUMPDEST DUP4 SLOAD DUP6 MSTORE SWAP1 SWAP4 ADD SWAP3 PUSH1 0x1 SWAP3 DUP4 ADD SWAP3 ADD PUSH2 0x1E0 JUMP JUMPDEST CALLVALUE PUSH2 0x191 JUMPI PUSH1 0x20 CALLDATASIZE PUSH1 0x3 NOT ADD SLT PUSH2 0x191 JUMPI PUSH2 0x263 PUSH2 0x165A JUMP JUMPDEST PUSH2 0x26B PUSH2 0x1859 JUMP JUMPDEST PUSH1 0x1 PUSH1 0x1 PUSH1 0xA0 SHL SUB AND DUP1 ISZERO PUSH2 0x30A JUMPI DUP1 PUSH1 0x0 MSTORE PUSH1 0x6 PUSH1 0x20 MSTORE PUSH1 0xFF PUSH1 0x40 PUSH1 0x0 KECCAK256 SLOAD AND PUSH2 0x2D0 JUMPI DUP1 PUSH1 0x0 MSTORE PUSH1 0x6 PUSH1 0x20 MSTORE PUSH1 0x40 PUSH1 0x0 KECCAK256 PUSH1 0x1 PUSH1 0xFF NOT DUP3 SLOAD AND OR SWAP1 SSTORE PUSH32 0x7F521CE12C5D86E8917D1C0008394696A9C36831E2735E77E16849DD89C187B4 PUSH1 0x0 DUP1 LOG2 STOP JUMPDEST PUSH1 0x40 MLOAD PUSH3 0x461BCD PUSH1 0xE5 SHL DUP2 MSTORE PUSH1 0x20 PUSH1 0x4 DUP3 ADD MSTORE PUSH1 0x12 PUSH1 0x24 DUP3 ADD MSTORE PUSH18 0x253090329030B236B4B734B9BA3930B237B9 PUSH1 0x71 SHL PUSH1 0x44 DUP3 ADD MSTORE PUSH1 0x64 SWAP1 REVERT JUMPDEST PUSH1 0x40 MLOAD PUSH3 0x461BCD PUSH1 0xE5 SHL DUP2 MSTORE PUSH1 0x20 PUSH1 0x4 DUP3 ADD MSTORE PUSH1 0x11 PUSH1 0x24 DUP3 ADD MSTORE PUSH17 0x456E64657265636F20696E76616C69646F PUSH1 0x78 SHL PUSH1 0x44 DUP3 ADD MSTORE PUSH1 0x64 SWAP1 REVERT JUMPDEST CALLVALUE PUSH2 0x191 JUMPI PUSH1 0x20 CALLDATASIZE PUSH1 0x3 NOT ADD SLT PUSH2 0x191 JUMPI PUSH1 0x1 PUSH1 0x1 PUSH1 0xA0 SHL SUB PUSH2 0x364 PUSH2 0x165A JUMP JUMPDEST AND PUSH1 0x0 MSTORE PUSH1 0x6 PUSH1 0x20 MSTORE PUSH1 0x20 PUSH1 0xFF PUSH1 0x40 PUSH1 0x0 KECCAK256 SLOAD AND PUSH1 0x40 MLOAD SWAP1 ISZERO ISZERO DUP2 MSTORE RETURN JUMPDEST CALLVALUE PUSH2 0x191 JUMPI PUSH1 0x20 DUP1 PUSH1 0x3 NOT CALLDATASIZE ADD SLT PUSH2 0x191 JUMPI PUSH1 0x0 SLOAD PUSH1 0x4 CALLDATALOAD SWAP1 PUSH1 0x1 PUSH1 0x1 PUSH1 0xA0 SHL SUB SWAP1 DUP2 AND CALLER EQ DUP1 ISZERO PUSH2 0x47E JUMPI JUMPDEST PUSH2 0x3B8 SWAP1 PUSH2 0x1885 JUMP JUMPDEST DUP2 ISZERO ISZERO DUP1 PUSH2 0x472 JUMPI JUMPDEST PUSH2 0x3CA SWAP1 PUSH2 0x190A JUMP JUMPDEST DUP2 PUSH1 0x0 MSTORE PUSH1 0x3 DUP4 MSTORE PUSH1 0xFF PUSH1 0x5 PUSH1 0x40 PUSH1 0x0 KECCAK256 ADD SLOAD AND ISZERO PUSH2 0x42D JUMPI PUSH32 0xDD507C5D75D5CF75401DFB30E5DB2F9BC3DD41671E9820FAB181162022E46971 SWAP1 DUP3 PUSH1 0x0 MSTORE PUSH1 0x3 DUP5 MSTORE PUSH1 0x1 PUSH1 0x40 PUSH1 0x0 KECCAK256 PUSH1 0x5 DUP2 ADD PUSH1 0xFF NOT DUP2 SLOAD AND SWAP1 SSTORE ADD SLOAD AND SWAP3 PUSH1 0x40 MLOAD TIMESTAMP DUP2 MSTORE LOG3 STOP JUMPDEST PUSH1 0x40 MLOAD PUSH3 0x461BCD PUSH1 0xE5 SHL DUP2 MSTORE PUSH1 0x4 DUP2 ADD DUP5 SWAP1 MSTORE PUSH1 0x1B PUSH1 0x24 DUP3 ADD MSTORE PUSH32 0x436572746966696361646F206A6120666F69207265766F6761646F0000000000 PUSH1 0x44 DUP3 ADD MSTORE PUSH1 0x64 SWAP1 REVERT JUMPDEST POP PUSH1 0x2 SLOAD DUP3 GT ISZERO PUSH2 0x3C1 JUMP JUMPDEST POP CALLER PUSH1 0x0 SWAP1 DUP2 MSTORE PUSH1 0x6 DUP5 MSTORE PUSH1 0x40 SWAP1 KECCAK256 SLOAD PUSH1 0xFF AND PUSH2 0x3AF JUMP JUMPDEST CALLVALUE PUSH2 0x191 JUMPI PUSH1 0x20 CALLDATASIZE PUSH1 0x3 NOT ADD SLT PUSH2 0x191 JUMPI PUSH1 0x4 CALLDATALOAD PUSH1 0x1 PUSH1 0x1 PUSH1 0x40 SHL SUB DUP2 GT PUSH2 0x191 JUMPI PUSH2 0x4DF PUSH1 0x20 PUSH2 0x4CC DUP2 SWAP4 CALLDATASIZE SWAP1 PUSH1 0x4 ADD PUSH2 0x16AD JUMP JUMPDEST DUP2 PUSH1 0x40 MLOAD SWAP4 DUP3 DUP6 DUP1 SWAP5 MLOAD SWAP4 DUP5 SWAP3 ADD PUSH2 0x1703 JUMP JUMPDEST DUP2 ADD PUSH1 0x5 DUP2 MSTORE SUB ADD SWAP1 KECCAK256 SLOAD PUSH1 0x40 MLOAD SWAP1 DUP2 MSTORE RETURN JUMPDEST CALLVALUE PUSH2 0x191 JUMPI PUSH1 0x20 CALLDATASIZE PUSH1 0x3 NOT ADD SLT PUSH2 0x191 JUMPI PUSH1 0x4 CALLDATALOAD PUSH1 0x0 SWAP1 DUP2 MSTORE PUSH1 0x3 PUSH1 0x20 MSTORE PUSH1 0x40 SWAP1 KECCAK256 DUP1 SLOAD PUSH1 0x1 DUP3 ADD SLOAD PUSH1 0x1 PUSH1 0x1 PUSH1 0xA0 SHL SUB AND SWAP2 PUSH2 0x531 PUSH1 0x2 DUP3 ADD PUSH2 0x17B3 JUMP JUMPDEST SWAP1 PUSH2 0x53E PUSH1 0x3 DUP3 ADD PUSH2 0x17B3 JUMP JUMPDEST PUSH1 0x4 DUP3 ADD SLOAD PUSH1 0x5 DUP4 ADD SLOAD PUSH1 0xFF AND SWAP1 PUSH2 0x558 PUSH1 0x6 DUP6 ADD PUSH2 0x17B3 JUMP JUMPDEST SWAP2 PUSH2 0x565 PUSH1 0x7 DUP7 ADD PUSH2 0x17B3 JUMP JUMPDEST SWAP4 PUSH1 0x8 DUP7 ADD SLOAD SWAP6 PUSH1 0x9 ADD PUSH2 0x578 SWAP1 PUSH2 0x17B3 JUMP JUMPDEST SWAP7 PUSH1 0x40 MLOAD SWAP10 DUP11 SWAP10 DUP11 MSTORE PUSH1 0x20 DUP11 ADD MSTORE PUSH2 0x140 DUP1 PUSH1 0x40 DUP12 ADD MSTORE DUP10 ADD PUSH2 0x59A SWAP2 PUSH2 0x1726 JUMP JUMPDEST DUP9 DUP2 SUB PUSH1 0x60 DUP11 ADD MSTORE PUSH2 0x5AB SWAP2 PUSH2 0x1726 JUMP JUMPDEST SWAP2 PUSH1 0x80 DUP9 ADD MSTORE ISZERO ISZERO PUSH1 0xA0 DUP8 ADD MSTORE DUP6 DUP2 SUB PUSH1 0xC0 DUP8 ADD MSTORE PUSH2 0x5C9 SWAP2 PUSH2 0x1726 JUMP JUMPDEST DUP5 DUP2 SUB PUSH1 0xE0 DUP7 ADD MSTORE PUSH2 0x5DA SWAP2 PUSH2 0x1726 JUMP JUMPDEST SWAP1 PUSH2 0x100 DUP5 ADD MSTORE DUP3 DUP2 SUB PUSH2 0x120 DUP5 ADD MSTORE PUSH2 0x5F3 SWAP2 PUSH2 0x1726 JUMP JUMPDEST SUB SWAP1 RETURN JUMPDEST CALLVALUE PUSH2 0x191 JUMPI PUSH1 0x0 CALLDATASIZE PUSH1 0x3 NOT ADD SLT PUSH2 0x191 JUMPI PUSH1 0x0 SLOAD PUSH1 0x40 MLOAD PUSH1 0x1 PUSH1 0x1 PUSH1 0xA0 SHL SUB SWAP1 SWAP2 AND DUP2 MSTORE PUSH1 0x20 SWAP1 RETURN JUMPDEST CALLVALUE PUSH2 0x191 JUMPI PUSH1 0x20 CALLDATASIZE PUSH1 0x3 NOT ADD SLT PUSH2 0x191 JUMPI PUSH1 0x4 CALLDATALOAD DUP1 ISZERO ISZERO DUP1 PUSH2 0x666 JUMPI JUMPDEST PUSH2 0x646 SWAP1 PUSH2 0x190A JUMP JUMPDEST PUSH1 0x0 MSTORE PUSH1 0x3 PUSH1 0x20 MSTORE PUSH1 0x20 PUSH1 0xFF PUSH1 0x5 PUSH1 0x40 PUSH1 0x0 KECCAK256 ADD SLOAD AND PUSH1 0x40 MLOAD SWAP1 ISZERO ISZERO DUP2 MSTORE RETURN JUMPDEST POP PUSH1 0x2 SLOAD DUP2 GT ISZERO PUSH2 0x63D JUMP JUMPDEST CALLVALUE PUSH2 0x191 JUMPI PUSH1 0x0 CALLDATASIZE PUSH1 0x3 NOT ADD SLT PUSH2 0x191 JUMPI PUSH2 0x68B PUSH2 0x1859 JUMP JUMPDEST PUSH1 0x0 DUP1 SLOAD PUSH1 0x1 PUSH1 0x1 PUSH1 0xA0 SHL SUB NOT DUP2 AND DUP3 SSTORE PUSH1 0x1 PUSH1 0x1 PUSH1 0xA0 SHL SUB AND PUSH32 0x8BE0079C531659141344CD1FD0A4F28419497F9722A3DAAFE3B4186F6B6457E0 DUP3 DUP1 LOG3 STOP JUMPDEST CALLVALUE PUSH2 0x191 JUMPI PUSH1 0x0 CALLDATASIZE PUSH1 0x3 NOT ADD SLT PUSH2 0x191 JUMPI PUSH1 0x20 PUSH1 0x2 SLOAD PUSH1 0x40 MLOAD SWAP1 DUP2 MSTORE RETURN JUMPDEST CALLVALUE PUSH2 0x191 JUMPI PUSH1 0x40 CALLDATASIZE PUSH1 0x3 NOT ADD SLT PUSH2 0x191 JUMPI PUSH2 0x702 PUSH2 0x165A JUMP JUMPDEST PUSH1 0x1 PUSH1 0x1 PUSH1 0xA0 SHL SUB AND PUSH1 0x0 SWAP1 DUP2 MSTORE PUSH1 0x4 PUSH1 0x20 MSTORE PUSH1 0x40 SWAP1 KECCAK256 DUP1 SLOAD PUSH1 0x24 CALLDATALOAD SWAP2 SWAP1 DUP3 LT ISZERO PUSH2 0x191 JUMPI PUSH1 0x20 SWAP2 PUSH2 0x733 SWAP2 PUSH2 0x174B JUMP JUMPDEST SWAP1 SLOAD PUSH1 0x40 MLOAD SWAP2 PUSH1 0x3 SHL SHR DUP2 MSTORE RETURN JUMPDEST CALLVALUE PUSH2 0x191 JUMPI PUSH1 0x0 CALLDATASIZE PUSH1 0x3 NOT ADD SLT PUSH2 0x191 JUMPI PUSH1 0x20 PUSH1 0xFF PUSH1 0x0 SLOAD PUSH1 0xA0 SHR AND PUSH1 0x40 MLOAD SWAP1 ISZERO ISZERO DUP2 MSTORE RETURN JUMPDEST CALLVALUE PUSH2 0x191 JUMPI PUSH1 0x20 CALLDATASIZE PUSH1 0x3 NOT ADD SLT PUSH2 0x191 JUMPI PUSH1 0x4 CALLDATALOAD PUSH1 0x60 PUSH2 0x120 PUSH1 0x40 MLOAD PUSH2 0x78C DUP2 PUSH2 0x1670 JUMP JUMPDEST PUSH1 0x0 DUP2 MSTORE PUSH1 0x0 PUSH1 0x20 DUP3 ADD MSTORE DUP3 PUSH1 0x40 DUP3 ADD MSTORE DUP3 DUP1 DUP3 ADD MSTORE PUSH1 0x0 PUSH1 0x80 DUP3 ADD MSTORE PUSH1 0x0 PUSH1 0xA0 DUP3 ADD MSTORE DUP3 PUSH1 0xC0 DUP3 ADD MSTORE DUP3 PUSH1 0xE0 DUP3 ADD MSTORE PUSH1 0x0 PUSH2 0x100 DUP3 ADD MSTORE ADD MSTORE DUP1 ISZERO ISZERO DUP1 PUSH2 0x945 JUMPI JUMPDEST PUSH2 0x7D8 SWAP1 PUSH2 0x190A JUMP JUMPDEST PUSH1 0x0 MSTORE PUSH1 0x3 PUSH1 0x20 MSTORE PUSH2 0x5F3 PUSH1 0x40 PUSH1 0x0 KECCAK256 PUSH2 0x87F PUSH1 0x9 PUSH1 0x40 MLOAD SWAP3 PUSH2 0x7FA DUP5 PUSH2 0x1670 JUMP JUMPDEST DUP1 SLOAD DUP5 MSTORE PUSH1 0x1 DUP2 ADD SLOAD PUSH1 0x1 PUSH1 0x1 PUSH1 0xA0 SHL SUB AND PUSH1 0x20 DUP6 ADD MSTORE PUSH2 0x81D PUSH1 0x2 DUP3 ADD PUSH2 0x17B3 JUMP JUMPDEST PUSH1 0x40 DUP6 ADD MSTORE PUSH2 0x82E PUSH1 0x3 DUP3 ADD PUSH2 0x17B3 JUMP JUMPDEST PUSH1 0x60 DUP6 ADD MSTORE PUSH1 0x4 DUP2 ADD SLOAD PUSH1 0x80 DUP6 ADD MSTORE PUSH1 0xFF PUSH1 0x5 DUP3 ADD SLOAD AND ISZERO ISZERO PUSH1 0xA0 DUP6 ADD MSTORE PUSH2 0x858 PUSH1 0x6 DUP3 ADD PUSH2 0x17B3 JUMP JUMPDEST PUSH1 0xC0 DUP6 ADD MSTORE PUSH2 0x869 PUSH1 0x7 DUP3 ADD PUSH2 0x17B3 JUMP JUMPDEST PUSH1 0xE0 DUP6 ADD MSTORE PUSH1 0x8 DUP2 ADD SLOAD PUSH2 0x100 DUP6 ADD MSTORE ADD PUSH2 0x17B3 JUMP JUMPDEST PUSH2 0x120 DUP3 ADD MSTORE PUSH1 0x40 MLOAD SWAP2 DUP3 SWAP2 PUSH1 0x20 DUP4 MSTORE DUP1 MLOAD PUSH1 0x20 DUP5 ADD MSTORE PUSH1 0x1 DUP1 PUSH1 0xA0 SHL SUB PUSH1 0x20 DUP3 ADD MLOAD AND PUSH1 0x40 DUP5 ADD MSTORE PUSH1 0x40 DUP2 ADD MLOAD PUSH2 0x8C5 PUSH2 0x140 SWAP2 DUP3 PUSH1 0x60 DUP8 ADD MSTORE PUSH2 0x160 DUP7 ADD SWAP1 PUSH2 0x1726 JUMP JUMPDEST SWAP1 PUSH2 0x120 PUSH2 0x92A PUSH2 0x915 PUSH2 0x8EB PUSH1 0x60 DUP8 ADD MLOAD SWAP6 PUSH1 0x1F NOT SWAP7 DUP8 DUP12 DUP4 SUB ADD PUSH1 0x80 DUP13 ADD MSTORE PUSH2 0x1726 JUMP JUMPDEST PUSH1 0x80 DUP8 ADD MLOAD PUSH1 0xA0 DUP11 ADD MSTORE PUSH1 0xA0 DUP8 ADD MLOAD ISZERO ISZERO PUSH1 0xC0 DUP11 ADD MSTORE PUSH1 0xC0 DUP8 ADD MLOAD DUP7 DUP11 DUP4 SUB ADD PUSH1 0xE0 DUP12 ADD MSTORE PUSH2 0x1726 JUMP JUMPDEST PUSH1 0xE0 DUP7 ADD MLOAD DUP6 DUP10 DUP4 SUB ADD PUSH2 0x100 DUP11 ADD MSTORE PUSH2 0x1726 JUMP JUMPDEST SWAP4 PUSH2 0x100 DUP2 ADD MLOAD DUP3 DUP9 ADD MSTORE ADD MLOAD SWAP2 DUP6 DUP5 SUB ADD SWAP1 DUP6 ADD MSTORE PUSH2 0x1726 JUMP JUMPDEST POP PUSH1 0x2 SLOAD DUP2 GT ISZERO PUSH2 0x7CF JUMP JUMPDEST CALLVALUE PUSH2 0x191 JUMPI PUSH1 0x0 CALLDATASIZE PUSH1 0x3 NOT ADD SLT PUSH2 0x191 JUMPI PUSH2 0x96A PUSH2 0x1859 JUMP JUMPDEST PUSH1 0x0 SLOAD PUSH1 0xFF DUP2 PUSH1 0xA0 SHR AND ISZERO PUSH2 0x9B1 JUMPI PUSH1 0xFF PUSH1 0xA0 SHL NOT AND PUSH1 0x0 SSTORE PUSH1 0x40 MLOAD CALLER DUP2 MSTORE PUSH32 0x5DB9EE0A495BF2E6FF9C91A7834C1BA4FDD244A5E8AA4E537BD38AEAE4B073AA SWAP1 PUSH1 0x20 SWAP1 LOG1 STOP JUMPDEST PUSH1 0x40 MLOAD PUSH4 0x8DFC202B PUSH1 0xE0 SHL DUP2 MSTORE PUSH1 0x4 SWAP1 REVERT JUMPDEST CALLVALUE PUSH2 0x191 JUMPI PUSH1 0xE0 CALLDATASIZE PUSH1 0x3 NOT ADD SLT PUSH2 0x191 JUMPI PUSH2 0x9DC PUSH2 0x165A JUMP JUMPDEST PUSH1 0x24 CALLDATALOAD PUSH1 0x1 PUSH1 0x1 PUSH1 0x40 SHL SUB DUP2 GT PUSH2 0x191 JUMPI PUSH2 0x9FB SWAP1 CALLDATASIZE SWAP1 PUSH1 0x4 ADD PUSH2 0x16AD JUMP JUMPDEST SWAP1 PUSH1 0x44 CALLDATALOAD PUSH1 0x1 PUSH1 0x1 PUSH1 0x40 SHL SUB DUP2 GT PUSH2 0x191 JUMPI PUSH2 0xA1B SWAP1 CALLDATASIZE SWAP1 PUSH1 0x4 ADD PUSH2 0x16AD JUMP JUMPDEST PUSH1 0x64 CALLDATALOAD PUSH1 0x1 PUSH1 0x1 PUSH1 0x40 SHL SUB DUP2 GT PUSH2 0x191 JUMPI PUSH2 0xA3A SWAP1 CALLDATASIZE SWAP1 PUSH1 0x4 ADD PUSH2 0x16AD JUMP JUMPDEST SWAP2 PUSH1 0x84 CALLDATALOAD PUSH1 0x1 PUSH1 0x1 PUSH1 0x40 SHL SUB DUP2 GT PUSH2 0x191 JUMPI PUSH2 0xA5A SWAP1 CALLDATASIZE SWAP1 PUSH1 0x4 ADD PUSH2 0x16AD JUMP JUMPDEST SWAP4 PUSH1 0xC4 CALLDATALOAD PUSH1 0x1 PUSH1 0x1 PUSH1 0x40 SHL SUB DUP2 GT PUSH2 0x191 JUMPI PUSH2 0xA7A SWAP1 CALLDATASIZE SWAP1 PUSH1 0x4 ADD PUSH2 0x16AD JUMP JUMPDEST SWAP5 PUSH1 0x1 DUP1 PUSH1 0xA0 SHL SUB PUSH1 0x0 SLOAD AND CALLER EQ DUP1 ISZERO PUSH2 0x1442 JUMPI JUMPDEST PUSH2 0xA98 SWAP1 PUSH2 0x1885 JUMP JUMPDEST PUSH2 0xAA0 PUSH2 0x18E9 JUMP JUMPDEST PUSH1 0x2 PUSH1 0x1 SLOAD EQ PUSH2 0x1430 JUMPI PUSH1 0x2 PUSH1 0x1 SSTORE PUSH1 0x1 PUSH1 0x1 PUSH1 0xA0 SHL SUB DUP4 AND ISZERO PUSH2 0x13EB JUMPI DUP2 MLOAD ISZERO PUSH2 0x139B JUMPI DUP4 MLOAD ISZERO PUSH2 0x134B JUMPI DUP5 MLOAD ISZERO PUSH2 0x12F5 JUMPI PUSH1 0x40 MLOAD PUSH1 0x20 DUP2 DUP8 MLOAD PUSH2 0xAE8 DUP2 DUP4 DUP6 DUP13 ADD PUSH2 0x1703 JUMP JUMPDEST DUP2 ADD PUSH1 0x5 DUP2 MSTORE SUB ADD SWAP1 KECCAK256 SLOAD PUSH2 0x12B0 JUMPI PUSH1 0x2 SLOAD SWAP6 PUSH1 0x0 NOT DUP8 EQ PUSH2 0x129A JUMPI PUSH1 0x1 DUP8 ADD PUSH1 0x2 SSTORE PUSH1 0x40 MLOAD SWAP2 PUSH2 0xB18 DUP4 PUSH2 0x1670 JUMP JUMPDEST PUSH1 0x1 DUP9 ADD DUP4 MSTORE PUSH1 0x1 DUP1 PUSH1 0xA0 SHL SUB DUP6 AND PUSH1 0x20 DUP5 ADD MSTORE DUP4 PUSH1 0x40 DUP5 ADD MSTORE DUP6 PUSH1 0x60 DUP5 ADD MSTORE TIMESTAMP PUSH1 0x80 DUP5 ADD MSTORE PUSH1 0x1 PUSH1 0xA0 DUP5 ADD MSTORE DUP7 PUSH1 0xC0 DUP5 ADD MSTORE PUSH1 0xE0 DUP4 ADD MSTORE PUSH1 0xA4 CALLDATALOAD PUSH2 0x100 DUP4 ADD MSTORE PUSH2 0x120 DUP3 ADD MSTORE PUSH1 0x1 DUP7 ADD PUSH1 0x0 MSTORE PUSH1 0x3 PUSH1 0x20 MSTORE PUSH1 0x40 PUSH1 0x0 KECCAK256 SWAP1 DUP1 MLOAD DUP3 SSTORE PUSH1 0x1 DUP3 ADD PUSH1 0x1 DUP1 PUSH1 0xA0 SHL SUB PUSH1 0x20 DUP4 ADD MLOAD AND PUSH12 0xFFFFFFFFFFFFFFFFFFFFFFFF PUSH1 0xA0 SHL DUP3 SLOAD AND OR SWAP1 SSTORE PUSH1 0x40 DUP2 ADD MLOAD DUP1 MLOAD SWAP1 PUSH1 0x1 PUSH1 0x1 PUSH1 0x40 SHL SUB DUP3 GT PUSH2 0xE8C JUMPI DUP2 SWAP1 PUSH2 0xBC1 PUSH1 0x2 DUP7 ADD SLOAD PUSH2 0x1779 JUMP JUMPDEST PUSH1 0x1F DUP2 GT PUSH2 0x1247 JUMPI JUMPDEST POP PUSH1 0x20 SWAP1 PUSH1 0x1F DUP4 GT PUSH1 0x1 EQ PUSH2 0x11D5 JUMPI PUSH1 0x0 SWAP3 PUSH2 0x11CA JUMPI JUMPDEST POP POP DUP2 PUSH1 0x1 SHL SWAP2 PUSH1 0x0 NOT SWAP1 PUSH1 0x3 SHL SHR NOT AND OR PUSH1 0x2 DUP4 ADD SSTORE JUMPDEST PUSH1 0x60 DUP2 ADD MLOAD DUP1 MLOAD SWAP1 PUSH1 0x1 PUSH1 0x1 PUSH1 0x40 SHL SUB DUP3 GT PUSH2 0xE8C JUMPI DUP2 SWAP1 PUSH2 0xC1E PUSH1 0x3 DUP7 ADD SLOAD PUSH2 0x1779 JUMP JUMPDEST PUSH1 0x1F DUP2 GT PUSH2 0x1177 JUMPI JUMPDEST POP PUSH1 0x20 SWAP1 PUSH1 0x1F DUP4 GT PUSH1 0x1 EQ PUSH2 0x1105 JUMPI PUSH1 0x0 SWAP3 PUSH2 0x10FA JUMPI JUMPDEST POP POP DUP2 PUSH1 0x1 SHL SWAP2 PUSH1 0x0 NOT SWAP1 PUSH1 0x3 SHL SHR NOT AND OR PUSH1 0x3 DUP4 ADD SSTORE JUMPDEST PUSH1 0x80 DUP2 ADD MLOAD PUSH1 0x4 DUP4 ADD SSTORE PUSH1 0x5 DUP3 ADD PUSH1 0xA0 DUP3 ADD MLOAD ISZERO ISZERO PUSH1 0xFF DUP1 NOT DUP4 SLOAD AND SWAP2 AND OR SWAP1 SSTORE PUSH1 0xC0 DUP2 ADD MLOAD DUP1 MLOAD SWAP1 PUSH1 0x1 PUSH1 0x1 PUSH1 0x40 SHL SUB DUP3 GT PUSH2 0xE8C JUMPI DUP2 SWAP1 PUSH2 0xC9C PUSH1 0x6 DUP7 ADD SLOAD PUSH2 0x1779 JUMP JUMPDEST PUSH1 0x1F DUP2 GT PUSH2 0x10A7 JUMPI JUMPDEST POP PUSH1 0x20 SWAP1 PUSH1 0x1F DUP4 GT PUSH1 0x1 EQ PUSH2 0x1035 JUMPI PUSH1 0x0 SWAP3 PUSH2 0x102A JUMPI JUMPDEST POP POP DUP2 PUSH1 0x1 SHL SWAP2 PUSH1 0x0 NOT SWAP1 PUSH1 0x3 SHL SHR NOT AND OR PUSH1 0x6 DUP4 ADD SSTORE JUMPDEST PUSH1 0xE0 DUP2 ADD MLOAD DUP1 MLOAD SWAP1 PUSH1 0x1 PUSH1 0x1 PUSH1 0x40 SHL SUB DUP3 GT PUSH2 0xE8C JUMPI PUSH2 0xCF7 PUSH1 0x7 DUP6 ADD SLOAD PUSH2 0x1779 JUMP JUMPDEST PUSH1 0x1F DUP2 GT PUSH2 0xFE3 JUMPI JUMPDEST POP PUSH1 0x20 SWAP1 PUSH1 0x1F DUP4 GT PUSH1 0x1 EQ PUSH2 0xF6F JUMPI PUSH2 0x120 SWAP4 SWAP3 SWAP2 PUSH1 0x0 SWAP2 DUP4 PUSH2 0xF64 JUMPI JUMPDEST POP POP DUP2 PUSH1 0x1 SHL SWAP2 PUSH1 0x0 NOT SWAP1 PUSH1 0x3 SHL SHR NOT AND OR PUSH1 0x7 DUP5 ADD SSTORE JUMPDEST PUSH2 0x100 DUP2 ADD MLOAD PUSH1 0x8 DUP5 ADD SSTORE ADD MLOAD DUP1 MLOAD SWAP1 PUSH1 0x1 PUSH1 0x1 PUSH1 0x40 SHL SUB DUP3 GT PUSH2 0xE8C JUMPI PUSH2 0xD61 PUSH1 0x9 DUP5 ADD SLOAD PUSH2 0x1779 JUMP JUMPDEST PUSH1 0x1F DUP2 GT PUSH2 0xF1D JUMPI JUMPDEST POP PUSH1 0x20 SWAP1 PUSH1 0x1F DUP4 GT PUSH1 0x1 EQ PUSH2 0xEAD JUMPI PUSH1 0x9 SWAP3 SWAP2 PUSH1 0x0 SWAP2 DUP4 PUSH2 0xEA2 JUMPI JUMPDEST POP POP DUP2 PUSH1 0x1 SHL SWAP2 PUSH1 0x0 NOT SWAP1 PUSH1 0x3 SHL SHR NOT AND OR SWAP2 ADD SSTORE JUMPDEST PUSH1 0x1 DUP1 PUSH1 0xA0 SHL SUB DUP3 AND PUSH1 0x0 MSTORE PUSH1 0x4 PUSH1 0x20 MSTORE PUSH1 0x40 PUSH1 0x0 KECCAK256 SWAP3 DUP4 SLOAD SWAP3 PUSH9 0x10000000000000000 DUP5 LT ISZERO PUSH2 0xE8C JUMPI PUSH1 0x1 PUSH2 0xE65 PUSH2 0xE83 SWAP4 PUSH2 0xE03 DUP8 PUSH32 0x114D42843A4D26A175DDFF2AAEF98EAA2CA9366BBC0298E44EB6DE5399E13093 SWAP10 DUP6 PUSH2 0xE57 SWAP11 ADD DUP2 SSTORE PUSH2 0x174B JUMP JUMPDEST DUP2 SLOAD SWAP1 PUSH1 0x3 SHL SWAP1 DUP6 DUP14 ADD DUP3 SHL SWAP2 PUSH1 0x0 NOT SWAP1 SHL NOT AND OR SWAP1 SSTORE DUP10 PUSH2 0xE35 PUSH1 0x20 DUP12 DUP7 DUP3 PUSH1 0x40 MLOAD SWAP5 DUP4 DUP7 DUP1 SWAP6 MLOAD SWAP4 DUP5 SWAP3 ADD PUSH2 0x1703 JUMP JUMPDEST DUP3 ADD SWAP5 PUSH1 0x5 DUP7 MSTORE ADD SWAP4 SUB ADD SWAP1 KECCAK256 SSTORE PUSH1 0x40 MLOAD SWAP7 DUP8 SWAP7 PUSH1 0x80 DUP9 MSTORE PUSH1 0x80 DUP9 ADD SWAP1 PUSH2 0x1726 JUMP JUMPDEST SWAP1 DUP7 DUP3 SUB PUSH1 0x20 DUP9 ADD MSTORE PUSH2 0x1726 JUMP JUMPDEST SWAP2 TIMESTAMP PUSH1 0x40 DUP7 ADD MSTORE DUP5 DUP4 SUB PUSH1 0x60 DUP7 ADD MSTORE DUP2 DUP1 PUSH1 0xA0 SHL SUB AND SWAP8 ADD SWAP6 PUSH2 0x1726 JUMP JUMPDEST SUB SWAP1 LOG3 PUSH1 0x1 DUP1 SSTORE STOP JUMPDEST PUSH4 0x4E487B71 PUSH1 0xE0 SHL PUSH1 0x0 MSTORE PUSH1 0x41 PUSH1 0x4 MSTORE PUSH1 0x24 PUSH1 0x0 REVERT JUMPDEST ADD MLOAD SWAP1 POP DUP10 DUP1 PUSH2 0xD86 JUMP JUMPDEST SWAP1 PUSH1 0x9 DUP5 ADD PUSH1 0x0 MSTORE PUSH1 0x20 PUSH1 0x0 KECCAK256 SWAP2 PUSH1 0x0 JUMPDEST PUSH1 0x1F NOT DUP6 AND DUP2 LT PUSH2 0xF05 JUMPI POP SWAP2 DUP4 SWAP2 PUSH1 0x1 SWAP4 PUSH1 0x9 SWAP6 PUSH1 0x1F NOT DUP2 AND LT PUSH2 0xEEC JUMPI JUMPDEST POP POP POP DUP2 SHL ADD SWAP2 ADD SSTORE PUSH2 0xD9C JUMP JUMPDEST ADD MLOAD PUSH1 0x0 NOT PUSH1 0xF8 DUP5 PUSH1 0x3 SHL AND SHR NOT AND SWAP1 SSTORE DUP10 DUP1 DUP1 PUSH2 0xEDE JUMP JUMPDEST SWAP2 SWAP3 PUSH1 0x20 PUSH1 0x1 DUP2 SWAP3 DUP7 DUP6 ADD MLOAD DUP2 SSTORE ADD SWAP5 ADD SWAP3 ADD PUSH2 0xEBE JUMP JUMPDEST PUSH1 0x9 DUP5 ADD PUSH1 0x0 MSTORE PUSH1 0x20 PUSH1 0x0 KECCAK256 PUSH1 0x1F DUP5 ADD PUSH1 0x5 SHR DUP2 ADD PUSH1 0x20 DUP6 LT PUSH2 0xF5D JUMPI JUMPDEST PUSH1 0x1F DUP4 ADD PUSH1 0x5 SHR DUP3 ADD DUP2 LT PUSH2 0xF51 JUMPI POP POP PUSH2 0xD6A JUMP JUMPDEST PUSH1 0x0 DUP2 SSTORE PUSH1 0x1 ADD PUSH2 0xF3B JUMP JUMPDEST POP DUP1 PUSH2 0xF3B JUMP JUMPDEST ADD MLOAD SWAP1 POP DUP11 DUP1 PUSH2 0xD1E JUMP JUMPDEST SWAP1 PUSH1 0x7 DUP6 ADD PUSH1 0x0 MSTORE PUSH1 0x20 PUSH1 0x0 KECCAK256 SWAP2 PUSH1 0x0 JUMPDEST PUSH1 0x1F NOT DUP6 AND DUP2 LT PUSH2 0xFCB JUMPI POP SWAP2 DUP4 SWAP2 PUSH1 0x1 SWAP4 PUSH2 0x120 SWAP7 SWAP6 PUSH1 0x1F NOT DUP2 AND LT PUSH2 0xFB2 JUMPI JUMPDEST POP POP POP DUP2 SHL ADD PUSH1 0x7 DUP5 ADD SSTORE PUSH2 0xD36 JUMP JUMPDEST ADD MLOAD PUSH1 0x0 NOT PUSH1 0xF8 DUP5 PUSH1 0x3 SHL AND SHR NOT AND SWAP1 SSTORE DUP11 DUP1 DUP1 PUSH2 0xFA2 JUMP JUMPDEST SWAP2 SWAP3 PUSH1 0x20 PUSH1 0x1 DUP2 SWAP3 DUP7 DUP6 ADD MLOAD DUP2 SSTORE ADD SWAP5 ADD SWAP3 ADD PUSH2 0xF80 JUMP JUMPDEST PUSH1 0x7 DUP6 ADD PUSH1 0x0 MSTORE PUSH1 0x20 PUSH1 0x0 KECCAK256 PUSH1 0x1F DUP5 ADD PUSH1 0x5 SHR DUP2 ADD PUSH1 0x20 DUP6 LT PUSH2 0x1023 JUMPI JUMPDEST PUSH1 0x1F DUP4 ADD PUSH1 0x5 SHR DUP3 ADD DUP2 LT PUSH2 0x1017 JUMPI POP POP PUSH2 0xD00 JUMP JUMPDEST PUSH1 0x0 DUP2 SSTORE PUSH1 0x1 ADD PUSH2 0x1001 JUMP JUMPDEST POP DUP1 PUSH2 0x1001 JUMP JUMPDEST ADD MLOAD SWAP1 POP DUP10 DUP1 PUSH2 0xCBC JUMP JUMPDEST SWAP3 POP PUSH1 0x6 DUP6 ADD PUSH1 0x0 MSTORE PUSH1 0x20 PUSH1 0x0 KECCAK256 SWAP1 PUSH1 0x0 SWAP4 JUMPDEST PUSH1 0x1F NOT DUP5 AND DUP6 LT PUSH2 0x108C JUMPI PUSH1 0x1 SWAP5 POP DUP4 PUSH1 0x1F NOT DUP2 AND LT PUSH2 0x1073 JUMPI JUMPDEST POP POP POP DUP2 SHL ADD PUSH1 0x6 DUP4 ADD SSTORE PUSH2 0xCD4 JUMP JUMPDEST ADD MLOAD PUSH1 0x0 NOT PUSH1 0xF8 DUP5 PUSH1 0x3 SHL AND SHR NOT AND SWAP1 SSTORE DUP10 DUP1 DUP1 PUSH2 0x1063 JUMP JUMPDEST DUP2 DUP2 ADD MLOAD DUP4 SSTORE PUSH1 0x20 SWAP5 DUP6 ADD SWAP5 PUSH1 0x1 SWAP1 SWAP4 ADD SWAP3 SWAP1 SWAP2 ADD SWAP1 PUSH2 0x1048 JUMP JUMPDEST SWAP1 SWAP2 POP PUSH1 0x6 DUP6 ADD PUSH1 0x0 MSTORE PUSH1 0x20 PUSH1 0x0 KECCAK256 PUSH1 0x1F DUP5 ADD PUSH1 0x5 SHR DUP2 ADD PUSH1 0x20 DUP6 LT PUSH2 0x10F3 JUMPI JUMPDEST SWAP1 DUP5 SWAP4 SWAP3 SWAP2 JUMPDEST PUSH1 0x1F DUP4 ADD PUSH1 0x5 SHR DUP3 ADD DUP2 LT PUSH2 0x10E4 JUMPI POP POP PUSH2 0xCA5 JUMP JUMPDEST PUSH1 0x0 DUP2 SSTORE DUP6 SWAP5 POP PUSH1 0x1 ADD PUSH2 0x10CE JUMP JUMPDEST POP DUP1 PUSH2 0x10C8 JUMP JUMPDEST ADD MLOAD SWAP1 POP DUP10 DUP1 PUSH2 0xC3E JUMP JUMPDEST SWAP3 POP PUSH1 0x3 DUP6 ADD PUSH1 0x0 MSTORE PUSH1 0x20 PUSH1 0x0 KECCAK256 SWAP1 PUSH1 0x0 SWAP4 JUMPDEST PUSH1 0x1F NOT DUP5 AND DUP6 LT PUSH2 0x115C JUMPI PUSH1 0x1 SWAP5 POP DUP4 PUSH1 0x1F NOT DUP2 AND LT PUSH2 0x1143 JUMPI JUMPDEST POP POP POP DUP2 SHL ADD PUSH1 0x3 DUP4 ADD SSTORE PUSH2 0xC56 JUMP JUMPDEST ADD MLOAD PUSH1 0x0 NOT PUSH1 0xF8 DUP5 PUSH1 0x3 SHL AND SHR NOT AND SWAP1 SSTORE DUP10 DUP1 DUP1 PUSH2 0x1133 JUMP JUMPDEST DUP2 DUP2 ADD MLOAD DUP4 SSTORE PUSH1 0x20 SWAP5 DUP6 ADD SWAP5 PUSH1 0x1 SWAP1 SWAP4 ADD SWAP3 SWAP1 SWAP2 ADD SWAP1 PUSH2 0x1118 JUMP JUMPDEST SWAP1 SWAP2 POP PUSH1 0x3 DUP6 ADD PUSH1 0x0 MSTORE PUSH1 0x20 PUSH1 0x0 KECCAK256 PUSH1 0x1F DUP5 ADD PUSH1 0x5 SHR DUP2 ADD PUSH1 0x20 DUP6 LT PUSH2 0x11C3 JUMPI JUMPDEST SWAP1 DUP5 SWAP4 SWAP3 SWAP2 JUMPDEST PUSH1 0x1F DUP4 ADD PUSH1 0x5 SHR DUP3 ADD DUP2 LT PUSH2 0x11B4 JUMPI POP POP PUSH2 0xC27 JUMP JUMPDEST PUSH1 0x0 DUP2 SSTORE DUP6 SWAP5 POP PUSH1 0x1 ADD PUSH2 0x119E JUMP JUMPDEST POP DUP1 PUSH2 0x1198 JUMP JUMPDEST ADD MLOAD SWAP1 POP DUP10 DUP1 PUSH2 0xBE1 JUMP JUMPDEST SWAP3 POP PUSH1 0x2 DUP6 ADD PUSH1 0x0 MSTORE PUSH1 0x20 PUSH1 0x0 KECCAK256 SWAP1 PUSH1 0x0 SWAP4 JUMPDEST PUSH1 0x1F NOT DUP5 AND DUP6 LT PUSH2 0x122C JUMPI PUSH1 0x1 SWAP5 POP DUP4 PUSH1 0x1F NOT DUP2 AND LT PUSH2 0x1213 JUMPI JUMPDEST POP POP POP DUP2 SHL ADD PUSH1 0x2 DUP4 ADD SSTORE PUSH2 0xBF9 JUMP JUMPDEST ADD MLOAD PUSH1 0x0 NOT PUSH1 0xF8 DUP5 PUSH1 0x3 SHL AND SHR NOT AND SWAP1 SSTORE DUP10 DUP1 DUP1 PUSH2 0x1203 JUMP JUMPDEST DUP2 DUP2 ADD MLOAD DUP4 SSTORE PUSH1 0x20 SWAP5 DUP6 ADD SWAP5 PUSH1 0x1 SWAP1 SWAP4 ADD SWAP3 SWAP1 SWAP2 ADD SWAP1 PUSH2 0x11E8 JUMP JUMPDEST SWAP1 SWAP2 POP PUSH1 0x2 DUP6 ADD PUSH1 0x0 MSTORE PUSH1 0x20 PUSH1 0x0 KECCAK256 PUSH1 0x1F DUP5 ADD PUSH1 0x5 SHR DUP2 ADD PUSH1 0x20 DUP6 LT PUSH2 0x1293 JUMPI JUMPDEST SWAP1 DUP5 SWAP4 SWAP3 SWAP2 JUMPDEST PUSH1 0x1F DUP4 ADD PUSH1 0x5 SHR DUP3 ADD DUP2 LT PUSH2 0x1284 JUMPI POP POP PUSH2 0xBCA JUMP JUMPDEST PUSH1 0x0 DUP2 SSTORE DUP6 SWAP5 POP PUSH1 0x1 ADD PUSH2 0x126E JUMP JUMPDEST POP DUP1 PUSH2 0x1268 JUMP JUMPDEST PUSH4 0x4E487B71 PUSH1 0xE0 SHL PUSH1 0x0 MSTORE PUSH1 0x11 PUSH1 0x4 MSTORE PUSH1 0x24 PUSH1 0x0 REVERT JUMPDEST PUSH1 0x40 MLOAD PUSH3 0x461BCD PUSH1 0xE5 SHL DUP2 MSTORE PUSH1 0x20 PUSH1 0x4 DUP3 ADD MSTORE PUSH1 0x1D PUSH1 0x24 DUP3 ADD MSTORE PUSH32 0x4861736820646F20636572746966696361646F206A6120657869737465000000 PUSH1 0x44 DUP3 ADD MSTORE PUSH1 0x64 SWAP1 REVERT JUMPDEST PUSH1 0x40 MLOAD PUSH3 0x461BCD PUSH1 0xE5 SHL DUP2 MSTORE PUSH1 0x20 PUSH1 0x4 DUP3 ADD MSTORE PUSH1 0x28 PUSH1 0x24 DUP3 ADD MSTORE PUSH32 0x4861736820646F20636572746966696361646F206E616F20706F646520657374 PUSH1 0x44 DUP3 ADD MSTORE PUSH8 0x61722076617A696F PUSH1 0xC0 SHL PUSH1 0x64 DUP3 ADD MSTORE PUSH1 0x84 SWAP1 REVERT JUMPDEST PUSH1 0x40 MLOAD PUSH3 0x461BCD PUSH1 0xE5 SHL DUP2 MSTORE PUSH1 0x20 PUSH1 0x4 DUP3 ADD MSTORE PUSH1 0x22 PUSH1 0x24 DUP3 ADD MSTORE PUSH32 0x4E6F6D6520646F20637572736F206E616F20706F64652065737461722076617A PUSH1 0x44 DUP3 ADD MSTORE PUSH2 0x696F PUSH1 0xF0 SHL PUSH1 0x64 DUP3 ADD MSTORE PUSH1 0x84 SWAP1 REVERT JUMPDEST PUSH1 0x40 MLOAD PUSH3 0x461BCD PUSH1 0xE5 SHL DUP2 MSTORE PUSH1 0x20 PUSH1 0x4 DUP3 ADD MSTORE PUSH1 0x22 PUSH1 0x24 DUP3 ADD MSTORE PUSH32 0x4E6F6D6520646F20616C756E6F206E616F20706F64652065737461722076617A PUSH1 0x44 DUP3 ADD MSTORE PUSH2 0x696F PUSH1 0xF0 SHL PUSH1 0x64 DUP3 ADD MSTORE PUSH1 0x84 SWAP1 REVERT JUMPDEST PUSH1 0x40 MLOAD PUSH3 0x461BCD PUSH1 0xE5 SHL DUP2 MSTORE PUSH1 0x20 PUSH1 0x4 DUP3 ADD MSTORE PUSH1 0x1A PUSH1 0x24 DUP3 ADD MSTORE PUSH32 0x456E64657265636F20646F20616C756E6F20696E76616C69646F000000000000 PUSH1 0x44 DUP3 ADD MSTORE PUSH1 0x64 SWAP1 REVERT JUMPDEST PUSH1 0x40 MLOAD PUSH4 0x3EE5AEB5 PUSH1 0xE0 SHL DUP2 MSTORE PUSH1 0x4 SWAP1 REVERT JUMPDEST POP CALLER PUSH1 0x0 SWAP1 DUP2 MSTORE PUSH1 0x6 PUSH1 0x20 MSTORE PUSH1 0x40 SWAP1 KECCAK256 SLOAD PUSH1 0xFF AND PUSH2 0xA8F JUMP JUMPDEST CALLVALUE PUSH2 0x191 JUMPI PUSH1 0x20 CALLDATASIZE PUSH1 0x3 NOT ADD SLT PUSH2 0x191 JUMPI PUSH1 0x1 PUSH1 0x1 PUSH1 0xA0 SHL SUB PUSH2 0x147C PUSH2 0x165A JUMP JUMPDEST AND PUSH1 0x0 MSTORE PUSH1 0x4 PUSH1 0x20 MSTORE PUSH1 0x20 PUSH1 0x40 PUSH1 0x0 KECCAK256 SLOAD PUSH1 0x40 MLOAD SWAP1 DUP2 MSTORE RETURN JUMPDEST CALLVALUE PUSH2 0x191 JUMPI PUSH1 0x0 CALLDATASIZE PUSH1 0x3 NOT ADD SLT PUSH2 0x191 JUMPI PUSH2 0x14AE PUSH2 0x1859 JUMP JUMPDEST PUSH2 0x14B6 PUSH2 0x18E9 JUMP JUMPDEST PUSH1 0x0 DUP1 SLOAD PUSH1 0xFF PUSH1 0xA0 SHL NOT AND PUSH1 0x1 PUSH1 0xA0 SHL OR SWAP1 SSTORE PUSH1 0x40 MLOAD CALLER DUP2 MSTORE PUSH32 0x62E78CEA01BEE320CD4E420270B5EA74000D11B0C9F74754EBDBFC544B05A258 SWAP1 PUSH1 0x20 SWAP1 LOG1 STOP JUMPDEST CALLVALUE PUSH2 0x191 JUMPI PUSH1 0x20 CALLDATASIZE PUSH1 0x3 NOT ADD SLT PUSH2 0x191 JUMPI PUSH2 0x1510 PUSH2 0x165A JUMP JUMPDEST PUSH1 0x0 SLOAD PUSH1 0x1 PUSH1 0x1 PUSH1 0xA0 SHL SUB SWAP2 DUP3 AND SWAP2 AND DUP2 EQ DUP1 ISZERO PUSH2 0x1536 JUMPI JUMPDEST PUSH1 0x20 SWAP1 PUSH1 0x40 MLOAD SWAP1 ISZERO ISZERO DUP2 MSTORE RETURN JUMPDEST POP PUSH1 0x0 MSTORE PUSH1 0x6 PUSH1 0x20 MSTORE PUSH1 0x20 PUSH1 0xFF PUSH1 0x40 PUSH1 0x0 KECCAK256 SLOAD AND PUSH2 0x1529 JUMP JUMPDEST CALLVALUE PUSH2 0x191 JUMPI PUSH1 0x20 CALLDATASIZE PUSH1 0x3 NOT ADD SLT PUSH2 0x191 JUMPI PUSH2 0x1568 PUSH2 0x165A JUMP JUMPDEST PUSH2 0x1570 PUSH2 0x1859 JUMP JUMPDEST PUSH1 0x0 SLOAD PUSH1 0x1 PUSH1 0x1 PUSH1 0xA0 SHL SUB SWAP2 DUP3 AND SWAP2 AND DUP2 EQ PUSH2 0x1615 JUMPI DUP1 PUSH1 0x0 MSTORE PUSH1 0x6 PUSH1 0x20 MSTORE PUSH1 0xFF PUSH1 0x40 PUSH1 0x0 KECCAK256 SLOAD AND ISZERO PUSH2 0x15DA JUMPI DUP1 PUSH1 0x0 MSTORE PUSH1 0x6 PUSH1 0x20 MSTORE PUSH1 0x40 PUSH1 0x0 KECCAK256 PUSH1 0xFF NOT DUP2 SLOAD AND SWAP1 SSTORE PUSH32 0x50C01F91794464F9157B93978F39E7178094B03A3EEC3DCCB3337DAACB380762 PUSH1 0x0 DUP1 LOG2 STOP JUMPDEST PUSH1 0x40 MLOAD PUSH3 0x461BCD PUSH1 0xE5 SHL DUP2 MSTORE PUSH1 0x20 PUSH1 0x4 DUP3 ADD MSTORE PUSH1 0x13 PUSH1 0x24 DUP3 ADD MSTORE PUSH19 0x2730B790329030B236B4B734B9BA3930B237B9 PUSH1 0x69 SHL PUSH1 0x44 DUP3 ADD MSTORE PUSH1 0x64 SWAP1 REVERT JUMPDEST PUSH1 0x40 MLOAD PUSH3 0x461BCD PUSH1 0xE5 SHL DUP2 MSTORE PUSH1 0x20 PUSH1 0x4 DUP3 ADD MSTORE PUSH1 0x18 PUSH1 0x24 DUP3 ADD MSTORE PUSH32 0x4E616F20706F64652072656D6F766572206F206F776E65720000000000000000 PUSH1 0x44 DUP3 ADD MSTORE PUSH1 0x64 SWAP1 REVERT JUMPDEST PUSH1 0x4 CALLDATALOAD SWAP1 PUSH1 0x1 PUSH1 0x1 PUSH1 0xA0 SHL SUB DUP3 AND DUP3 SUB PUSH2 0x191 JUMPI JUMP JUMPDEST PUSH2 0x140 DUP2 ADD SWAP1 DUP2 LT PUSH1 0x1 PUSH1 0x1 PUSH1 0x40 SHL SUB DUP3 GT OR PUSH2 0xE8C JUMPI PUSH1 0x40 MSTORE JUMP JUMPDEST SWAP1 PUSH1 0x1F DUP1 NOT SWAP2 ADD AND DUP2 ADD SWAP1 DUP2 LT PUSH1 0x1 PUSH1 0x1 PUSH1 0x40 SHL SUB DUP3 GT OR PUSH2 0xE8C JUMPI PUSH1 0x40 MSTORE JUMP JUMPDEST DUP2 PUSH1 0x1F DUP3 ADD SLT ISZERO PUSH2 0x191 JUMPI DUP1 CALLDATALOAD SWAP1 PUSH1 0x1 PUSH1 0x1 PUSH1 0x40 SHL SUB DUP3 GT PUSH2 0xE8C JUMPI PUSH1 0x40 MLOAD SWAP3 PUSH2 0x16E1 PUSH1 0x1F DUP5 ADD PUSH1 0x1F NOT AND PUSH1 0x20 ADD DUP6 PUSH2 0x168C JUMP JUMPDEST DUP3 DUP5 MSTORE PUSH1 0x20 DUP4 DUP4 ADD ADD GT PUSH2 0x191 JUMPI DUP2 PUSH1 0x0 SWAP3 PUSH1 0x20 DUP1 SWAP4 ADD DUP4 DUP7 ADD CALLDATACOPY DUP4 ADD ADD MSTORE SWAP1 JUMP JUMPDEST PUSH1 0x0 JUMPDEST DUP4 DUP2 LT PUSH2 0x1716 JUMPI POP POP PUSH1 0x0 SWAP2 ADD MSTORE JUMP JUMPDEST DUP2 DUP2 ADD MLOAD DUP4 DUP3 ADD MSTORE PUSH1 0x20 ADD PUSH2 0x1706 JUMP JUMPDEST SWAP1 PUSH1 0x20 SWAP2 PUSH2 0x173F DUP2 MLOAD DUP1 SWAP3 DUP2 DUP6 MSTORE DUP6 DUP1 DUP7 ADD SWAP2 ADD PUSH2 0x1703 JUMP JUMPDEST PUSH1 0x1F ADD PUSH1 0x1F NOT AND ADD ADD SWAP1 JUMP JUMPDEST DUP1 SLOAD DUP3 LT ISZERO PUSH2 0x1763 JUMPI PUSH1 0x0 MSTORE PUSH1 0x20 PUSH1 0x0 KECCAK256 ADD SWAP1 PUSH1 0x0 SWAP1 JUMP JUMPDEST PUSH4 0x4E487B71 PUSH1 0xE0 SHL PUSH1 0x0 MSTORE PUSH1 0x32 PUSH1 0x4 MSTORE PUSH1 0x24 PUSH1 0x0 REVERT JUMPDEST SWAP1 PUSH1 0x1 DUP3 DUP2 SHR SWAP3 AND DUP1 ISZERO PUSH2 0x17A9 JUMPI JUMPDEST PUSH1 0x20 DUP4 LT EQ PUSH2 0x1793 JUMPI JUMP JUMPDEST PUSH4 0x4E487B71 PUSH1 0xE0 SHL PUSH1 0x0 MSTORE PUSH1 0x22 PUSH1 0x4 MSTORE PUSH1 0x24 PUSH1 0x0 REVERT JUMPDEST SWAP2 PUSH1 0x7F AND SWAP2 PUSH2 0x1788 JUMP JUMPDEST SWAP1 PUSH1 0x40 MLOAD SWAP2 DUP3 PUSH1 0x0 DUP3 SLOAD SWAP3 PUSH2 0x17C7 DUP5 PUSH2 0x1779 JUMP JUMPDEST SWAP1 DUP2 DUP5 MSTORE PUSH1 0x1 SWAP5 DUP6 DUP2 AND SWAP1 DUP2 PUSH1 0x0 EQ PUSH2 0x1836 JUMPI POP PUSH1 0x1 EQ PUSH2 0x17F3 JUMPI JUMPDEST POP POP PUSH2 0x17F1 SWAP3 POP SUB DUP4 PUSH2 0x168C JUMP JUMPDEST JUMP JUMPDEST SWAP1 SWAP4 SWAP2 POP PUSH1 0x0 MSTORE PUSH1 0x20 SWAP1 DUP2 PUSH1 0x0 KECCAK256 SWAP4 PUSH1 0x0 SWAP2 JUMPDEST DUP2 DUP4 LT PUSH2 0x181E JUMPI POP POP PUSH2 0x17F1 SWAP4 POP DUP3 ADD ADD CODESIZE DUP1 PUSH2 0x17E3 JUMP JUMPDEST DUP6 SLOAD DUP9 DUP5 ADD DUP6 ADD MSTORE SWAP5 DUP6 ADD SWAP5 DUP8 SWAP5 POP SWAP2 DUP4 ADD SWAP2 PUSH2 0x1806 JUMP JUMPDEST SWAP2 POP POP PUSH2 0x17F1 SWAP5 POP PUSH1 0x20 SWAP3 POP PUSH1 0xFF NOT AND DUP3 DUP5 ADD MSTORE ISZERO ISZERO PUSH1 0x5 SHL DUP3 ADD ADD CODESIZE DUP1 PUSH2 0x17E3 JUMP JUMPDEST PUSH1 0x0 SLOAD PUSH1 0x1 PUSH1 0x1 PUSH1 0xA0 SHL SUB AND CALLER SUB PUSH2 0x186D JUMPI JUMP JUMPDEST PUSH1 0x40 MLOAD PUSH4 0x118CDAA7 PUSH1 0xE0 SHL DUP2 MSTORE CALLER PUSH1 0x4 DUP3 ADD MSTORE PUSH1 0x24 SWAP1 REVERT JUMPDEST ISZERO PUSH2 0x188C JUMPI JUMP JUMPDEST PUSH1 0x40 MLOAD PUSH3 0x461BCD PUSH1 0xE5 SHL DUP2 MSTORE PUSH1 0x20 PUSH1 0x4 DUP3 ADD MSTORE PUSH1 0x2F PUSH1 0x24 DUP3 ADD MSTORE PUSH32 0x4170656E61732061646D696E6973747261646F72657320706F64656D20657865 PUSH1 0x44 DUP3 ADD MSTORE PUSH15 0x63757461722065737461206163616F PUSH1 0x88 SHL PUSH1 0x64 DUP3 ADD MSTORE PUSH1 0x84 SWAP1 REVERT JUMPDEST PUSH1 0xFF PUSH1 0x0 SLOAD PUSH1 0xA0 SHR AND PUSH2 0x18F8 JUMPI JUMP JUMPDEST PUSH1 0x40 MLOAD PUSH4 0xD93C0665 PUSH1 0xE0 SHL DUP2 MSTORE PUSH1 0x4 SWAP1 REVERT JUMPDEST ISZERO PUSH2 0x1911 JUMPI JUMP JUMPDEST PUSH1 0x40 MLOAD PUSH3 0x461BCD PUSH1 0xE5 SHL DUP2 MSTORE PUSH1 0x20 PUSH1 0x4 DUP3 ADD MSTORE PUSH1 0x16 PUSH1 0x24 DUP3 ADD MSTORE PUSH22 0x436572746966696361646F206E616F20657869737465 PUSH1 0x50 SHL PUSH1 0x44 DUP3 ADD MSTORE PUSH1 0x64 SWAP1 REVERT INVALID LOG2 PUSH5 0x6970667358 0x22 SLT KECCAK256 0x2A CODECOPY PUSH6 0x7E2D8EFBE879 0xB8 0xF7 PUSH4 0x709AB724 PUSH4 0x423307A3 0xCC 0x4F 0xEF GT PUSH15 0x8F016937F83964736F6C6343000814 STOP CALLER "},"methodIdentifiers":{"adicionarAdministrador(address)":"d4c40d21","administradores(address)":"d449dc54","certificados(uint256)":"8e59bb48","certificadosPorAluno(address,uint256)":"61ce7165","despausarContrato()":"38d5c916","emitirCertificado(address,string,string,string,string,uint256,string)":"339bfa15","hashParaId(string)":"63151b94","obterCertificado(uint256)":"4b38d874","obterCertificadosDoAluno(address)":"e64a02cd","obterQuantidadeCertificadosAluno(address)":"2ef2528c","obterTotalCertificados()":"6afef4ce","owner()":"8da5cb5b","pausarContrato()":"1a003ecb","paused()":"5c975abb","removerAdministrador(address)":"071c2ba7","renounceOwnership()":"715018a6","revogarCertificado(uint256)":"a93ecd41","transferOwnership(address)":"f2fde38b","verificarAdministrador(address)":"1535d4fa","verificarCertificadoPorHash(string)":"a29deac1","verificarValidadeCertificado(uint256)":"8430ac13"}}}}}