{
  "_format": "hh-sol-artifact-1",
  "contractName": "ContratoCertificados",
  "sourceName": "contracts/ContratoCertificados.sol",
  "abi": [
    {
      "inputs": [],
      "stateMutability": "nonpayable",
      "type": "constructor"
    },
    {
      "inputs": [],
      "name": "EnforcedPause",
      "type": "error"
    },
    {
      "inputs": [],
      "name": "ExpectedPause",
      "type": "error"
    },
    {
      "inputs": [
        {
          "internalType": "address",
          "name": "owner",
          "type": "address"
        }
      ],
      "name": "OwnableInvalidOwner",
      "type": "error"
    },
    {
      "inputs": [
        {
          "internalType": "address",
          "name": "account",
          "type": "address"
        }
      ],
      "name": "OwnableUnauthorizedAccount",
      "type": "error"
    },
    {
      "inputs": [],
      "name": "ReentrancyGuardReentrantCall",
      "type": "error"
    },
    {
      "anonymous": false,
      "inputs": [
        {
          "indexed": true,
          "internalType": "address",
          "name": "administrador",
          "type": "address"
        }
      ],
      "name": "AdministradorAdicionado",
      "type": "event"
    },
    {
      "anonymous": false,
      "inputs": [
        {
          "indexed": true,
          "internalType": "address",
          "name": "administrador",
          "type": "address"
        }
      ],
      "name": "AdministradorRemovido",
      "type": "event"
    },
    {
      "anonymous": false,
      "inputs": [
        {
          "indexed": true,
          "internalType": "uint256",
          "name": "idCertificado",
          "type": "uint256"
        },
        {
          "indexed": true,
          "internalType": "address",
          "name": "enderecoAluno",
          "type": "address"
        },
        {
          "indexed": false,
          "internalType": "string",
          "name": "nomeAluno",
          "type": "string"
        },
        {
          "indexed": false,
          "internalType": "string",
          "name": "nomeCurso",
          "type": "string"
        },
        {
          "indexed": false,
          "internalType": "uint256",
          "name": "dataEmissao",
          "type": "uint256"
        },
        {
          "indexed": false,
          "internalType": "string",
          "name": "hashCertificado",
          "type": "string"
        }
      ],
      "name": "CertificadoEmitido",
      "type": "event"
    },
    {
      "anonymous": false,
      "inputs": [
        {
          "indexed": true,
          "internalType": "uint256",
          "name": "idCertificado",
          "type": "uint256"
        },
        {
          "indexed": true,
          "internalType": "address",
          "name": "enderecoAluno",
          "type": "address"
        },
        {
          "indexed": false,
          "internalType": "uint256",
          "name": "dataRevogacao",
          "type": "uint256"
        }
      ],
      "name": "CertificadoRevogado",
      "type": "event"
    },
    {
      "anonymous": false,
      "inputs": [
        {
          "indexed": true,
          "internalType": "address",
          "name": "previousOwner",
          "type": "address"
        },
        {
          "indexed": true,
          "internalType": "address",
          "name": "newOwner",
          "type": "address"
        }
      ],
      "name": "OwnershipTransferred",
      "type": "event"
    },
    {
      "anonymous": false,
      "inputs": [
        {
          "indexed": false,
          "internalType": "address",
          "name": "account",
          "type": "address"
        }
      ],
      "name": "Paused",
      "type": "event"
    },
    {
      "anonymous": false,
      "inputs": [
        {
          "indexed": false,
          "internalType": "address",
          "name": "account",
          "type": "address"
        }
      ],
      "name": "Unpaused",
      "type": "event"
    },
    {
      "inputs": [
        {
          "internalType": "address",
          "name": "_novoAdministrador",
          "type": "address"
        }
      ],
      "name": "adicionarAdministrador",
      "outputs": [],
      "stateMutability": "nonpayable",
      "type": "function"
    },
    {
      "inputs": [
        {
          "internalType": "address",
          "name": "",
          "type": "address"
        }
      ],
      "name": "administradores",
      "outputs": [
        {
          "internalType": "bool",
          "name": "",
          "type": "bool"
        }
      ],
      "stateMutability": "view",
      "type": "function"
    },
    {
      "inputs": [
        {
          "internalType": "uint256",
          "name": "",
          "type": "uint256"
        }
      ],
      "name": "certificados",
      "outputs": [
        {
          "internalType": "uint256",
          "name": "id",
          "type": "uint256"
        },
        {
          "internalType": "address",
          "name": "enderecoAluno",
          "type": "address"
        },
        {
          "internalType": "string",
          "name": "nomeAluno",
          "type": "string"
        },
        {
          "internalType": "string",
          "name": "nomeCurso",
          "type": "string"
        },
        {
          "internalType": "uint256",
          "name": "dataEmissao",
          "type": "uint256"
        },
        {
          "internalType": "bool",
          "name": "valido",
          "type": "bool"
        },
        {
          "internalType": "string",
          "name": "hashCertificado",
          "type": "string"
        },
        {
          "internalType": "string",
          "name": "descricaoCurso",
          "type": "string"
        },
        {
          "internalType": "uint256",
          "name": "cargaHoraria",
          "type": "uint256"
        },
        {
          "internalType": "string",
          "name": "instituicaoEmissora",
          "type": "string"
        }
      ],
      "stateMutability": "view",
      "type": "function"
    },
    {
      "inputs": [
        {
          "internalType": "address",
          "name": "",
          "type": "address"
        },
        {
          "internalType": "uint256",
          "name": "",
          "type": "uint256"
        }
      ],
      "name": "certificadosPorAluno",
      "outputs": [
        {
          "internalType": "uint256",
          "name": "",
          "type": "uint256"
        }
      ],
      "stateMutability": "view",
      "type": "function"
    },
    {
      "inputs": [],
      "name": "despausarContrato",
      "outputs": [],
      "stateMutability": "nonpayable",
      "type": "function"
    },
    {
      "inputs": [
        {
          "internalType": "address",
          "name": "_enderecoAluno",
          "type": "address"
        },
        {
          "internalType": "string",
          "name": "_nomeAluno",
          "type": "string"
        },
        {
          "internalType": "string",
          "name": "_nomeCurso",
          "type": "string"
        },
        {
          "internalType": "string",
          "name": "_hashCertificado",
          "type": "string"
        },
        {
          "internalType": "string",
          "name": "_descricaoCurso",
          "type": "string"
        },
        {
          "internalType": "uint256",
          "name": "_cargaHoraria",
          "type": "uint256"
        },
        {
          "internalType": "string",
          "name": "_instituicaoEmissora",
          "type": "string"
        }
      ],
      "name": "emitirCertificado",
      "outputs": [],
      "stateMutability": "nonpayable",
      "type": "function"
    },
    {
      "inputs": [
        {
          "internalType": "string",
          "name": "",
          "type": "string"
        }
      ],
      "name": "hashParaId",
      "outputs": [
        {
          "internalType": "uint256",
          "name": "",
          "type": "uint256"
        }
      ],
      "stateMutability": "view",
      "type": "function"
    },
    {
      "inputs": [
        {
          "internalType": "uint256",
          "name": "_idCertificado",
          "type": "uint256"
        }
      ],
      "name": "obterCertificado",
      "outputs": [
        {
          "components": [
            {
              "internalType": "uint256",
              "name": "id",
              "type": "uint256"
            },
            {
              "internalType": "address",
              "name": "enderecoAluno",
              "type": "address"
            },
            {
              "internalType": "string",
              "name": "nomeAluno",
              "type": "string"
            },
            {
              "internalType": "string",
              "name": "nomeCurso",
              "type": "string"
            },
            {
              "internalType": "uint256",
              "name": "dataEmissao",
              "type": "uint256"
            },
            {
              "internalType": "bool",
              "name": "valido",
              "type": "bool"
            },
            {
              "internalType": "string",
              "name": "hashCertificado",
              "type": "string"
            },
            {
              "internalType": "string",
              "name": "descricaoCurso",
              "type": "string"
            },
            {
              "internalType": "uint256",
              "name": "cargaHoraria",
              "type": "uint256"
            },
            {
              "internalType": "string",
              "name": "instituicaoEmissora",
              "type": "string"
            }
          ],
          "internalType": "struct ContratoCertificados.Certificado",
          "name": "",
          "type": "tuple"
        }
      ],
      "stateMutability": "view",
      "type": "function"
    },
    {
      "inputs": [
        {
          "internalType": "address",
          "name": "_enderecoAluno",
          "type": "address"
        }
      ],
      "name": "obterCertificadosDoAluno",
      "outputs": [
        {
          "internalType": "uint256[]",
          "name": "",
          "type": "uint256[]"
        }
      ],
      "stateMutability": "view",
      "type": "function"
    },
    {
      "inputs": [
        {
          "internalType": "address",
          "name": "_enderecoAluno",
          "type": "address"
        }
      ],
      "name": "obterQuantidadeCertificadosAluno",
      "outputs": [
        {
          "internalType": "uint256",
          "name": "",
          "type": "uint256"
        }
      ],
      "stateMutability": "view",
      "type": "function"
    },
    {
      "inputs": [],
      "name": "obterTotalCertificados",
      "outputs": [
        {
          "internalType": "uint256",
          "name": "",
          "type": "uint256"
        }
      ],
      "stateMutability": "view",
      "type": "function"
    },
    {
      "inputs": [],
      "name": "owner",
      "outputs": [
        {
          "internalType": "address",
          "name": "",
          "type": "address"
        }
      ],
      "stateMutability": "view",
      "type": "function"
    },
    {
      "inputs": [],
      "name": "pausarContrato",
      "outputs": [],
      "stateMutability": "nonpayable",
      "type": "function"
    },
    {
      "inputs": [],
      "name": "paused",
      "outputs": [
        {
          "internalType": "bool",
          "name": "",
          "type": "bool"
        }
      ],
      "stateMutability": "view",
      "type": "function"
    },
    {
      "inputs": [
        {
          "internalType": "address",
          "name": "_administrador",
          "type": "address"
        }
      ],
      "name": "removerAdministrador",
      "outputs": [],
      "stateMutability": "nonpayable",
      "type": "function"
    },
    {
      "inputs": [],
      "name": "renounceOwnership",
      "outputs": [],
      "stateMutability": "nonpayable",
      "type": "function"
    },
    {
      "inputs": [
        {
          "internalType": "uint256",
          "name": "_idCertificado",
          "type": "uint256"
        }
      ],
      "name": "revogarCertificado",
      "outputs": [],
      "stateMutability": "nonpayable",
      "type": "function"
    },
    {
      "inputs": [
        {
          "internalType": "address",
          "name": "newOwner",
          "type": "address"
        }
      ],
      "name": "transferOwnership",
      "outputs": [],
      "stateMutability": "nonpayable",
      "type": "function"
    },
    {
      "inputs": [
        {
          "internalType": "address",
          "name": "_endereco",
          "type": "address"
        }
      ],
      "name": "verificarAdministrador",
      "outputs": [
        {
          "internalType": "bool",
          "name": "",
          "type": "bool"
        }
      ],
      "stateMutability": "view",
      "type": "function"
    },
    {
      "inputs": [
        {
          "internalType": "string",
          "name": "_hashCertificado",
          "type": "string"
        }
      ],
      "name": "verificarCertificadoPorHash",
      "outputs": [
        {
          "internalType": "uint256",
          "name": "",
          "type": "uint256"
        }
      ],
      "stateMutability": "view",
      "type": "function"
    },
    {
      "inputs": [
        {
          "internalType": "uint256",
          "name": "_idCertificado",
          "type": "uint256"
        }
      ],
      "name": "verificarValidadeCertificado",
      "outputs": [
        {
          "internalType": "bool",
          "name": "",
          "type": "bool"
        }
      ],
      "stateMutability": "view",
      "type": "function"
    }
  ],
  "bytecode": "0x6080806040523461009557331561007f5760008054336001600160a01b0319821681178355604080519390929091906001600160a01b03167f8be0079c531659141344cd1fd0a4f28419497f9722a3daafe3b4186f6b6457e08380a360018055338152600660205220600160ff19825416179055611985908161009b8239f35b631e4fbdf760e01b815260006004820152602490fd5b600080fdfe6080604052600436101561001257600080fd5b60003560e01c8063071c2ba71461154f5780631535d4fa146114f75780631a003ecb146114955780632ef2528c1461145b578063339bfa15146109c357806338d5c916146109515780634b38d874146107675780635c975abb1461074157806361ce7165146106e957806363151b94146104965780636afef4ce146106cb578063715018a6146106725780638430ac13146106205780638da5cb5b146105f75780638e59bb48146104f2578063a29deac114610496578063a93ecd4114610382578063d449dc5414610343578063d4c40d211461024a578063e64a02cd146101965763f2fde38b1461010357600080fd5b346101915760203660031901126101915761011c61165a565b610124611859565b6001600160a01b0390811690811561017857600054826bffffffffffffffffffffffff60a01b821617600055167f8be0079c531659141344cd1fd0a4f28419497f9722a3daafe3b4186f6b6457e0600080a3005b604051631e4fbdf760e01b815260006004820152602490fd5b600080fd5b3461019157602080600319360112610191576001600160a01b036101b861165a565b1660005260048152604060002060405190818382549182815201908192600052846000209060005b868282106102365786866101f68288038361168c565b604051928392818401908285525180915260408401929160005b82811061021f57505050500390f35b835185528695509381019392810192600101610210565b8354855290930192600192830192016101e0565b346101915760203660031901126101915761026361165a565b61026b611859565b6001600160a01b0316801561030a5780600052600660205260ff604060002054166102d0578060005260066020526040600020600160ff198254161790557f7f521ce12c5d86e8917d1c0008394696a9c36831e2735e77e16849dd89c187b4600080a2005b60405162461bcd60e51b8152602060048201526012602482015271253090329030b236b4b734b9ba3930b237b960711b6044820152606490fd5b60405162461bcd60e51b8152602060048201526011602482015270456e64657265636f20696e76616c69646f60781b6044820152606490fd5b34610191576020366003190112610191576001600160a01b0361036461165a565b166000526006602052602060ff604060002054166040519015158152f35b346101915760208060031936011261019157600054600435906001600160a01b039081163314801561047e575b6103b890611885565b81151580610472575b6103ca9061190a565b816000526003835260ff600560406000200154161561042d577fdd507c5d75d5cf75401dfb30e5db2f9bc3dd41671e9820fab181162022e46971908260005260038452600160406000206005810160ff19815416905501541692604051428152a3005b60405162461bcd60e51b815260048101849052601b60248201527f436572746966696361646f206a6120666f69207265766f6761646f00000000006044820152606490fd5b506002548211156103c1565b5033600090815260068452604090205460ff166103af565b34610191576020366003190112610191576004356001600160401b038111610191576104df60206104cc819336906004016116ad565b8160405193828580945193849201611703565b8101600581520301902054604051908152f35b34610191576020366003190112610191576004356000908152600360205260409020805460018201546001600160a01b031691610531600282016117b3565b9061053e600382016117b3565b6004820154600583015460ff1690610558600685016117b3565b91610565600786016117b3565b93600886015495600901610578906117b3565b96604051998a998a5260208a01526101408060408b0152890161059a91611726565b88810360608a01526105ab91611726565b916080880152151560a087015285810360c08701526105c991611726565b84810360e08601526105da91611726565b906101008401528281036101208401526105f391611726565b0390f35b34610191576000366003190112610191576000546040516001600160a01b039091168152602090f35b346101915760203660031901126101915760043580151580610666575b6106469061190a565b6000526003602052602060ff600560406000200154166040519015158152f35b5060025481111561063d565b346101915760003660031901126101915761068b611859565b600080546001600160a01b0319811682556001600160a01b03167f8be0079c531659141344cd1fd0a4f28419497f9722a3daafe3b4186f6b6457e08280a3005b34610191576000366003190112610191576020600254604051908152f35b346101915760403660031901126101915761070261165a565b6001600160a01b0316600090815260046020526040902080546024359190821015610191576020916107339161174b565b90546040519160031b1c8152f35b3461019157600036600319011261019157602060ff60005460a01c166040519015158152f35b3461019157602036600319011261019157600435606061012060405161078c81611670565b6000815260006020820152826040820152828082015260006080820152600060a08201528260c08201528260e08201526000610100820152015280151580610945575b6107d89061190a565b60005260036020526105f3604060002061087f6009604051926107fa84611670565b8054845260018101546001600160a01b0316602085015261081d600282016117b3565b604085015261082e600382016117b3565b60608501526004810154608085015260ff600582015416151560a0850152610858600682016117b3565b60c0850152610869600782016117b3565b60e08501526008810154610100850152016117b3565b610120820152604051918291602083528051602084015260018060a01b03602082015116604084015260408101516108c561014091826060870152610160860190611726565b9061012061092a6109156108eb606087015195601f1996878b83030160808c0152611726565b608087015160a08a015260a0870151151560c08a015260c0870151868a83030160e08b0152611726565b60e086015185898303016101008a0152611726565b93610100810151828801520151918584030190850152611726565b506002548111156107cf565b346101915760003660031901126101915761096a611859565b60005460ff8160a01c16156109b15760ff60a01b19166000556040513381527f5db9ee0a495bf2e6ff9c91a7834c1ba4fdd244a5e8aa4e537bd38aeae4b073aa90602090a1005b604051638dfc202b60e01b8152600490fd5b346101915760e0366003190112610191576109dc61165a565b6024356001600160401b038111610191576109fb9036906004016116ad565b906044356001600160401b03811161019157610a1b9036906004016116ad565b6064356001600160401b03811161019157610a3a9036906004016116ad565b916084356001600160401b03811161019157610a5a9036906004016116ad565b9360c4356001600160401b03811161019157610a7a9036906004016116ad565b9460018060a01b036000541633148015611442575b610a9890611885565b610aa06118e9565b6002600154146114305760026001556001600160a01b038316156113eb5781511561139b5783511561134b578451156112f5576040516020818751610ae88183858c01611703565b81016005815203019020546112b05760025495600019871461129a576001870160025560405191610b1883611670565b60018801835260018060a01b0385166020840152836040840152856060840152426080840152600160a08401528660c084015260e083015260a435610100830152610120820152600186016000526003602052604060002090805182556001820160018060a01b036020830151166bffffffffffffffffffffffff60a01b82541617905560408101518051906001600160401b038211610e8c578190610bc16002860154611779565b601f8111611247575b50602090601f83116001146111d5576000926111ca575b50508160011b916000199060031b1c19161760028301555b60608101518051906001600160401b038211610e8c578190610c1e6003860154611779565b601f8111611177575b50602090601f8311600114611105576000926110fa575b50508160011b916000199060031b1c19161760038301555b608081015160048301556005820160a0820151151560ff8019835416911617905560c08101518051906001600160401b038211610e8c578190610c9c6006860154611779565b601f81116110a7575b50602090601f83116001146110355760009261102a575b50508160011b916000199060031b1c19161760068301555b60e08101518051906001600160401b038211610e8c57610cf76007850154611779565b601f8111610fe3575b50602090601f8311600114610f6f5761012093929160009183610f64575b50508160011b916000199060031b1c19161760078401555b610100810151600884015501518051906001600160401b038211610e8c57610d616009840154611779565b601f8111610f1d575b50602090601f8311600114610ead576009929160009183610ea2575b50508160011b916000199060031b1c1916179101555b60018060a01b038216600052600460205260406000209283549268010000000000000000841015610e8c576001610e65610e8393610e03877f114d42843a4d26a175ddff2aaef98eaa2ca9366bbc0298e44eb6de5399e130939985610e579a01815561174b565b81549060031b90858d01821b91600019901b191617905589610e3560208b868260405194838680955193849201611703565b8201946005865201930301902055604051968796608088526080880190611726565b908682036020880152611726565b914260408601528483036060860152818060a01b0316970195611726565b0390a360018055005b634e487b7160e01b600052604160045260246000fd5b015190508980610d86565b906009840160005260206000209160005b601f1985168110610f055750918391600193600995601f19811610610eec575b505050811b01910155610d9c565b015160001960f88460031b161c19169055898080610ede565b91926020600181928685015181550194019201610ebe565b600984016000526020600020601f840160051c810160208510610f5d575b601f830160051c82018110610f51575050610d6a565b60008155600101610f3b565b5080610f3b565b015190508a80610d1e565b906007850160005260206000209160005b601f1985168110610fcb57509183916001936101209695601f19811610610fb2575b505050811b016007840155610d36565b015160001960f88460031b161c191690558a8080610fa2565b91926020600181928685015181550194019201610f80565b600785016000526020600020601f840160051c810160208510611023575b601f830160051c82018110611017575050610d00565b60008155600101611001565b5080611001565b015190508980610cbc565b9250600685016000526020600020906000935b601f198416851061108c576001945083601f19811610611073575b505050811b016006830155610cd4565b015160001960f88460031b161c19169055898080611063565b81810151835560209485019460019093019290910190611048565b909150600685016000526020600020601f840160051c8101602085106110f3575b90849392915b601f830160051c820181106110e4575050610ca5565b600081558594506001016110ce565b50806110c8565b015190508980610c3e565b9250600385016000526020600020906000935b601f198416851061115c576001945083601f19811610611143575b505050811b016003830155610c56565b015160001960f88460031b161c19169055898080611133565b81810151835560209485019460019093019290910190611118565b909150600385016000526020600020601f840160051c8101602085106111c3575b90849392915b601f830160051c820181106111b4575050610c27565b6000815585945060010161119e565b5080611198565b015190508980610be1565b9250600285016000526020600020906000935b601f198416851061122c576001945083601f19811610611213575b505050811b016002830155610bf9565b015160001960f88460031b161c19169055898080611203565b818101518355602094850194600190930192909101906111e8565b909150600285016000526020600020601f840160051c810160208510611293575b90849392915b601f830160051c82018110611284575050610bca565b6000815585945060010161126e565b5080611268565b634e487b7160e01b600052601160045260246000fd5b60405162461bcd60e51b815260206004820152601d60248201527f4861736820646f20636572746966696361646f206a61206578697374650000006044820152606490fd5b60405162461bcd60e51b815260206004820152602860248201527f4861736820646f20636572746966696361646f206e616f20706f64652065737460448201526761722076617a696f60c01b6064820152608490fd5b60405162461bcd60e51b815260206004820152602260248201527f4e6f6d6520646f20637572736f206e616f20706f64652065737461722076617a604482015261696f60f01b6064820152608490fd5b60405162461bcd60e51b815260206004820152602260248201527f4e6f6d6520646f20616c756e6f206e616f20706f64652065737461722076617a604482015261696f60f01b6064820152608490fd5b60405162461bcd60e51b815260206004820152601a60248201527f456e64657265636f20646f20616c756e6f20696e76616c69646f0000000000006044820152606490fd5b604051633ee5aeb560e01b8152600490fd5b503360009081526006602052604090205460ff16610a8f565b34610191576020366003190112610191576001600160a01b0361147c61165a565b1660005260046020526020604060002054604051908152f35b34610191576000366003190112610191576114ae611859565b6114b66118e9565b6000805460ff60a01b1916600160a01b1790556040513381527f62e78cea01bee320cd4e420270b5ea74000d11b0c9f74754ebdbfc544b05a25890602090a1005b346101915760203660031901126101915761151061165a565b6000546001600160a01b03918216911681148015611536575b6020906040519015158152f35b506000526006602052602060ff60406000205416611529565b346101915760203660031901126101915761156861165a565b611570611859565b6000546001600160a01b03918216911681146116155780600052600660205260ff60406000205416156115da57806000526006602052604060002060ff1981541690557f50c01f91794464f9157b93978f39e7178094b03a3eec3dccb3337daacb380762600080a2005b60405162461bcd60e51b81526020600482015260136024820152722730b790329030b236b4b734b9ba3930b237b960691b6044820152606490fd5b60405162461bcd60e51b815260206004820152601860248201527f4e616f20706f64652072656d6f766572206f206f776e657200000000000000006044820152606490fd5b600435906001600160a01b038216820361019157565b61014081019081106001600160401b03821117610e8c57604052565b90601f801991011681019081106001600160401b03821117610e8c57604052565b81601f82011215610191578035906001600160401b038211610e8c57604051926116e1601f8401601f19166020018561168c565b8284526020838301011161019157816000926020809301838601378301015290565b60005b8381106117165750506000910152565b8181015183820152602001611706565b9060209161173f81518092818552858086019101611703565b601f01601f1916010190565b80548210156117635760005260206000200190600090565b634e487b7160e01b600052603260045260246000fd5b90600182811c921680156117a9575b602083101461179357565b634e487b7160e01b600052602260045260246000fd5b91607f1691611788565b90604051918260008254926117c784611779565b90818452600194858116908160001461183657506001146117f3575b50506117f19250038361168c565b565b9093915060005260209081600020936000915b81831061181e5750506117f1935082010138806117e3565b85548884018501529485019487945091830191611806565b9150506117f194506020925060ff191682840152151560051b82010138806117e3565b6000546001600160a01b0316330361186d57565b60405163118cdaa760e01b8152336004820152602490fd5b1561188c57565b60405162461bcd60e51b815260206004820152602f60248201527f4170656e61732061646d696e6973747261646f72657320706f64656d2065786560448201526e63757461722065737461206163616f60881b6064820152608490fd5b60ff60005460a01c166118f857565b60405163d93c066560e01b8152600490fd5b1561191157565b60405162461bcd60e51b8152602060048201526016602482015275436572746966696361646f206e616f2065786973746560501b6044820152606490fdfea26469706673582212202a39657e2d8efbe879b8f763709ab72463423307a3cc4fef116e8f016937f83964736f6c63430008140033",
  "linkReferences": {},
  "deployedLinkReferences": {}
}