{
  "_format": "hh-sol-artifact-1",
  "contractName": "TokenCertiToken",
  "sourceName": "contracts/TokenCertiToken.sol",
  "abi": [
    {
      "inputs": [],
      "stateMutability": "nonpayable",
      "type": "constructor"
    },
    {
      "inputs": [
        {
          "internalType": "address",
          "name": "spender",
          "type": "address"
        },
        {
          "internalType": "uint256",
          "name": "allowance",
          "type": "uint256"
        },
        {
          "internalType": "uint256",
          "name": "needed",
          "type": "uint256"
        }
      ],
      "name": "ERC20InsufficientAllowance",
      "type": "error"
    },
    {
      "inputs": [
        {
          "internalType": "address",
          "name": "sender",
          "type": "address"
        },
        {
          "internalType": "uint256",
          "name": "balance",
          "type": "uint256"
        },
        {
          "internalType": "uint256",
          "name": "needed",
          "type": "uint256"
        }
      ],
      "name": "ERC20InsufficientBalance",
      "type": "error"
    },
    {
      "inputs": [
        {
          "internalType": "address",
          "name": "approver",
          "type": "address"
        }
      ],
      "name": "ERC20InvalidApprover",
      "type": "error"
    },
    {
      "inputs": [
        {
          "internalType": "address",
          "name": "receiver",
          "type": "address"
        }
      ],
      "name": "ERC20InvalidReceiver",
      "type": "error"
    },
    {
      "inputs": [
        {
          "internalType": "address",
          "name": "sender",
          "type": "address"
        }
      ],
      "name": "ERC20InvalidSender",
      "type": "error"
    },
    {
      "inputs": [
        {
          "internalType": "address",
          "name": "spender",
          "type": "address"
        }
      ],
      "name": "ERC20InvalidSpender",
      "type": "error"
    },
    {
      "inputs": [],
      "name": "EnforcedPause",
      "type": "error"
    },
    {
      "inputs": [],
      "name": "ExpectedPause",
      "type": "error"
    },
    {
      "inputs": [
        {
          "internalType": "address",
          "name": "owner",
          "type": "address"
        }
      ],
      "name": "OwnableInvalidOwner",
      "type": "error"
    },
    {
      "inputs": [
        {
          "internalType": "address",
          "name": "account",
          "type": "address"
        }
      ],
      "name": "OwnableUnauthorizedAccount",
      "type": "error"
    },
    {
      "inputs": [],
      "name": "ReentrancyGuardReentrantCall",
      "type": "error"
    },
    {
      "anonymous": false,
      "inputs": [
        {
          "indexed": true,
          "internalType": "address",
          "name": "administrador",
          "type": "address"
        }
      ],
      "name": "AdministradorRecompensasAdicionado",
      "type": "event"
    },
    {
      "anonymous": false,
      "inputs": [
        {
          "indexed": true,
          "internalType": "address",
          "name": "administrador",
          "type": "address"
        }
      ],
      "name": "AdministradorRecompensasRemovido",
      "type": "event"
    },
    {
      "anonymous": false,
      "inputs": [
        {
          "indexed": true,
          "internalType": "address",
          "name": "owner",
          "type": "address"
        },
        {
          "indexed": true,
          "internalType": "address",
          "name": "spender",
          "type": "address"
        },
        {
          "indexed": false,
          "internalType": "uint256",
          "name": "value",
          "type": "uint256"
        }
      ],
      "name": "Approval",
      "type": "event"
    },
    {
      "anonymous": false,
      "inputs": [
        {
          "indexed": true,
          "internalType": "address",
          "name": "previousOwner",
          "type": "address"
        },
        {
          "indexed": true,
          "internalType": "address",
          "name": "newOwner",
          "type": "address"
        }
      ],
      "name": "OwnershipTransferred",
      "type": "event"
    },
    {
      "anonymous": false,
      "inputs": [
        {
          "indexed": false,
          "internalType": "address",
          "name": "account",
          "type": "address"
        }
      ],
      "name": "Paused",
      "type": "event"
    },
    {
      "anonymous": false,
      "inputs": [
        {
          "indexed": true,
          "internalType": "address",
          "name": "aluno",
          "type": "address"
        },
        {
          "indexed": false,
          "internalType": "uint256",
          "name": "quantidade",
          "type": "uint256"
        },
        {
          "indexed": false,
          "internalType": "string",
          "name": "motivo",
          "type": "string"
        },
        {
          "indexed": false,
          "internalType": "uint256",
          "name": "dataEnvio",
          "type": "uint256"
        }
      ],
      "name": "RecompensaEnviada",
      "type": "event"
    },
    {
      "anonymous": false,
      "inputs": [
        {
          "indexed": false,
          "internalType": "address[]",
          "name": "alunos",
          "type": "address[]"
        },
        {
          "indexed": false,
          "internalType": "uint256[]",
          "name": "quantidades",
          "type": "uint256[]"
        },
        {
          "indexed": false,
          "internalType": "string",
          "name": "motivo",
          "type": "string"
        },
        {
          "indexed": false,
          "internalType": "uint256",
          "name": "dataEnvio",
          "type": "uint256"
        }
      ],
      "name": "RecompensasEmLote",
      "type": "event"
    },
    {
      "anonymous": false,
      "inputs": [
        {
          "indexed": true,
          "internalType": "address",
          "name": "de",
          "type": "address"
        },
        {
          "indexed": false,
          "internalType": "uint256",
          "name": "quantidade",
          "type": "uint256"
        },
        {
          "indexed": false,
          "internalType": "string",
          "name": "motivo",
          "type": "string"
        },
        {
          "indexed": false,
          "internalType": "uint256",
          "name": "dataQueima",
          "type": "uint256"
        }
      ],
      "name": "TokensQueimados",
      "type": "event"
    },
    {
      "anonymous": false,
      "inputs": [
        {
          "indexed": true,
          "internalType": "address",
          "name": "from",
          "type": "address"
        },
        {
          "indexed": true,
          "internalType": "address",
          "name": "to",
          "type": "address"
        },
        {
          "indexed": false,
          "internalType": "uint256",
          "name": "value",
          "type": "uint256"
        }
      ],
      "name": "Transfer",
      "type": "event"
    },
    {
      "anonymous": false,
      "inputs": [
        {
          "indexed": false,
          "internalType": "address",
          "name": "account",
          "type": "address"
        }
      ],
      "name": "Unpaused",
      "type": "event"
    },
    {
      "inputs": [
        {
          "internalType": "address",
          "name": "_novoAdministrador",
          "type": "address"
        }
      ],
      "name": "adicionarAdministradorRecompensas",
      "outputs": [],
      "stateMutability": "nonpayable",
      "type": "function"
    },
    {
      "inputs": [
        {
          "internalType": "address",
          "name": "",
          "type": "address"
        }
      ],
      "name": "administradoresRecompensas",
      "outputs": [
        {
          "internalType": "bool",
          "name": "",
          "type": "bool"
        }
      ],
      "stateMutability": "view",
      "type": "function"
    },
    {
      "inputs": [
        {
          "internalType": "address",
          "name": "owner",
          "type": "address"
        },
        {
          "internalType": "address",
          "name": "spender",
          "type": "address"
        }
      ],
      "name": "allowance",
      "outputs": [
        {
          "internalType": "uint256",
          "name": "",
          "type": "uint256"
        }
      ],
      "stateMutability": "view",
      "type": "function"
    },
    {
      "inputs": [
        {
          "internalType": "address",
          "name": "spender",
          "type": "address"
        },
        {
          "internalType": "uint256",
          "name": "value",
          "type": "uint256"
        }
      ],
      "name": "approve",
      "outputs": [
        {
          "internalType": "bool",
          "name": "",
          "type": "bool"
        }
      ],
      "stateMutability": "nonpayable",
      "type": "function"
    },
    {
      "inputs": [
        {
          "internalType": "address",
          "name": "account",
          "type": "address"
        }
      ],
      "name": "balanceOf",
      "outputs": [
        {
          "internalType": "uint256",
          "name": "",
          "type": "uint256"
        }
      ],
      "stateMutability": "view",
      "type": "function"
    },
    {
      "inputs": [
        {
          "internalType": "uint256",
          "name": "value",
          "type": "uint256"
        }
      ],
      "name": "burn",
      "outputs": [],
      "stateMutability": "nonpayable",
      "type": "function"
    },
    {
      "inputs": [
        {
          "internalType": "address",
          "name": "account",
          "type": "address"
        },
        {
          "internalType": "uint256",
          "name": "value",
          "type": "uint256"
        }
      ],
      "name": "burnFrom",
      "outputs": [],
      "stateMutability": "nonpayable",
      "type": "function"
    },
    {
      "inputs": [],
      "name": "decimals",
      "outputs": [
        {
          "internalType": "uint8",
          "name": "",
          "type": "uint8"
        }
      ],
      "stateMutability": "view",
      "type": "function"
    },
    {
      "inputs": [],
      "name": "despausarContrato",
      "outputs": [],
      "stateMutability": "nonpayable",
      "type": "function"
    },
    {
      "inputs": [
        {
          "internalType": "address",
          "name": "_aluno",
          "type": "address"
        },
        {
          "internalType": "uint256",
          "name": "_quantidade",
          "type": "uint256"
        },
        {
          "internalType": "string",
          "name": "_motivo",
          "type": "string"
        }
      ],
      "name": "enviarRecompensa",
      "outputs": [],
      "stateMutability": "nonpayable",
      "type": "function"
    },
    {
      "inputs": [
        {
          "internalType": "address[]",
          "name": "_alunos",
          "type": "address[]"
        },
        {
          "internalType": "uint256[]",
          "name": "_quantidades",
          "type": "uint256[]"
        },
        {
          "internalType": "string",
          "name": "_motivo",
          "type": "string"
        }
      ],
      "name": "enviarRecompensasEmLote",
      "outputs": [],
      "stateMutability": "nonpayable",
      "type": "function"
    },
    {
      "inputs": [
        {
          "internalType": "address",
          "name": "",
          "type": "address"
        },
        {
          "internalType": "uint256",
          "name": "",
          "type": "uint256"
        }
      ],
      "name": "historicoRecompensas",
      "outputs": [
        {
          "internalType": "uint256",
          "name": "quantidade",
          "type": "uint256"
        },
        {
          "internalType": "string",
          "name": "motivo",
          "type": "string"
        },
        {
          "internalType": "uint256",
          "name": "dataEnvio",
          "type": "uint256"
        },
        {
          "internalType": "address",
          "name": "remetente",
          "type": "address"
        }
      ],
      "stateMutability": "view",
      "type": "function"
    },
    {
      "inputs": [],
      "name": "name",
      "outputs": [
        {
          "internalType": "string",
          "name": "",
          "type": "string"
        }
      ],
      "stateMutability": "view",
      "type": "function"
    },
    {
      "inputs": [
        {
          "internalType": "address",
          "name": "_aluno",
          "type": "address"
        }
      ],
      "name": "obterHistoricoRecompensas",
      "outputs": [
        {
          "components": [
            {
              "internalType": "uint256",
              "name": "quantidade",
              "type": "uint256"
            },
            {
              "internalType": "string",
              "name": "motivo",
              "type": "string"
            },
            {
              "internalType": "uint256",
              "name": "dataEnvio",
              "type": "uint256"
            },
            {
              "internalType": "address",
              "name": "remetente",
              "type": "address"
            }
          ],
          "internalType": "struct TokenCertiToken.Recompensa[]",
          "name": "",
          "type": "tuple[]"
        }
      ],
      "stateMutability": "view",
      "type": "function"
    },
    {
      "inputs": [],
      "name": "obterInformacoesToken",
      "outputs": [
        {
          "internalType": "string",
          "name": "",
          "type": "string"
        },
        {
          "internalType": "string",
          "name": "",
          "type": "string"
        },
        {
          "internalType": "uint8",
          "name": "",
          "type": "uint8"
        },
        {
          "internalType": "uint256",
          "name": "",
          "type": "uint256"
        }
      ],
      "stateMutability": "view",
      "type": "function"
    },
    {
      "inputs": [
        {
          "internalType": "address",
          "name": "_conta",
          "type": "address"
        }
      ],
      "name": "obterSaldo",
      "outputs": [
        {
          "internalType": "uint256",
          "name": "",
          "type": "uint256"
        }
      ],
      "stateMutability": "view",
      "type": "function"
    },
    {
      "inputs": [
        {
          "internalType": "address",
          "name": "_aluno",
          "type": "address"
        }
      ],
      "name": "obterTotalRecompensasRecebidas",
      "outputs": [
        {
          "internalType": "uint256",
          "name": "",
          "type": "uint256"
        }
      ],
      "stateMutability": "view",
      "type": "function"
    },
    {
      "inputs": [],
      "name": "obterTotalSupply",
      "outputs": [
        {
          "internalType": "uint256",
          "name": "",
          "type": "uint256"
        }
      ],
      "stateMutability": "view",
      "type": "function"
    },
    {
      "inputs": [],
      "name": "owner",
      "outputs": [
        {
          "internalType": "address",
          "name": "",
          "type": "address"
        }
      ],
      "stateMutability": "view",
      "type": "function"
    },
    {
      "inputs": [],
      "name": "pausarContrato",
      "outputs": [],
      "stateMutability": "nonpayable",
      "type": "function"
    },
    {
      "inputs": [],
      "name": "paused",
      "outputs": [
        {
          "internalType": "bool",
          "name": "",
          "type": "bool"
        }
      ],
      "stateMutability": "view",
      "type": "function"
    },
    {
      "inputs": [
        {
          "internalType": "address",
          "name": "_de",
          "type": "address"
        },
        {
          "internalType": "uint256",
          "name": "_quantidade",
          "type": "uint256"
        },
        {
          "internalType": "string",
          "name": "_motivo",
          "type": "string"
        }
      ],
      "name": "queimarDe",
      "outputs": [],
      "stateMutability": "nonpayable",
      "type": "function"
    },
    {
      "inputs": [
        {
          "internalType": "uint256",
          "name": "_quantidade",
          "type": "uint256"
        },
        {
          "internalType": "string",
          "name": "_motivo",
          "type": "string"
        }
      ],
      "name": "queimarTokens",
      "outputs": [],
      "stateMutability": "nonpayable",
      "type": "function"
    },
    {
      "inputs": [
        {
          "internalType": "address",
          "name": "_administrador",
          "type": "address"
        }
      ],
      "name": "removerAdministradorRecompensas",
      "outputs": [],
      "stateMutability": "nonpayable",
      "type": "function"
    },
    {
      "inputs": [],
      "name": "renounceOwnership",
      "outputs": [],
      "stateMutability": "nonpayable",
      "type": "function"
    },
    {
      "inputs": [],
      "name": "symbol",
      "outputs": [
        {
          "internalType": "string",
          "name": "",
          "type": "string"
        }
      ],
      "stateMutability": "view",
      "type": "function"
    },
    {
      "inputs": [
        {
          "internalType": "address",
          "name": "",
          "type": "address"
        }
      ],
      "name": "totalRecompensasRecebidas",
      "outputs": [
        {
          "internalType": "uint256",
          "name": "",
          "type": "uint256"
        }
      ],
      "stateMutability": "view",
      "type": "function"
    },
    {
      "inputs": [],
      "name": "totalSupply",
      "outputs": [
        {
          "internalType": "uint256",
          "name": "",
          "type": "uint256"
        }
      ],
      "stateMutability": "view",
      "type": "function"
    },
    {
      "inputs": [
        {
          "internalType": "address",
          "name": "to",
          "type": "address"
        },
        {
          "internalType": "uint256",
          "name": "amount",
          "type": "uint256"
        }
      ],
      "name": "transfer",
      "outputs": [
        {
          "internalType": "bool",
          "name": "",
          "type": "bool"
        }
      ],
      "stateMutability": "nonpayable",
      "type": "function"
    },
    {
      "inputs": [
        {
          "internalType": "address",
          "name": "from",
          "type": "address"
        },
        {
          "internalType": "address",
          "name": "to",
          "type": "address"
        },
        {
          "internalType": "uint256",
          "name": "amount",
          "type": "uint256"
        }
      ],
      "name": "transferFrom",
      "outputs": [
        {
          "internalType": "bool",
          "name": "",
          "type": "bool"
        }
      ],
      "stateMutability": "nonpayable",
      "type": "function"
    },
    {
      "inputs": [
        {
          "internalType": "address",
          "name": "newOwner",
          "type": "address"
        }
      ],
      "name": "transferOwnership",
      "outputs": [],
      "stateMutability": "nonpayable",
      "type": "function"
    },
    {
      "inputs": [
        {
          "internalType": "address",
          "name": "_endereco",
          "type": "address"
        }
      ],
      "name": "verificarAdministradorRecompensas",
      "outputs": [
        {
          "internalType": "bool",
          "name": "",
          "type": "bool"
        }
      ],
      "stateMutability": "view",
      "type": "function"
    }
  ],
  "bytecode": "0x60803462000406576001600160401b03906040908082018381118282101762000306578252600a815260206921b2b93a34aa37b5b2b760b11b81830152825193838501858110828211176200030657845260038086526243544b60e81b83870152835182811162000306578154906001958683811c93168015620003fb575b86841014620003e5578190601f938481116200038f575b50869084831160011462000328576000926200031c575b505060001982851b1c191690861b1782555b8651928311620003065760049687548681811c91168015620002fb575b86821014620002e65790818386959493116200028c575b5085918411600114620002215760009362000215575b505082851b92600019911b1c19161784555b3315620001fe5760058054336001600160a01b0319821681179092556001600160a01b03167f8be0079c531659141344cd1fd0a4f28419497f9722a3daafe3b4186f6b6457e0600080a38160065560025469d3c21bcecceda100000090818101809111620001e9579060099291600255336000526000825284600020818154019055845190815260007fddf252ad1be2c89b69c2b068fc378daa952ba7f163c4a11628f55a4df523b3ef833393a33360005252816000209060ff1982541617905551611d1190816200040c8239f35b601186634e487b7160e01b6000525260246000fd5b8251631e4fbdf760e01b8152600081860152602490fd5b01519150388062000108565b9190869450601f1984169289600052866000209360005b888282106200027557505085116200025a575b50505050811b0184556200011a565b01519060f884600019921b161c19169055388080806200024b565b8385015187558a9890960195938401930162000238565b909192935088600052856000208380870160051c820192888810620002dc575b9189918897969594930160051c01915b828110620002cc575050620000f2565b60008155879650899101620002bc565b92508192620002ac565b602289634e487b7160e01b6000525260246000fd5b90607f1690620000db565b634e487b7160e01b600052604160045260246000fd5b015190503880620000ac565b90889350601f1983169186600052886000209260005b8a8282106200037857505084116200035f575b505050811b018255620000be565b015160001983871b60f8161c1916905538808062000351565b8385015186558c979095019493840193016200033e565b90915084600052866000208480850160051c820192898610620003db575b918a91869594930160051c01915b828110620003cb57505062000095565b600081558594508a9101620003bb565b92508192620003ad565b634e487b7160e01b600052602260045260246000fd5b92607f16926200007e565b600080fdfe6040608081526004908136101561001557600080fd5b600091823560e01c806303cd5ead1461122957806306fdde03146111f8578063095ea7b31461114f5780631606857f1461104657806318160ddd146109f85780631a003ecb14610fe55780631f5f480d14610a1757806323b872dd14610fa057806324ec4f6814610f1157806325f7a07714610ed3578063313ce56714610eb757806338d5c91614610e4857806342966c6814610e2a5780634d301cea14610cee5780635c975abb14610cc7578063689776e514610c0a57806370a0823114610770578063715018a614610bad57806375e8d90714610aab57806379cc679014610a785780638da5cb5b14610a4f5780638df9ddf614610a175780639318153a146109f857806395d89b411461090e5780639dfc15dc146107ec578063a9059cbb146107b3578063aa2e4c3814610770578063d157884a14610716578063d93ba95f14610657578063dd62ed3e1461060e578063e3883194146102135763f2fde38b1461018157600080fd5b3461020f57602036600319011261020f5761019a6113e8565b906101a3611640565b6001600160a01b039182169283156101f9575050600554826bffffffffffffffffffffffff60a01b821617600555167f8be0079c531659141344cd1fd0a4f28419497f9722a3daafe3b4186f6b6457e08380a380f35b51631e4fbdf760e01b8152908101849052602490fd5b8280fd5b5091903461060a576060908160031936011261020f57833567ffffffffffffffff93848211610607573660238301121561060757818601359061025582611628565b916102628551938461132a565b80835260209081840194856024809360051b83010191368311610603578301905b8282106105e0575050508035968888116105dc57366023890112156105dc57878a0135986102b08a611628565b986102bd89519a8b61132a565b8a8a52848a0184819c60051b830101913683116105d85785879101915b8383106105c857505050506044359081116105c4576102fc9036908c0161134c565b9960018060a01b03928360055416331480156105b0575b61031c9061181a565b610324611c34565b61032c611c55565b86518a510361056f5786511561052d57505061034a8a511515611970565b8399849a5b89518c101561037c57610370610376916103698e8d611c87565b5190611724565b9b611c78565b9a61034f565b908a6103958b94933389528888528b892054101561192f565b865b8851811015610473578061043b888861042b8f958e61046e978a610409848f6103cd896103c48489611c87565b511615156118e3565b6103e26103da8383611c87565b51151561188c565b610404896103f08489611c87565b51166103fc8484611c87565b519033611b6f565b611c87565b5196825197610417896112f8565b88528701524290860152338b860152611c87565b51168b5260078a528d8b206119bc565b6104458187611c87565b5187610451838d611c87565b51168a52600889526104678d8b20918254611724565b9055611c78565b610397565b509489908989958997845197608089019060808a525180915260a0890193918a905b828210610514575050505086820387840152518082529082019791875b82811061050057878a0385890152887fd39fddaac5bddb4d31ce2a01c76d59bd130cce6e783018eb67d45943cb51f94989808a6104ef8f8c6113a8565b9042908301520390a1600160065580f35b83518a5298810198928101926001016104b2565b8351811686529486019492860192600190910190610495565b885162461bcd60e51b8152918201859052601d908201527f417272617973206e616f20706f64656d2065737461722076617a696f730000006044820152606490fd5b885162461bcd60e51b815291820185905281018490527f41727261797320646576656d20746572206f206d65736d6f2074616d616e686f6044820152606490fd5b50338652600985528886205460ff16610313565b8480fd5b82358152918101918791016102da565b8780fd5b8380fd5b81356001600160a01b03811681036105ff578152908401908401610283565b8680fd5b8580fd5b80fd5b5080fd5b50503461060a578060031936011261060a578060209261062c6113e8565b6106346113fe565b6001600160a01b0391821683526001865283832091168252845220549051908152f35b50903461020f57602036600319011261020f576106726113e8565b61067a611640565b6001600160a01b03169161068f831515611c9b565b828452600960205260ff82852054166106df575081835260096020528220805460ff191660011790557f56dd0c4e9474a0abe6fd4c1617a5c98abb2eebe4c5fe55329169742dc0d1be068280a280f35b6020606492519162461bcd60e51b83528201526012602482015271253090329030b236b4b734b9ba3930b237b960711b6044820152fd5b50503461060a57602036600319011261060a57906020916107356113e8565b6005546001600160a01b03918216911681149290831561075a575b5050519015158152f35b8152600984528190205460ff1691503880610750565b50503461060a57602036600319011261060a576020906107ac6107916113e8565b6001600160a01b031660009081526020819052604090205490565b9051908152f35b50503461060a578060031936011261060a576020906107e56107d36113e8565b6107db611c34565b6024359033611b6f565b5160018152f35b50503461060a577f4608251746de1a3e686704a28de29b5c7fea05ca03ce34934ee13207802149d56108ee91610821366115e2565b919490926108988460018060a01b038060055416331480156108f9575b6108479061181a565b61085282151561188c565b61085a611c34565b610862611c55565b8816976108708915156118e3565b338a528960205261088682858c2054101561192f565b61089286511515611970565b33611b6f565b6108ca81516108a6816112f8565b858152846020820152428382015233606082015287895260076020528289206119bc565b85875260086020528087206108e0858254611724565b905551928392429184611b4d565b0390a2600160065580f35b50338a526009602052838a205460ff1661083e565b50903461020f578260031936011261020f578051918381549061093082611446565b808652926001928084169081156109cd5750600114610971575b61096d868661095b828b038361132a565b519182916020835260208301906113a8565b0390f35b815294507f8a35acfbc15ff81a39ae7d344fd709f28e8600b4aa8c65c6b64bfe7fe36bd19b5b8286106109b55750505061095b82602061096d95820101943861094a565b80546020878701810191909152909501948101610997565b905061096d97508693506020925061095b94915060ff191682840152151560051b820101943861094a565b50503461060a578160031936011261060a576020906002549051908152f35b50503461060a57602036600319011261060a5760209181906001600160a01b03610a3f6113e8565b1681526008845220549051908152f35b50503461060a578160031936011261060a5760055490516001600160a01b039091168152602090f35b50503461060a5736600319011261060757610aa8610a946113e8565b60243590610aa3823383611747565b61166c565b80f35b50903461020f57602036600319011261020f57610ac66113e8565b91610acf611640565b6005546001600160a01b0393841693168314610b6b57828452600960205260ff828520541615610b33575081835260096020528220805460ff191690557f3df0cb72c50197e940739b67cec44b4b4ae7c5632bf1a41168596fe044f28c3e8280a280f35b6020606492519162461bcd60e51b835282015260136024820152722730b790329030b236b4b734b9ba3930b237b960691b6044820152fd5b6020606492519162461bcd60e51b8352820152601860248201527f4e616f20706f64652072656d6f766572206f206f776e657200000000000000006044820152fd5b8334610607578060031936011261060757610bc6611640565b600580546001600160a01b0319811690915581906001600160a01b03167f8be0079c531659141344cd1fd0a4f28419497f9722a3daafe3b4186f6b6457e08280a380f35b50503461060a577f548e41ec9ab793e102140d78d18d21e9da854859593dff50f6068d7c9c6e37c4610cac91610c3f366115e2565b91949092610ca08460018060a01b03806005541633148015610cb2575b610c659061181a565b610c7082151561188c565b881697610c7e891515611c9b565b888a5289602052610c9482858c2054101561192f565b610aa386511515611970565b51928392429184611b4d565b0390a280f35b50338a526009602052838a205460ff16610c5c565b50503461060a578160031936011261060a5760209060ff60055460a01c1690519015158152f35b509134610607576020928360031936011261060a576001600160a01b0393919084610d176113e8565b16825260078352838220928354610d2d81611628565b92610d3a8751948561132a565b8184528284018096865283862086915b898b868510610ddb57509450505050505194818601928287525180935280860190808460051b8801019594975b848910610d845787870388f35b9091929394958480600192603f198b820301875289519081518152610db583830151608080868501528301906113a8565b918781015188830152866060809201511691015298019401980197919094939294610d77565b9660019282829a9b9988945191610df1836112f8565b87548352610e0087890161153e565b85840152600288015490830152600387015416606082015281520192019201919096959496610d4a565b83823461060a57602036600319011261060a57610aa890353361166c565b503461020f578260031936011261020f57610e61611640565b6005549060ff8260a01c1615610ea9575060ff60a01b1916600555513381527f5db9ee0a495bf2e6ff9c91a7834c1ba4fdd244a5e8aa4e537bd38aeae4b073aa90602090a180f35b8251638dfc202b60e01b8152fd5b50503461060a578160031936011261060a576020905160128152f35b50503461060a57602036600319011261060a5760209160ff9082906001600160a01b03610efe6113e8565b1681526009855220541690519015158152f35b50503461060a578060031936011261060a57610f2b6113e8565b6001600160a01b03908116835260076020528183208054919360243592831015610607575090610f5a91611414565b5090815491610f6b6001820161153e565b93600360028301549201541690610f93835195869586526080602087015260808601906113a8565b9284015260608301520390f35b50503461060a57606036600319011261060a576020906107e5610fc16113e8565b610fc96113fe565b60443591610fd5611c34565b610fe0833383611747565b611b6f565b50503461060a578160031936011261060a5760207f62e78cea01bee320cd4e420270b5ea74000d11b0c9f74754ebdbfc544b05a25891611023611640565b61102b611c34565b6005805460ff60a01b1916600160a01b17905551338152a180f35b5091903461060a578160031936011261060a57611061611480565b918151938181549061107282611446565b8088529260019280841690811561112257506001146110c8575b6110ba87878a61109e818a038261132a565b6012610f936002549284519687966080885260808801906113a8565b9086820360208801526113a8565b815292507f8a35acfbc15ff81a39ae7d344fd709f28e8600b4aa8c65c6b64bfe7fe36bd19b5b82841061110a57505050830160200161109e846110ba3861108c565b805460208589018101919091529093019281016110ee565b90508895506110ba9893506020925061109e94915060ff191682840152151560051b82010192953861108c565b503461020f578160031936011261020f576111686113e8565b6024359033156111e1576001600160a01b03169182156111ca57508083602095338152600187528181208582528752205582519081527f8c5be1e5ebec7d5bd14f71427d1e84f3dd0314c0f7b2291e5b200ac8c7c3b925843392a35160018152f35b8351634a1406b160e11b8152908101859052602490fd5b835163e602df0560e01b8152808401869052602490fd5b50503461060a578160031936011261060a5761096d90611216611480565b90519182916020835260208301906113a8565b503461020f578160031936011261020f5760243590803567ffffffffffffffff83116105c457611280610cac927f548e41ec9ab793e102140d78d18d21e9da854859593dff50f6068d7c9c6e37c49436910161134c565b9360018060a01b0360055416331480156112e3575b61129e9061181a565b6112a982151561188c565b338652856020526112bf8282882054101561192f565b6112cb85511515611970565b6112d5823361166c565b519182913395429184611b4d565b5033865260096020528086205460ff16611295565b6080810190811067ffffffffffffffff82111761131457604052565b634e487b7160e01b600052604160045260246000fd5b90601f8019910116810190811067ffffffffffffffff82111761131457604052565b81601f820112156113a35780359067ffffffffffffffff82116113145760405192611381601f8401601f19166020018561132a565b828452602083830101116113a357816000926020809301838601378301015290565b600080fd5b919082519283825260005b8481106113d4575050826000602080949584010152601f8019910116010190565b6020818301810151848301820152016113b3565b600435906001600160a01b03821682036113a357565b602435906001600160a01b03821682036113a357565b80548210156114305760005260206000209060021b0190600090565b634e487b7160e01b600052603260045260246000fd5b90600182811c92168015611476575b602083101461146057565b634e487b7160e01b600052602260045260246000fd5b91607f1691611455565b604051906000826003549161149483611446565b8083529260019081811690811561151c57506001146114bd575b506114bb9250038361132a565b565b6003600090815291507fc2575a0e9e593c00f959f8c92f12db2869c3395a3b0502d05e2516446f71f85b5b84831061150157506114bb9350508101602001386114ae565b81935090816020925483858a010152019101909185926114e8565b9050602092506114bb94915060ff191682840152151560051b820101386114ae565b906040519182600082549261155284611446565b9081845260019485811690816000146115bf575060011461157c575b50506114bb9250038361132a565b9093915060005260209081600020936000915b8183106115a75750506114bb9350820101388061156e565b8554888401850152948501948794509183019161158f565b9150506114bb94506020925060ff191682840152151560051b820101388061156e565b60606003198201126113a3576004356001600160a01b03811681036113a35791602435916044359067ffffffffffffffff82116113a3576116259160040161134c565b90565b67ffffffffffffffff81116113145760051b60200190565b6005546001600160a01b0316330361165457565b60405163118cdaa760e01b8152336004820152602490fd5b906001600160a01b03821690811561170b57600092828452836020526040842054908282106116d95750817fddf252ad1be2c89b69c2b068fc378daa952ba7f163c4a11628f55a4df523b3ef926020928587528684520360408620558060025403600255604051908152a3565b60405163391434e360e21b81526001600160a01b03919091166004820152602481019190915260448101829052606490fd5b604051634b637e8f60e11b815260006004820152602490fd5b9190820180921161173157565b634e487b7160e01b600052601160045260246000fd5b9160018060a01b038093169160009383855260016020526040938486209183169182875260205284862054926000198410611786575b50505050505050565b8484106117ea575080156117d25781156117ba5785526001602052838520908552602052039120553880808080808061177d565b8451634a1406b160e11b815260048101879052602490fd5b845163e602df0560e01b815260048101879052602490fd5b8551637dc7a0d960e11b81526001600160a01b039190911660048201526024810184905260448101859052606490fd5b1561182157565b60405162461bcd60e51b815260206004820152603e60248201527f4170656e61732061646d696e6973747261646f726573206465207265636f6d7060448201527f656e73617320706f64656d2065786563757461722065737461206163616f00006064820152608490fd5b1561189357565b60405162461bcd60e51b815260206004820152602260248201527f5175616e746964616465206465766520736572206d61696f7220717565207a65604482015261726f60f01b6064820152608490fd5b156118ea57565b60405162461bcd60e51b815260206004820152601a60248201527f456e64657265636f20646f20616c756e6f20696e76616c69646f0000000000006044820152606490fd5b1561193657565b60405162461bcd60e51b815260206004820152601260248201527153616c646f20696e737566696369656e746560701b6044820152606490fd5b1561197757565b60405162461bcd60e51b815260206004820152601b60248201527f4d6f7469766f206e616f20706f64652065737461722076617a696f00000000006044820152606490fd5b9190825468010000000000000000811015611314576119e2906001948582018155611414565b611b375781518155838101602094858401519586519667ffffffffffffffff881161131457611a118454611446565b601f8111611aee575b5081601f8911600114611a87575096809281926003979899600094611a7c575b50501b9160001990861b1c19161790555b604083015160028201550190606060018060a01b03910151166bffffffffffffffffffffffff60a01b825416179055565b015192503880611a3a565b909791601f198316988560005282600020926000905b8b8210611ad757505083600398999a10611abf575b505050811b019055611a4b565b015160001983881b60f8161c19169055388080611ab2565b808785968294968601518155019501930190611a9d565b6000858152838120601f8b0160051c810192858c10611b2d575b601f0160051c019185905b838110611b2257505050611a1a565b828155018590611b13565b9092508290611b08565b634e487b7160e01b600052600060045260246000fd5b939291611b6a9060409286526060602087015260608601906113a8565b930152565b916001600160a01b0380841692831561170b5716928315611c1b5760009083825281602052604082205490838210611be9575091604082827fddf252ad1be2c89b69c2b068fc378daa952ba7f163c4a11628f55a4df523b3ef958760209652828652038282205586815220818154019055604051908152a3565b60405163391434e360e21b81526001600160a01b03919091166004820152602481019190915260448101839052606490fd5b60405163ec442f0560e01b815260006004820152602490fd5b60ff60055460a01c16611c4357565b60405163d93c066560e01b8152600490fd5b600260065414611c66576002600655565b604051633ee5aeb560e01b8152600490fd5b60001981146117315760010190565b80518210156114305760209160051b010190565b15611ca257565b60405162461bcd60e51b8152602060048201526011602482015270456e64657265636f20696e76616c69646f60781b6044820152606490fdfea2646970667358221220737ae0aedeb331324708c3f3f7488e8f48a64145624b7bad9b969c95764e27fa64736f6c63430008140033",
  "linkReferences": {},
  "deployedLinkReferences": {}
}